:100000000C945E040C94A5040C94A5040C94A50413
:100010000C94A5040C94A5040C94A5040C94A504BC
:100020000C94A5040C94A5040C94542B0C94282C2B
:100030000C94B9250C94A5040C94A5040C94A50467
:100040000C94A5040C94A5040C94A5040C94A5048C
:100050000C940B130C9410260C94A5040C94A5047A
:100060000C94A5040C94A5040C94A5040C94A5046C
:100070000C94A5040C94A5040C94A5040C94A5045C
:100080000C94A5040C94A5040C94A5040C94A5044C
:100090000C94A5040C94A5040C94A5040C94A5043C
:1000A0000C94A5040C94A5040C94A5043A003B0000
:1000B00035001E001F002000210022002300240024
:1000C00025003C003D002B0014001A00080015001C
:1000D00017001C0018000C003E003F00390004000F
:1000E0001600070009000A000B000D000E0040007A
:1000F0004100E10029001D001B0006001900050059
:100100001100100042004300E000E300E2000000A4
:10011000000000002C0000000000260027002D0039
:100120002E002A00490053005400550056000000DC
:10013000120013002F00300031004C005F006000FF
:100140006100570000000F00330034002800000059
:100150004B005C005D005E000000000036003700D0
:100160003800E50052004E0059005A005B0058006C
:1001700000000000E600E400500051004F00620063
:100180000000630000000000010001000100010008
:100190000100010001000100010001000100010057
:1001A0000100010001000100010001000100010047
:1001B0000100010001000100010001000100010037
:1001C0000100010001000100010001000100010027
:1001D0000100010001000100010001000100010017
:1001E000010001000100010001000000000000000A
:1001F00001000000000001000100010001000100F9
:1002000001000100010001000100000001000100E7
:1002100001000100010001000100010001000100D6
:1002200000000100010001000100000001000100C8
:1002300001000100000000000100010001000100B8
:1002400001000100010001000100010000000000A8
:100250000100010001000100010001000000010097
:100260000000000001000100010001000100010088
:100270000100010001000100010001000100010076
:100280000100010001000100010001000100010066
:100290000100010001000100010001000100010056
:1002A0000100010001000100010001000100010046
:1002B0000100010001000100010001000100010036
:1002C000010001000100000000000000010000002A
:1002D0000000010001000100010001000100010017
:1002E0000100010001000000010001000100010007
:1002F00001000100010001000100010000000100F7
:1003000001000100010000000100010001000100E6
:1003100000000000010001000100010001000100D7
:1003200001000100010001000000000001000100C7
:1003300001000100010001000000010000000000B8
:1003400001000100010001000100010001000100A5
:100350000100010001000100010001000100010095
:100360000100010001000100010001000100010085
:100370000100010001000100010001000100010075
:100380000100010001000100010001000100010065
:100390000100010001000100010001000100010055
:1003A000010000000000000001000000000001004A
:1003B0000100010001000100010001000100010035
:1003C0000100000001000100010001000100010026
:1003D0000100010001000100000001000100010016
:1003E0000100000001000100010001000000000008
:1003F00001000100010001000100010001000100F5
:1004000001000100000000000100010001000100E6
:1004100001000100000001000000000000000000D9
:10042000000000002A2B280000000000000000004F
:100430000000000000000029000000002C1E3420F5
:10044000212224342627252E362D3738271E1F201B
:100450002122232425263333362E37381F04050660
:100460000708090A0B0C0D0E0F10111213141516A4
:100470001718191A1B1C1D2F3130232D35040506A2
:100480000708090A0B0C0D0E0F1011121314151684
:100490001718191A1B1C1D2F3130354C0000000095
:1004A000000000000000000000000000000000004C
:1004B0007E0F00D4FFFFFFC70000007832190A004A
:1004C000047F3F1F643214643214783C1E1E140AE9
:1004D000052223252628292A2C2D2F303233353684
:1004E000383A3B3D3E4042434547494A4C4E5051C5
:1004F000535557595A5C5E6062646668696B6D6FEC
:1005000071737577797B7D7F81838587898A8C8EEE
:1005100090929496989A9C9E9FA1A3A5A7A8AAACF6
:10052000AEAFB1B3B4B6B8B9BBBCBEBFC1C2C3C530
:10053000C6C7C9CACBCCCDCED0D1D2D2D3D4D5D6D2
:10054000D7D7D8D9D9DADADBDBDBDCDCDCDCDCDD05
:10055000DDDDDDDCDCDCDCDCDBDBDBDADAD9D9D8E9
:10056000D7D7D6D5D4D3D2D2D1D0CECDCCCBCAC981
:10057000C7C6C5C3C2C1BFBEBCBBB9B8B6B4B3B1B0
:10058000AFAEACAAA8A7A5A3A19F9E9C9A9896944B
:1005900092908E8C8A89878583817F7D7B79777520
:1005A00073716F6D6B6968666462605E5C5A5957FF
:1005B000555351504E4C4A4947454342403E3D3BBE
:1005C0003A3836353332302F2D2C2A292826252348
:1005D00022FFAA7F5540000000000000000000003C
:1005E0000001010203040506080A0C0F1114181C6F
:1005F0002024292E33393F464C535B626A7179813E
:100600008A929AA2AAB2B9C1C8CFD5DCE1E7EBF0D1
:10061000F4F7FAFCFDFEFFFEFDFCFAF7F4F0EBE761
:10062000E1DCD5CFC8C1B9B2AAA29A928A81797108
:100630006A625B534C463F39332E2924201C181420
:10064000110F0C0A08060504030201010000000056
:100650000000000000000001010101010101010191
:100660000202020202020202020303030303030363
:100670000304040404040404050505050506060630
:100680000606070707070708080808090909090AED
:100690000A0A0B0B0B0C0C0C0D0D0D0E0E0E0F0F92
:1006A0000F10101111111212131314141515161620
:1006B0001717181819191A1A1B1B1C1D1D1E1E1F8F
:1006C0002020212222232424252626272829292ADE
:1006D0002B2C2D2D2E2F3031323233343536373806
:1006E000393A3B3C3D3E3F40414243444546474802
:1006F000494A4C4D4E4F50515354555658595A5BD8
:100700005D5E5F616264656668696B6C6D6F707277
:10071000737577787A7B7D7E8082838587888A8CE3
:100720008E8F91939596989A9C9EA0A2A3A5A7A917
:10073000ABADAFB1B3B5B7BABCBEC0C2C4C6C9CB0E
:10074000CDCFD1D4D6D8DBDDDFE2E4E7E9EBEEF0C4
:10075000F3F5F8FAFDFF12034D0065006F00770016
:1007600054006F006F006C00000010034C004E003E
:10077000450020004C0061006200000004030904F1
:1007800009025B00030100A0FA0904000001030153
:100790000100092111010001224000070581030821
:1007A000000A0904010002030000000921110100F0
:1007B0000122220007058203200001070503032010
:1007C00000010904020001030000000921110100D9
:1007D00001226D000705840320000A1201100100A8
:1007E0000000080912585802F0010200010660FFDB
:1007F0000961A1010962150026FF00952075088195
:10080000020963150026FF00952075089102C005B6
:10081000010980A101850319012AB700150126B736
:1008200000950175108100C0050C0901A101850426
:1008300019012AA002150126A00295017510810058
:10084000C005010906A1018505050719E029E7157D
:100850000025019508750181020507190029EF158A
:1008600000250195F07501810205081901290595FA
:100870000575019102950175039101C005010906F5
:10088000A101050719E029E7150025019508750163
:1008900081029501750881010507190029FF1500DE
:1008A00026FF0095067508810005081901290595A0
:1008B0000575019102950175039101C011241FBEB8
:1008C000CFEFDAE0DEBFCDBF04B603FE27C08091D4
:1008D000180490911904A0911A04B0911B04873058
:1008E000904BA740B04BD1F4109218041092190409
:1008F00010921A0410921B0414BE84B7877F84BF21
:100900000FB6F894A895809160008861809360008C
:10091000109260000FBEE0E0F8E3099511E0A0E05E
:10092000B1E0ECE4FFE502C005900D92A63DB107F1
:10093000D9F724E0A6EDB1E001C01D92A831B207BD
:10094000E1F70E941A280C944E2F0C9400006E9A26
:10095000769A819A899A0895CF93C82F0E94AB0600
:10096000882331F0C0FD06C0769AC1FD05C0899A82
:10097000CF9108957698F9CF8998FACF0E94E70F22
:1009800044E66FEF80E00E949C0C83E20E94E40F3B
:1009900060E070E0CB010E942D240C94392481E0AA
:1009A000089581E008950C94D10408950C94D50421
:1009B0001F93CF93DF9300D000D00F92CDB7DEB757
:1009C00049835A836B833091A70289819A813111BF
:1009D0001DC06623B9F02223A9F00E94AC22182F73
:1009E000682F89819A810E94582269817A81812F9A
:1009F0000F900F900F900F900F90DF91CF911F915C
:100A00000C947E160E948422182FEFCF0E94AC22F5
:100A100069817A81EDCFFC01262F4081518162816D
:100A2000738184810C94D804CF93DF93EC0160E050
:100A30000E940B05BE01DF91CF910C94D604FF926A
:100A40000F931F93CF93DF93E82FF0E0E45EFB4F0B
:100A5000F490C82FC695C695C695D0E0FE01E45522
:100A6000FB4F0491877010E0082E02C01595079582
:100A70000A94E2F701701127C456DB4FFE01C491BE
:100A8000D0E002C0D595C7958A95E2F7C170DD2701
:100A90000115110519F081EE0E94D11A209719F065
:100AA00086EE0E94D11A8F2D0E943F1BCD2B19F08C
:100AB00086EE0E94171B012B41F081EEDF91CF9152
:100AC0001F910F91FF900C94171BDF91CF911F91F5
:100AD0000F91FF900895EF92FF920F931F93CF9382
:100AE000DF93EC01162F0AE08881882309F454C0B3
:100AF000813009F04EC08981813099F47E0122E075
:100B0000E20EF11C8A810E943F1BE7012196812F92
:100B1000815050F3EFE9FFE03197F1F700C000009A
:100B2000F7CF823041F47E0182E0E80EF11C8A8129
:100B30000E94D11AEACF833041F47E01E2E0EE0E4A
:100B4000F11C8A810E94171BE0CF843011F021969E
:100B5000DDCF2A81229690E080E0AE014F5F5F4FAB
:100B60002053330B2A30310548F0019778F2EFE932
:100B7000FFE03197F1F700C00000F7CF089FB00108
:100B8000099F700D1124C901860F971F2981EA0161
:100B9000E4CF0E941F05BACFDF91CF911F910F9133
:100BA000FF90EF90089560E00C946B058F929F92F8
:100BB000AF92BF92CF92DF92EF92FF920F931F936B
:100BC0006B017C0181E090E0A0E0B0E04C015D01B0
:100BD00004C0880C991CAA1CBB1C4A95D2F7B5010D
:100BE000A4014C015D0104C0880C991CAA1CBB1C0B
:100BF0002A95D2F7482959296A297B2904C0880FE8
:100C0000991FAA1FBB1F0A95D2F78A019B010C21CD
:100C10001D212E213F21041715072607370789F4C8
:100C20008C299D29AE29BF29BC01CD011F910F91AF
:100C3000FF90EF90DF90CF90BF90AF909F908F90FC
:100C4000089580959095A095B0958C219D21AE2119
:100C5000BF21EACF0F93382F262F60912603709182
:100C600027038091280390912903042F432F0E948A
:100C7000D6050F910C9496210E945A260E94F623C5
:100C8000811102C00E949C240E947A130C94A8082F
:100C90000C94AB0808950E94BF1D0E944A062FEFD6
:100CA00084E39CE0215080409040E1F700C00000C8
:100CB0000C9434260F931F93CF93DF93EC0161E0E4
:100CC0000E940B058C01BE010E9413148823B9F108
:100CD000BE01C8010E94D304882389F1BE01C80166
:100CE0000E946312882359F1BE01C8010E94D217E5
:100CF000882329F1BE01C8010E9424188823F9F035
:100D0000BE01C8010E9447198823C9F0BE01C8016D
:100D10000E94F910882399F08A81882339F00115FF
:100D20008CE5180751F00F3D1C4579F0CE01DF919D
:100D3000CF911F910F910C94CF040E944B0680E03D
:100D4000DF91CF911F910F9108950E949C24F7CFBE
:100D500008950C94A80681E00895CF93C82F0E94AF
:100D6000A9068C2FCF910C94AC0490E080E00895FC
:100D70000895FC01EE0FFF1FE454FB4F8591949101
:100D80000895CF93DF930E947E160E94CD07EC0159
:100D9000811520E5920708F041C0811530E49307E2
:100DA00008F0B4C0803E910518F5803C910508F02C
:100DB0009DC0883A910570F4853A910508F08EC07F
:100DC00081309105F9F00097E9F00497D8F4D0E06C
:100DD000C0E018C08F3B9105D0F7C85AD0E0CC0FC7
:100DE000DD1FCB5DDE4F0990D881C02DD4640AC0D1
:100DF0008115904258F4C11581E0D80718F4C83E17
:100E0000D10528F7CE01DF91CF910895C11590E368
:100E1000D90708F071C0CE019F706AC0811525E521
:100E2000920758F5811534E5930708F09EC08115A7
:100E300042E5940750F4C11581E5D80708F469C06C
:100E4000DC2FCC27C16FD06ADDCF982F9695969571
:100E50009E0123703327C115D34508F077C0C1E048
:100E6000D0E002C0CC0FDD1F2A95E2F720E2929F6E
:100E7000C0011124C82BD92B67C0C11589E5D8073B
:100E8000A8F4C11598E5D90708F074C0C11526E586
:100E9000D20708F09CCF8C2F0E946408C82FD0E0A6
:100EA000DC2FCC27CC27DF71D062ACCFC1153AE55F
:100EB000D30708F464C0CE0190568115904208F023
:100EC00086CF8D2F8F710E94640890E0982F88271D
:100ED00088279F719C012C2BE901E6CFC55AD0E0F1
:100EE000CD5ADE4FC881D0E0D0648CCF805C9109B0
:100EF0000E94B906EC0186CFCE019927D3FF03C02B
:100F0000EC01D86C7FCFEC01D06C7CCFDF70D06A65
:100F100079CFCE01E4E096958795EA95E1F7837065
:100F20002C2F26952695237090E2299F900111245D
:100F3000382B8C2F8370C1E0D0E002C0CC0FDD1FB6
:100F40008A95E2F7C22BD32BDC685CCFC1E0D0E0FE
:100F500002C0CC0FDD1F2A95E2F730E2939FC0015B
:100F60001124C82BD92BDA684DCFD82FCC27C46FCA
:100F7000D06A48CFDC2FCC27C06FD06A43CF8C2FEC
:100F80008F700E94640834E0D695C7953A95E1F7D2
:100F9000CF709C2FEC01D06935CF82389105B1F12B
:100FA000B0F48133910509F475C048F48932910594
:100FB00009F469C08A32910509F473C00895853334
:100FC000910509F459C08933910501F10895833ED3
:100FD0009105A9F138F4803E9105F9F0823E910522
:100FE00049F10895863E9105A9F1873E9105C9F121
:100FF000843E910519F520910A0421FF1FC08091BC
:10100000090484FD14C087EE90E00895209109043E
:101010002370A1F080EE90E008952091090420FD56
:1010200047C030910A0430FF09C024FF44C090E05B
:1010300080E004C02091090422FDF7CF089520919B
:10104000090422FD3BC030910A0430FDE3CF24FFA8
:10105000F5CFEDCF2091090423FFF0CF24FDE7CF9A
:10106000D2CF2091090423FD2CC030910A0431FF16
:10107000EECF84EE90E008952091090425FFDECFA5
:1010800089E290E008952091090425FFD7CF85E3F8
:1010900090E008952091090426FFD0CF8AE290E0E5
:1010A00008952091090426FFC9CF81E390E00895B7
:1010B00089E390E0089583EE90E0089582EE90E059
:1010C000089586EE90E008959091090492FF06C07D
:1010D000282F28712830F9F4877F846093FF06C099
:1010E000282F28712831F1F4877E846120910A0429
:1010F00020FF06C0382F38713830D9F4877F8160DF
:1011000021FF06C0282F28712831D1F4877E816104
:1011100094FD877E0895282F24712430F9F68B7F63
:101120008860DCCF282F2471243101F78B7E886101
:10113000DDCF382F3171313019F78E7F8860E0CFE5
:10114000282F2171213121F78E7E8861E1CF08950A
:101150000C94A70808950C94AA08E82FF0E0EE0F6D
:10116000FF1FE557FC4F808191810895089580EA23
:101170008A95F1F70895F894E82FE295EF70F0E082
:1011800031A1282F2F7081E090E001C0880F2A95AF
:10119000EAF7982F9095932391A392A1892B82A38C
:1011A00078940895CF93DF93C1E6D1E089910E94AE
:1011B000BB0881E0CB36D807C9F7C6E5D1E08991F5
:1011C0000E94BB0881E0C136D807C9F7E7E7F3E022
:1011D000ABE8B3E0119211921D921D9283E0EB38BF
:1011E000F807C1F78AE00E947709DF91CF910C944C
:1011F0003C06AF92BF92DF92EF92FF920F931F9344
:10120000CF93DF93C1E6D1E007E713E0D12CEE24C2
:10121000E394F12C8991F894E82FE295EF70F0E0D7
:1012200021A18F70A70102C0440F551F8A95E2F7D4
:10123000CA01922F982B91A392A18095892382A312
:1012400078940E94B708E6E5F1E030E020E0B12CA8
:10125000A12C4191A42FA295AF70B0E090968C91F3
:1012600090E04F7002C0959587954A95E2F780FD12
:1012700039C0C701022E02C0880F991F0A94E2F7F5
:10128000A82AB92A2F5F3F4F2B30310511F7FE01F5
:10129000319780810E94BB08F80180819181A81656
:1012A000B90619F1B182A08281E0D82A0E5F1F4FE2
:1012B000F1E0CB36DF0709F0ADCF2D2D4AE06BE82A
:1012C00073E087E793E00E9478090E9448068D2D1D
:1012D000DF91CF911F910F91FF90EF90DF90BF9022
:1012E000AF90089590E080E0CBCF80E0DECF08950E
:1012F000FF920F931F93CF93DF93F82E092F162F92
:10130000D72FC42F222349F081E08093D8010E9477
:10131000E9259093D7018093D6018091D801882345
:10132000A1F08091D6019091D7010E9401260697E5
:1013300060F0EF2DF02FA12FBD2F90E080E0D0E0E6
:101340008C179D0744F01092D801DF91CF911F9127
:101350000F91FF900895219131912D933D93019626
:10136000EFCFEF92FF920F931F93CF93DF93EB0199
:10137000E82FD11110C0442321F0F0E0EA5AF94FD0
:10138000E4916E2F7E2F8E2FDF91CF911F910F91C1
:10139000FF90EF9008950D2F10E0282F30E04423A8
:1013A00029F02A5A394FF901249130E0F6E0CF9F15
:1013B000C0011124EFEFF0E0BF010E94F62DAB0158
:1013C0008C2F90E0880F991FA5E5A49FB001A59FE1
:1013D000700D1124861B970B982F990F980FBF0142
:1013E000601B710B629FD001639FB00D729FB00DA7
:1013F00011248B2F9D9FB0011124672F7727EF01B8
:10140000C61BD70BBE01629FE001639FD00D729F88
:10141000D00D11247F01E91AF108E09EB001E19E90
:10142000700DF09E700D1124672F7727E61BF70BC8
:10143000E29F8001E39F100DF29F100D1124E12F18
:10144000722F4230510599F048F44115510569F069
:101450004130510581F0EB2F8D2F07C044305105ED
:1014600069F080F046305105B1F76E2F8DCFE22F35
:101470007B2F812FFACFE22F7D2FF7CFEB2F822FFB
:10148000712FF3CF7B2F822FED2FEFCF41E00C9404
:10149000B10908950C94460ACF93DF93762FE901A2
:1014A000682F842F0E944A0A798368838A83DF9198
:1014B000CF910895453608F044E60C944C0A80918B
:1014C0009F03982F9E7F61F48170826080939F03B9
:1014D0008091A203853618F084E68093A2030895D4
:1014E0008635B0F381708465F1CF88E090E00C948C
:1014F000EF2ECF92DF92EF92FF926B017C010E9460
:101500005F0AB701A60188E090E0FF90EF90DF90BE
:10151000CF900C940D2F60919F037091A003809148
:10152000A1039091A2030C94790AEFE9F3E083E020
:10153000808311828FEF828384E6838314826081AB
:101540007181828193810C94790A80919F0380FF3D
:1015500002C08695089580E008959091A30393308A
:1015600018F49F5F9093A303882351F060919F0329
:101570007091A0038091A1039091A2030C94790A29
:10158000089581E00C94AD0A9091A303992319F07A
:1015900091509093A303882351F060919F03709121
:1015A000A0038091A1039091A2030C94790A08955D
:1015B00081E00C94C40A8091A30308958093A3034F
:1015C000662351F060919F037091A0038091A10365
:1015D0009091A2030C94790A089560E00C94DE0ABD
:1015E0008091A00308958091A10308958091A203A2
:1015F000089570E00C9490136091080180919F030E
:1016000080FF0AC08091070123E0829FC00111245E
:101610008C559C4F0C94F90A8091090190910A0114
:1016200023E0829FF0011124EC55FC4F891750F7FD
:101630001182108212828F5F3396F8CF90919F03B0
:1016400090FF14C09091090120910A0133E0939F0B
:10165000F0011124EC55FC4F921710F00C94FC0A89
:101660008183608342839F5F3396F6CF0895CF9343
:10167000DF9300D00F92CDB7DEB790919F0390FF1C
:101680000AC09E012F5F3F4F0E945A0A4B81698119
:101690008A810E941E0B0F900F900F90DF91CF91C7
:1016A0000895CF93DF93EC01EC81F0E0EF52FB4F14
:1016B0004491EFE9F3E0628181810E94370B8C81D4
:1016C0008F5F8C83DF91CF910895CF93DF93EC01EF
:1016D000EFE9F3E0438162818C810E94370B8C81BA
:1016E0008F5F8C83DF91CF9108950F931F93CF93DA
:1016F000DF9300D00F92CDB7DEB78C018091D90176
:1017000081110AC09E012F5F3F4F44E66FEF0E9498
:101710005A0A8A818093D901F8016481613069F0A5
:101720008091D90140E0662361F040E0623011F41D
:101730004091D90180E060E004C06091D90140E0AF
:1017400080E00E941E0BF801848190E0019663E026
:1017500070E00E940A2E84830F900F900F90DF910B
:10176000CF911F910F910895AF92BF92CF92DF92C8
:10177000EF92FF920F931F93CF93DF9300D00F92BE
:10178000CDB7DEB7182FF62E042FE22E90919F03CF
:1017900090FF29C0E92FE695AE2FB0E0A559BE4FC6
:1017A0008C91809383029E7F923059F59E012F5F2A
:1017B0003F4F812F0E945A0A4B8169818A810E9482
:1017C0001E0B1093A003F092A1030093A203EE203E
:1017D00051F060919F037091A0038091A1039091BB
:1017E000A2030E94790A0F900F900F90DF91CF9182
:1017F0001F910F91FF90EF90DF90CF90BF90AF902F
:101800000895823019F40091A203DBCF863019F4D9
:101810001091A003D6CF8930D9F3893191F6E951DF
:101820008E2F8170D82EE695F0E0EF52FA4FA590FA
:10183000B490C12CBB2460910B01C61618F00E9415
:10184000FC0ABFCF2C2D30E0A29EC001A39E900DBC
:10185000B29E900D112470E00E94F62D812FD110C0
:1018600013C0860F40910901420F532F511D9A0159
:10187000220F331F240F351F2C553C4F402F6F2D47
:101880000E945A0AC394D7CF861BECCFEFE9F3E04E
:101890009181282F438162818AE0890F0C94B40BD7
:1018A00081E00C94460CEFE9F3E09181282F43810D
:1018B000628186EF890F0C94B40B81E00C94530C79
:1018C000EFE9F3E0628121E1620F08F46FEF282F66
:1018D000438181810C94B40B81E00C94600CEFE99E
:1018E000F3E0628121E1621B08F460E0282F43816C
:1018F00081810C94B40B81E00C946F0CEFE9F3E060
:10190000438121E1420F08F44FEF282F628181814A
:101910000C94B40B81E00C947E0CEFE9F3E043816E
:1019200021E1421B08F440E0282F628181810C9460
:10193000B40B81E00C948D0C21E00C94B40B20E0EE
:101940000C94B40BEF92FF921F93CF93DF93EC01B3
:1019500010E0EE24EA94F12C60910B01161770F060
:101960000E94FC0A9A818C8190FF27C08F5F8C8334
:10197000DF91CF911F91FF90EF9008952091090181
:10198000422F410F5527551FCA019A01220F331FBD
:10199000280F391F2C553C4F70E0C7010E940A2EBA
:1019A000962F8C814091A2036091A103199F800D15
:1019B00011240E945A0A1F5FCFCF8150D8CFBF9207
:1019C000CF92DF92EF92FF920F931F93CF93DF930B
:1019D000FC0182810FEF80FF01E010E080910B019C
:1019E0001817C0F00E94FC0A8091DB01013009F059
:1019F00051C0811102C080910B0181508093DB01A5
:101A0000DF91CF911F910F91FF90EF90DF90CF90DA
:101A1000BF900895C0910901C12ED12CCC0DDD2DB0
:101A2000D11DCE01880F991FC80FD91FCC55DC4F8F
:101A3000198218821A8234E0E32EF12CB12C8091A5
:101A4000DB018B0D813204F18F71082E000C990B94
:101A5000C816D90691F48091A2038E9DA0018F9D96
:101A6000500D112455954795559547959E016091C8
:101A7000A1038091A0030E945A0AB00EF1E0EF1A70
:101A8000F108E9F61F5FAACF87FFDFCF90910B0126
:101A9000890FDBCF90E0019660910B0170E00E940E
:101AA0000A2EACCF0F931F93CF93DF938091090140
:101AB00090910A0123E0829FF0011124EC55FC4F24
:101AC000891740F1C0E0D3E060910B01C61740F1E7
:101AD0000E94FC0A209105018091DA01820F809317
:101AE000DA0190910601920F90930601191654F4B1
:101AF000082E000C990B40910B014150550B841797
:101B000095071CF0219520930501DF91CF911F913E
:101B10000F9108951182108212828F5F3396D0CF79
:101B20000C2F10E070E0C8010E940A2E20910901DC
:101B3000820F482F50E02091DA01022E000C330B67
:101B400002171307BCF020910601022E000C330B84
:101B5000201731077CF08D9F900111242C553C4FAC
:101B60004091A2036091A1038091A0030E945A0AB0
:101B7000CF5FAACFFA01EE0FFF1FE40FF51FEC5560
:101B8000FC4F118210821282F3CF8F929F92AF92FC
:101B9000BF92CF92DF92EF92FF920F931F93CF935A
:101BA000DF93EC014C81042F10E09801D8010E94D2
:101BB000552E9B01AC010E946B2E4B015C01E0E2B3
:101BC000F0E0E01BF10BA5E5B0E0AC019B010E9449
:101BD0006B2E6B017C019F01DF010E944D2E9B014A
:101BE000AC010E94762E9B01AC01280D391D4A1DC7
:101BF0005B1DC701B6010E941E2EF22E822F90E0BF
:101C000039E23F1560F143E0249F9001112435959E
:101C10002795122F109500E085E5E82EEF188091AA
:101C20000B01081758F10E94FC0A9C8181E099235E
:101C300019F0903219F48FEF809304018091040120
:101C4000890F8C83DF91CF911F910F91FF90EF90BF
:101C5000DF90CF90BF90AF909F908F90089525E533
:101C600030E0B901681B790B9B01220F331F260F4F
:101C7000371F37FFCCCF2F5F3F4FC9CF8E2D01FDD0
:101C80008F2D20910901622F600F7727771F9B010D
:101C9000220F331F260F371F2C553C4F412F6091C9
:101CA000A1030E945A0A0F5FBACF0F931F93CF93DD
:101CB000DF93EC0110E000E090910B01901711060A
:101CC00009F06CF40E94FC0A8C8190E0019681700E
:101CD00099278C83DF91CF911F910F9108952091C7
:101CE0000901A801420F511D9A01220F331F240F31
:101CF000351F2C553C4F4C816091A1038091A0036E
:101D000096959017110651F04CF0442349F04091FC
:101D1000A2030E945A0A0F5F1F4FCECF4423B9F38C
:101D200040E0F7CF8F929F92AF92BF92CF92DF9217
:101D3000EF92FF920F931F93CF93DF93FC01B2803A
:101D4000948081E0848300E015E05BE4A52E882484
:101D50008394EE24EA94F12C7BE4C72ED12C80915D
:101D60000B01081770F0DF91CF911F910F91FF9039
:101D7000EF90DF90CF90BF90AF909F908F900C949A
:101D8000FC0AC02FD0E01C9FF0011D9FF00D112414
:101D9000E452FE4F91101CC013821282209109015F
:101DA000CE01820F911D9C01220F331F280F391F76
:101DB0002C553C4F1C9FF0011D9FF00D1124E45247
:101DC000FE4F4281618180810E945A0A0F5FC7CF16
:101DD0002381222379F12150238334818A2D821B90
:101DE000311101C0822F1C9FF0011D9FF00D1124A5
:101DF000E452FE4F9091A203899FC0011124B601C5
:101E00000E94F62D6283211104C0332311F0148245
:101E1000A38222E02B1510F21C9FF0011D9FF00DF4
:101E20001124E452FE4F8091A00380838091A1038E
:101E30008183B4CF0E94CA2E823091400CF0AECF85
:101E400082E08B1530F50E94CA2EB7010E940A2E3F
:101E50001C9FF0011D9FF00D1124E452FE4F808362
:101E600022E02B15C8F40E94CA2E2091A1032695CA
:101E7000622F70E00E940A2E280F1C9FF0011D9F08
:101E8000F00D1124E452FE4F21831282A38284823A
:101E900085CF8091A003DCCF2091A103EECFEFE9A5
:101EA000F3E080818E7F8083608171818281938164
:101EB0000E94790A109284022FEF80E792E021506D
:101EC00080409040E1F700C000000C94FC0AEFE96C
:101ED000F3E080818E7F8083109284022FEF80E771
:101EE00092E0215080409040E1F700C000000C9447
:101EF000FC0A60919F03669570E04BE050E08CE037
:101F000091E00E94DA2E892B19F481E080938402FB
:101F10000E94E92590937D0280937C020895909120
:101F20009F0390FF35C09170811128C092609093FB
:101F30009F03662351F060919F037091A0038091ED
:101F4000A1039091A2030E94790A60919F03669574
:101F500070E04BE050E08CE091E00E94DA2E892B9B
:101F6000A1F01092840281E080937F024091A2034D
:101F70006091A1038091A0030C949F0C8B3210F010
:101F80009465D5CF880F982BD2CF0E94790FEBCFD5
:101F90000895682F90919F03969581E0890F8B3269
:101FA00008F081E00C948F0F81E00C94C90F682F2A
:101FB00090919F0396958FEF890F09F48AE20C9414
:101FC0008F0F81E00C94D70F61E00C948F0FEFE935
:101FD000F3E080818160808386950C94E40F80918A
:101FE0009F0380FD0C944F0F0C94E70F60E00C945E
:101FF0008F0F8091820281112EC00E94F6238111E1
:1020000004C00E949C240E94950A0E94750A609355
:102010009F037093A0038093A1039093A2036E7F0C
:1020200061F40E94950A0E94750A60939F03709361
:10203000A0038093A1039093A2030E945F0A1092D1
:10204000840280919F0380FF03C086950E94F60F53
:1020500081E0809382020895EFE9F3E0808181605E
:10206000808386950C94F60F0F931F93CF93DF9385
:1020700080918402882309F49DC080918302E091BD
:102080009F03E695E81BE0937E028230C9F5F0E0FD
:10209000E353FB4FE491CE2FD0E001E51BE08091AC
:1020A0007F02882389F010927F020E94E9259E0119
:1020B00020953095820F931F90937D0280937C0230
:1020C000109281021092800280917C0290917D0298
:1020D0000E9401268C179D0708F46CC0E0917C02D9
:1020E000F0917D02CE0FDF1FD0937D02C0937C0262
:1020F0008CE792E0F801DF91CF911F910F91099445
:10210000863049F4F0E0E653FB4FE491CE2FD0E067
:1021100005E61BE0C4CF893051F4E695F0E0E953C1
:10212000FB4FE491CE2FD0E002EA1CE0B8CF8F3015
:1021300051F4E695F0E0EC53FB4FE491CE2FD0E064
:102140000FED1CE0ACCF853149F4F0E0EF53FB4FCD
:10215000E491CE2FD0E002E51DE0A1CFC8E2D0E0AF
:1021600005EC1DE0883109F49ACF833239F4EFEBA6
:10217000F4E0C591D49105E71BE091CFC4EFD1E025
:1021800005E51EE0843209F48ACFC0EDD7E009E40A
:102190001AE0853209F083CF8E2F63E00E94EA2D8A
:1021A000E92FF0E0E454FB4FE491CE2FD0E002E9B8
:1021B0001EE075CFDF91CF911F910F910895FA0125
:1021C000811101C0FB010994CF93DF93C82FD62F53
:1021D0000E94A50A8C1740F00E94A50A8D1720F4D2
:1021E000DF91CF910C94D40F8C2FDF91CF910C9471
:1021F000E40F0F931F93CF938C01FB01C281CC237B
:1022000009F465C00E9441238272F801E35CFC4539
:10221000E431F10538F4E05BF04D0C94402E0E945F
:10222000EF0FC0E08C2FCF911F910F91089541EED9
:102230005FE064ED7FE00E94DF10F3CF44ED5FE0EC
:1022400061EE7FE0F8CF4DE55CE060E57CE0F3CF48
:1022500040E55CE06DE57CE0EECF4BE75CE06CE6F2
:102260007CE0E9CF4CE65CE06BE77CE0E4CF49E959
:102270005CE06AE87CE0DFCF4AE85CE069E97CE0AA
:10228000DACF48ED5AE061EC7AE0D5CF41EC5AE084
:1022900068ED7AE0D0CF81E00E94E40FC2CF65E024
:1022A00082E00E94E410BDCF68E086E0FACF6EE0E5
:1022B00089E0F7CF64E18FE0F4CF67E185E1F1CF0A
:1022C00088E1EACF62E289E1ECCF83E2E5CFC1E0C9
:1022D000A9CF809104040C9428248091040486954D
:1022E0008695869508958091040481FD07C08260DB
:1022F000809304040E9428240C94F612089580917F
:10230000040481FF07C08D7F809304040E94282469
:102310000C94021308958091040481FD0C947F11A4
:102320000C947311809104048695817008958091B6
:10233000170108950E94F623811102C00E949C2477
:102340000E94242480930404803320F087708862E4
:102350008093040490910404892F817090FF04C03D
:10236000892F8695869586950C94CC1280910404CD
:10237000982F969596959695953040F49F5F990F76
:10238000990F990F8770892B80930404809104041E
:102390008160809304040E9428248091040486951F
:1023A000869586950C94CC1280910404982F987F82
:1023B00079F0885080930404887F91E009F490E0DC
:1023C0008091040490FB80F9809304040E942824E7
:1023D000809104048695869586950C94CC12809104
:1023E000040480FD13C0816080930404813019F4DB
:1023F00089E080930404809104040E942824809141
:1024000004048695869586950C94CC120895809147
:10241000040480FF08C08E7F809304040E94282457
:1024200080E00C94CC1208958091040480FD0C94FB
:1024300007120C94EF1190910404892F86958695CC
:1024400086958F5F8F7197708630D8F4880F880FCC
:10245000880F892B8093040480910404887F91E085
:1024600009F490E08091040490FB80F980930404C7
:102470000E942824809104048695869586950C9464
:10248000CC1290930404E8CF863008F085E0909158
:1024900004049770282F220F220F220F922B909363
:1024A0000404987F21E009F420E09091040420FBCB
:1024B00090F9909304040C94CC120E9444128091E1
:1024C00004040C942824FC01DB0112968C918823CF
:1024D000F9F0EC5BFC45E730F105D8F4EC59F04D30
:1024E0000C94402E85E00E945D1280E0089580E00B
:1024F000FACF0E94D411F9CF0E94B611F6CF0E94F4
:102500001412F3CF0E941B12F0CF0E948B11EDCF5B
:1025100081E00895279A2F9808952F980895CF92D3
:10252000DF92EF92FF928C3724E1920750F469E03A
:1025300070E00E94F62DCB01FF90EF90DF90CF90DE
:102540000895B0E0A0E0BC01CD016A50774D8F4FF7
:102550009F4F982F872F762F662725EF38E241E08F
:1025600050E00E941E2E69017A01CA01B9010E9441
:10257000DA2D9B01AC01C701B6010E94DA2D672F4D
:10258000782F892F99276115710521E08207910520
:1025900091F66FEF7FEFCFCFCF93C82F8630F0F457
:1025A00081111DC080918000877F809380000E94F0
:1025B0008D122C2F30E0AFEFBFEF0E94552E25E09B
:1025C00030E040E050E00E941E2EC9010E948F12B0
:1025D00090938D0080938C00CF910895C5E08091F9
:1025E0008000886080938000E4CF08951092860276
:1025F0001092850210928702EFE6F0E08081816000
:1026000080830895EFE6F0E080818E7F80830E94D2
:102610006D110C94CC121F920F920FB60F921124D1
:102620002F933F934F935F936F937F938F939F93DA
:10263000AF93BF93CF93EF93FF930E949711409175
:102640008502509186024F5F5F4F94EF899F900102
:102650001124CA01B9010E94F62D9093860280933D
:102660008502B901660F672F661F770B71950E946F
:10267000F62D6F7780918702823041F4603451F4F7
:1026800080916F008E7F80936F0004C0813011F4C1
:102690006F37B1F3E62FF0E0EA52FA4FC4910E948F
:1026A0006D11282F41E051E0C49FC001C59F900DDE
:1026B000112465E070E00E94F62D269FC001279F3F
:1026C000900D11240E948F1290938D0080938C00A6
:1026D000FF91EF91CF91BF91AF919F918F917F919A
:1026E0006F915F914F913F912F910F900FBE0F907F
:1026F0001F9018950E948A128AE08093800089E1D9
:10270000809381008FEF9FEF9093870080938600E6
:102710000E949A110E94921181110C94F612089550
:10272000809A41B34E7F51B35160EFB7F8949B014B
:10273000220F331F260F371F280F391F281739077D
:1027400041F4EFBF8FE594E00197F1F700C000007E
:102750000895DC016D91CD0178E051BB000000C00F
:1027600067FF41BB660F000000C000C000C041BB56
:1027700000C07A9591F7E2CF82E290E00E94E72EC6
:10278000813289F483E290E00E94E72E863059F48A
:1027900084E290E00E94E72E91E0833009F090E01F
:1027A000892F8170089580E0FCCFCF93C82F6FEF01
:1027B000811161E282E290E00E94FB2E6FEFC11175
:1027C00066E083E290E00E94FB2E6FEFC11163E0B0
:1027D00084E290E0CF910C94FB2E80E00E94D51310
:1027E0000C94F023089585E290E00E94E72E682F74
:1027F00070E090E080E0089585E290E00C94FB2E7C
:102800000E94F2130E94BC1381110CC060E070E0C2
:10281000CB010E94FC130E94F6150E94E01681E095
:102820000C94D5130895CF93FB01C281CC2309F1F9
:102830009C0122513F452031310520F582510E94F3
:10284000F016C0E08C2FCF91089581E00E94BC214A
:1028500043E062E081E00E942A06F3CF81E00E941B
:10286000DD2143E062E081E00E942A06EBCF82E0B6
:10287000F6CF8031FFE59F0789F381319F45B9F39A
:10288000C1E0E0CF8031EFE59E07F9F281319F454D
:10289000C9F682E0DBCF2FEFFC0120830895CF93B0
:1028A000DF93EC018881893029F08A3079F0DF915B
:1028B000CF9108950E946D112FEF829FC0011124C6
:1028C00065E070E00E94F62D6983F1CF0E949211BD
:1028D0008983EDCFFC018081893019F08A3069F05D
:1028E0000895818125E0829FC00111246FEF70E07F
:1028F0000E94F62D862F0C9444128181811102C012
:102900000C947F110C947311CF93DF93EC018881A9
:102910008138A9F028F4803871F0DF91CF910895C3
:10292000823881F08338C9F70E94F00A89830E94B7
:10293000F30A8A83F2CF0E94F60A8983EECF0E94BF
:10294000A50AFBCF0E94DB0AF8CFCF93DF93EC01FF
:1029500088818138E1F028F4803869F0DF91CF91E7
:102960000895823811F18338C9F70E94F60A482F7A
:102970006A81898108C0D9810E94F30AC82F0E9408
:10298000F00A4D2F6C2FDF91CF910C949F0C898111
:102990000E94F60F8981811104C0DF91CF910C94C0
:1029A000670FDF91CF910C942C108981DF91CF912B
:1029B0000C94ED0ADF92EF92FF920F931F93CF9347
:1029C000DF93EC01D62EDC01ED918D01E150E33176
:1029D00008F0C9C0F0E0E559F04D0C94402E198282
:1029E00089E08A836D2DCE01DF91CF911F910F91E8
:1029F000FF90EF90DF900C940E278981823069F070
:102A0000833071F08130D9F40E94F5250E94462E62
:102A10006A837B838C839D83E5CF0E94F313F6CF7B
:102A20007E0110E0812F0E94AD08F701928383831D
:102A30001F5FF2E0EF0EF11C1A30A1F7D3CF6D2D1E
:102A4000CE010E944B14CECF89818230C1F76A81BA
:102A50007B818C819D810E94462E0E94FC13C2CFF7
:102A60004B816A8189810E94C815982789279827F8
:102A70009D838C83B7CF2C813D813227232732273A
:102A80004B816A8189810E94E115ACCF0E94F615C5
:102A9000A9CFCD010E946A14C8010E94A514A2CF3B
:102AA000CD010E944F14C8010E9484149BCF0E9444
:102AB00069110E948B0A96CF0E948B16898392CF50
:102AC0000E948D169827892798279A8389838ACF11
:102AD0006B8170E089819A81AE014C5F5F4F9827CE
:102AE000892798270E9490167DCF6B8170E089819D
:102AF0009A81AE014C5F5F4F9827892798270E94E3
:102B0000B61670CF0E94E0166DCF0E94B615D6CFD4
:102B10006B8170E089819A81AE014C5F5F4F98278D
:102B2000892798270E942E165DCF6B8170E08981DE
:102B30009A81AE014C5F5F4F9827892798270E94A2
:102B4000541650CF0E94ED134DCF0E940E272FEF49
:102B500081EE94E0215080409040E1F700C00000F9
:102B60000E9434263FCF8FEF88833CCF84E00895C6
:102B700050E0440F551F96E1699F400D511D1124EF
:102B80009CED899F400D511D1124CA018696089520
:102B90000F931F93CF93DF930E94B8158C010E946F
:102BA000E72EC82FD0E0DC2FCC27C80101960E9469
:102BB000E72E9E01282BC901DF91CF911F910F9124
:102BC00008950F931F93CF93DF93122F032F0E942B
:102BD000B815EC01602F0E94FB2E612FCE010196EB
:102BE000DF91CF911F910F910C94FB2EAF92BF926A
:102BF000CF92DF92EF92FF921F93CF93DF938CEAF5
:102C0000C82E80E0D82ED0E07601C0E014C0F501D7
:102C100025913491412F6C2F8D2F0E94E11582E078
:102C2000A80EB11C1F5F1B3091F786E1E80EF11C66
:102C3000CF5FCA3019F0570110E0E9CFDF5F8CEDAC
:102C4000C80ED11CD43001F7DF91CF911F91FF90B6
:102C5000EF90DF90CF90BF90AF900895EF92FF92EA
:102C60000F931F93CF93DF93EC018A017C01E60E53
:102C7000F71ECE018696CE15DF0539F4DF91CF9190
:102C80001F910F91FF90EF900895C03723E0D20776
:102C900040F40E94E72EF80180830F5F1F4F2196BA
:102CA000E8CFF8011082F9CFCF92DF92EF92FF9236
:102CB0000F931F93CF93DF937C016A018C01060F62
:102CC000171FEC01CE018696C017D10749F4DF919A
:102CD000CF911F910F91FF90EF90DF90CF900895CB
:102CE000C03723E0D20740F4FE01EE19FF09EC0DD6
:102CF000FD1D60810E94FB2E2196E4CF462F84307B
:102D000038F47A3028F46B3018F4672F0C94C81517
:102D100090E080E0089580E108958AE690E00895CB
:102D2000EF92FF920F931F93CF93DF93EC018A01F1
:102D30007C01E60EF71ECE018A569C4FCE15DF05AC
:102D400039F4DF91CF911F910F91FF90EF9008958B
:102D5000CA36D10540F40E94E72EF80180830F5F48
:102D60001F4F2196E8CFF8011082F9CFCF92DF9262
:102D7000EF92FF920F931F93CF93DF937C016A0131
:102D80008C01060F171FEC01CE018A569C4FC0170D
:102D9000D10749F4DF91CF911F910F91FF90EF90F0
:102DA000DF90CF900895CA36D10540F4FE01EE19A8
:102DB000FF09EC0DFD1D60810E94FB2E2196E4CFE2
:102DC000CF93DF93C6E9D3E060E0CE010E94FB2EF3
:102DD0002196C11584E0D807B9F7DF91CF91089506
:102DE000DF92EF92FF920F931F93CF93DF9300D068
:102DF00000D0CDB7DEB7F82E8FE08F1540F08FEF03
:102E000093E00E94E72E06E913E08823C1F00F90BB
:102E10000F900F900F90DF91CF911F910F91FF9026
:102E2000EF90DF900895011584E0180781F3C80141
:102E30000E94E72E811101C0FA940F5F1F4FF1101D
:102E4000F2CF19821A821B821C82DD24D39478016E
:102E50008FEFE81AF80AC8010E94E72E89831A82C8
:102E60008823A9F29FEF980F933078F48A83D98250
:102E70000E5F1F4FC7010E94E72E8B83882339F214
:102E8000CE0101960E94D305E2CF8701F9CFAF9220
:102E9000BF92CF92DF92EF92FF920F931F93CF9347
:102EA000DF937C015B01C42FD22FFC018281882338
:102EB000F9F040938A020E94E92590938902809359
:102EC000880280E28C0F883008F061C0C77081E012
:102ED00001C0880FCA95EAF7DF91CF911F910F913A
:102EE000FF90EF90DF90CF90BF90AF900C94521B6B
:102EF00010918A02141340C0809188029091890237
:102F00000E9401266C01B701C5010E943520C81638
:102F1000D90690F5C0E2CD0F1D17B9F080E2810F00
:102F2000883040F4177081E001C0880F1A95EAF7E5
:102F30000E94591BC83048F481E09D2F977001C052
:102F4000880F9A95EAF70E94521B802F0E943F1B20
:102F5000C830E8F4D77081E001C0880FDA95EAF74D
:102F6000DF91CF911F910F91FF90EF90DF90CF9065
:102F7000BF90AF900C94591B80E28C0F883038F4CE
:102F8000C77081E001C0880FCA95EAF7E9CFDF91E9
:102F9000CF911F910F91FF90EF90DF90CF90BF9056
:102FA000AF9008950F939C01CB01243F4CE534076B
:102FB00059F1A8F4293DFCE53F0701F12A3D4CE514
:102FC0003407D1F1283D3C4591F406E221EE41EE73
:102FD00068ED7CE50E94471780E00F910895263F39
:102FE000FCE53F07E9F0B0F0273F3C45F9F0FC0174
:102FF0008281882339F110928A02EFCF07E225EE11
:1030000045EE69ED7CE5E6CF06E221EE40EE64EFA9
:103010007CE5E0CF07E225EE44EE65EF7CE5DACF14
:1030200006E221EE42EE66EF7CE5D4CF07E225EE24
:1030300046EE67EF7CE5CECF08E221E045EE6AED93
:103040007CE5C8CF81E0C9CFCF93DF93EC01FB01D2
:103050008281882309F419C1C230FCE5DF07C0F181
:10306000C6319CE5D90730F09E012B5F3C452930E5
:10307000310570F50E94092490930A048093090495
:10308000C031ECE5DE0709F4CFC008F05BC0C83002
:103090008CE5D80709F4B6C088F5C430ECE5DE0746
:1030A00009F4A8C0C0F4C2308CE5D80709F49CC06C
:1030B000809109048260C330DC4509F498C0809196
:1030C000090490910A040E9417240E94BF1D80E009
:1030D000DF91CF910895809109048061C630ECE5BD
:1030E000DE0709F484C0809109048860C730DC459C
:1030F00008F47DC080910904806279C0CC308CE5F1
:10310000D80709F489C070F4809109048C60CA3032
:10311000ECE5DE0709F46BC008F478C0809109047F
:103120008E7F65C0CE308CE5D80709F479C08091D8
:1031300009048B7FCF30DC4508F459C08091090425
:103140008F7E55C0CC3FECE5DE0709F457C030F563
:10315000C3318CE5D80709F46FC078F4C131ECE5D0
:10316000DE0709F465C0C231DC4509F0A8CF0E9432
:10317000BF1D809109048F773AC0C5318CE5D8070F
:1031800009F462C008F476C080910A048160CB3FE4
:10319000DC4509F094CF80930A0491CFC115FDE579
:1031A000DF0709F44DC088F480910A048D7FCE3F7B
:1031B0009CE5D90781F380910A048E7FCF3FDC45DF
:1031C00050F380910A048360E6CFC230FDE5DF074B
:1031D00009F459C008F444C080E0C330DD4509F06B
:1031E0006ECF0E949E246BCF8091090481608093F2
:1031F000090465CF809109048460F9CF80910A04A5
:103200008260C9CF809109048064F1CF0E94BF1D04
:10321000809109048068EBCF809109048D7FE7CF0E
:1032200080910904877FE3CF809109048F7DDFCFF0
:10323000809109048F7BDBCF80910904837FD7CFF6
:1032400080910A048C7FA7CF8091090482FB992783
:1032500090F921E0922790FB82F990FB83F9C7CF88
:1032600080910A04982F909591708E7F892B90FB06
:1032700081F991CF0E94BF1D90910904892F97FB7E
:1032800087F98058B4CF81E0ACCF81E021CFCF93D4
:10329000DF93EB0186319C4511F50E9441239A8111
:1032A000992399F08A7A91E009F490E090938B0247
:1032B000811109C089E20E941C230E948D2380E0B5
:1032C000DF91CF91089585E3F6CF80918B02811134
:1032D00004C089E20E942323F0CF85E3FBCF81E085
:1032E000EFCF90939102809390020895E091900225
:1032F000F0919102309721F00190F081E02D099436
:1033000080E00895E0919002F0919102309799F059
:1033100020912401222359F02091090427FF07C09E
:10332000DC012C9111962C93119725E02C930280AF
:10333000F381E02D0994089520918E0230918F023F
:103340002817390771F090938F0280938E02E091D5
:103350009002F0919102309721F00680F781E02DE4
:103360000994089520918C0230918D022817390715
:1033700071F090938D0280938C02E0919002F09115
:103380009102309721F00084F185E02D0994089591
:1033900085B7806885BF85B7806885BF0895089523
:1033A0000C94A70408950C94D2190E94C8190E9485
:1033B000CF190C94D01981E008950C94DB1908956D
:1033C00008950E94E0250E94D2080E9400140E94E5
:1033D0006E260E949A110E94F90F0C94D3199F92A5
:1033E000AF92BF92CF92DF92EF92FF920F931F9313
:1033F000CF93DF93CDB7DEB72A970FB6F894DEBF31
:103400000FBECDBF0E94DF190E94E0190E94F9088B
:103410000E94DD19882309F472C053E9A52E52E0F9
:10342000B52E10E000E0902E802F0E94AD086C01B8
:10343000F501E190F1905F01E816F90609F459C031
:103440008091530381FD0E94B60897012C253D25EC
:1034500080E0EE24E394F12CA9014E215F21452B5D
:1034600009F441C08E839F82CE20DF2081E0CD28E9
:1034700009F480E088870E94E9258160782F9A8787
:1034800089874E815F8168858A850E94A21A000F14
:10349000111FF801ED56FD4F80819181E826F92634
:1034A000F182E0820E9434100E94F5120E94761987
:1034B000909192028917A1F10E947619809392024D
:1034C0002A960FB6F894DEBF0FBECDBFDF91CF9125
:1034D0001F910F91FF90EF90DF90CF90BF90AF9032
:1034E0009F900C94AD068F5FEE0CFF1C8B3009F0A3
:1034F000B3CF0F5F1F4F0A30110509F094CF8FEF44
:1035000089838A831B820E94E9258160782F9D83AD
:103510008C8349815A816B818D810E94A21AC2CF0E
:103520002A960FB6F894DEBF0FBECDBFDF91CF91C4
:103530001F910F91FF90EF90DF90CF90BF90AF90D1
:103540009F900895CF93DF93CDB7DEB72B970FB63B
:10355000F894DEBF0FBECDBF4F83588769877A8747
:103560008B871E821D8285E0FE013796DE01119653
:1035700001900D928A95E1F749815A816B817C8196
:103580008D819E812B960FB6F894DEBF0FBECDBF06
:10359000DF91CF910C943820FC01808191810C94B3
:1035A000EE22CF93C82F882309F43FC08CEF8C0FF5
:1035B000813AA0F46C2F80911801909119010E941A
:1035C000B724882329F08C2F0E9423230E948D2367
:1035D0008C2F0E941C23CF910C948D2380E28C0FA2
:1035E000883048F4C77081E001C0880FCA95EAF7B7
:1035F0000E944423F0CFEBE5EC0FE33040F4F0E021
:10360000EC53FE4F808190E0CF910C949C19C85AE6
:10361000C73158F4EC2FF0E0EE0FFF1FEA56FE4FD3
:1036200080819181CF910C94B219CF910895882314
:1036300029F19CEF980F913A20F40E9423230C94D7
:103640008D2390E2980F983050F4877091E001C07C
:10365000990F8A95EAF7892F0E944A23F0CF9BE5BC
:10366000980F933020F490E080E00C949C19885AD5
:10367000873120F490E080E00C94B2190895CF9344
:10368000C82F0E94D11AC93349F42FEF87EE93E077
:10369000215080409040E1F700C000008C2FCF9176
:1036A0000C94171B882321F00E9444230C948D2333
:1036B0000895882321F00E944A230C948D230895B5
:1036C000BF92CF92DF92EF92FF920F931F93CF930F
:1036D000DF936C01D62FC72FFC01058102950F7077
:1036E000128111110E9461230E943A23E82E88233F
:1036F00091F01123D1F08C2F807F803421F080E273
:103700008D0F883090F082E00E94D8230E943A23E7
:1037100091E0E82EE926BC2EB2949FE0B922EB2D71
:10372000F0E0E258F04D0C94402EE12CF4CF0C2F39
:103730000F70C07F11F00295007F1123A9F00023C4
:1037400059F080E28D0F883010F0D11109C0802F20
:103750000E9444230E948D238D2F0E94D11A14C0F1
:10376000802F0E945423F6CF8D2F0E94171B002319
:1037700059F080E28D0F883010F0D1112CC0802FCD
:103780000E944A230E948D232B2D2850330B243076
:10379000310520F40E9476190E94AD06EE2009F44E
:1037A00093C10E94362380FD8FC1F60112820E94D0
:1037B00030230E94BC21C6010E94851D0E94302337
:1037C000DF91CF911F910F91FF90EF90DF90CF90FD
:1037D000BF900C94DD21802F0E945A23D3CFFC2F61
:1037E000FF70FF2EC07FC03219F0F29480EFF822F4
:1037F000DD2369F0D13049F1112391F1002351F11A
:10380000F601858180FFA8CF8F70858323C01123A7
:1038100081F0011106C00E9474238F290E94521B5F
:10382000B3CF0130C1F70E9474238F290E947A23FD
:10383000ABCF011106C00E9483238F2D0E94591B1C
:10384000A3CF013009F4A0CFF6CF112329F0063021
:1038500008F09ACF8F2DE2CF053008F095CFEDCF4D
:10386000002359F3D93349F4FFEF27EE33E0F15049
:1038700020403040E1F700C000008D2F0E94171B50
:1038800083CF8C2F86958695837069F0813009F0FF
:103890007BCF8D2F9C2F9370111102C090E080E0A0
:1038A0000E94B21971CF8D2F9C2F9370111102C0FD
:1038B00090E080E00E949C1967CF8C2F837009F004
:1038C00041C0111161CF4D2F429546954770440F6D
:1038D000440F0D2F0F7010E030E020E0042E04C0E4
:1038E000000F111F221F331F0A94D2F760E070E00F
:1038F000CB01D4FF0FC06FE070E080E090E004C027
:10390000660F771F881F991F4A95D2F760957095AB
:1039100080959095C695C695C370602B712B822BB0
:10392000932BC23049F058F4C13019F00E946E2137
:103930002BCF0E945C2128CF0E94802125CF0E949E
:103940005A2122CF8695112311F08C2F8170882364
:1039500009F41ACF4D2F429546954770440F440FF6
:103960000D2F0F7010E030E020E0042E04C0000F97
:10397000111F221F331F0A94D2F760E070E0CB01C1
:10398000D4FF0FC06FE070E080E090E004C0660FED
:10399000771F881F991F4A95D2F76095709580957B
:1039A0009095C695C695C370602B712B822B932B77
:1039B000C23049F058F4C13019F00E943322E4CEED
:1039C0000E942122E1CE0E944522DECE0E94962155
:1039D000DBCECF70112329F08C2F0E94BC218D2FBC
:1039E0001DCF8D2F0E94591B8C2F0E94DD21CCCE24
:1039F000D23F89F160F4D03FC9F0D13F29F11123C2
:103A000009F442C00111A8CE8C2F8F7121C0D33F81
:103A100039F1D43FA1F7112369F1CF718C2F0E94A6
:103A2000BC2163E08C2F0E94C323AECE112341F052
:103A3000053008F0A9CE8C2F8F710E940022A4CEF1
:103A4000063008F0A1CEF7CF8C2F8F71112369F2C9
:103A50000E94BC2199CE8C2F8F711123C9F3C5CF41
:103A6000112329F08C2F8F710E94A7218DCE0E94E7
:103A7000A2218ACE81E00E94D823023008F484CEAD
:103A800082E00E94D82380CE002359F0D93309F078
:103A9000F4CE8FEF97EEE3E081509040E040E1F705
:103AA000EACE8C2F8F71A1CF4C2F4F706D2FC60196
:103AB0000E94B5060E94D22067CE4C2F4F706D2F0A
:103AC000C6010E94B80660CEDF91CF911F910F9181
:103AD000FF90EF90DF90CF90BF9008950F931F93CA
:103AE000CF93DF93EC01688179818A810E94F8226B
:103AF0008C010E9457220E945921B801CE01DF910A
:103B0000CF911F910F910C94601BCF93DF93EC0129
:103B10008B819C81892B29F08881998189238F3F12
:103B200059F4DF91CF910895CE010E946E1DCE0110
:103B3000DF91CF910C941405CE010E945A06811199
:103B4000F3CF0E943A23882361F38A81882349F3C3
:103B500082E0DF91CF910C94D8230E9461230E94D0
:103B600071230E948D2390E080E00E949C1990E0D8
:103B700080E00C94B2190E942A230C94AD1D0E947F
:103B800051230C94BB1DE92FE295EF70E250EE300B
:103B900070F4F0E0E257F04D0C94402E803F19F0A5
:103BA00020F4883E20F481E00895843FE1F380E032
:103BB0000895883EC0F3813FD1F7F5CF93FB882766
:103BC00080F908950E94EE220C94C31DCF93DF93D9
:103BD00000D000D00F92CDB7DEB70F900F900F90AE
:103BE0000F900F90DF91CF910895CF93DF9300D086
:103BF00000D000D0CDB7DEB726960FB6F894DEBF62
:103C00000FBECDBFDF91CF9108951F93CF93DF9368
:103C1000C091A80216E08091A9028C1304C0DF9124
:103C2000CF911F910895D0E01C9FF0011D9FF00DD2
:103C30001124E655FD4F4081518162817381848159
:103C400095810E94F51D2196C770E5CF4091DA025B
:103C50005091DB026091DC027091DD028091DE0206
:103C60009091DF020C94F51D1F93CF93DF93809109
:103C7000DF02807FA9F48091DC02882389F08091A3
:103C8000A802C091A9026091DA027091DB02A091B2
:103C9000DD02B091DE02D62FD72316E0C81304C090
:103CA000DF91CF911F91089590E0109711F0DF3FC1
:103CB00019F401968770F2CF189F9001199F300D6B
:103CC0001124F901E655FD4F41814713F2CF4081A0
:103CD0004613EFCF42814111ECCF438154814A1BFF
:103CE0005B0B483C510528F78091DF028F708061A3
:103CF0008093DF02F901E155FD4F80818F70806173
:103D000080838AED92E00E94851DDF91CF911F9103
:103D10000C94051EAF92BF92CF92DF92EF92FF926A
:103D20000F931F93CF93DF93CDB7DEB761970FB695
:103D3000F894DEBF0FBECDBF8C0185E0F801DE0137
:103D40001D9601900D928A95E1F7F801408151810D
:103D5000E2808AEDC82E82E0D82E6091DD0270915B
:103D6000DE026115710509F461C19091DA022091BA
:103D7000DB02892F82238F3F09F458C1A380B480CE
:103D8000F090DC02F501E61BF70BFF2009F4FCC004
:103D90008091DF02382F307FE83CF10508F0B2C097
:103DA000311179C0FE2C251323C0941321C0E110DA
:103DB0001FC08F7080618093DF020E94261EC601A3
:103DC0000E94851D8091DF02F80185838F2D619609
:103DD0000FB6F894DEBF0FBECDBFDF91CF911F911C
:103DE0000F91FF90EF90DF90CF90BF90AF9008952C
:103DF000AB2829F0842F85238F3F09F033C180E061
:103E0000F82FF170DF2E80FF3CC08091A802209136
:103E1000A90236E0821315C04D875E878D859E8589
:103E20000E94EE22292F22952F702230F0F02430AC
:103E300018F59F70F1F0F8019581907FD1F4D12CA5
:103E40001EC090E0389FF001399FF00D1124E65517
:103E5000FD4F6181651306C06081641303C06281F8
:103E60006E110FC001968770D5CF9F7011F0882317
:103E700031F3805E883018F3C8010E94851DFD2C47
:103E8000A5CFEE2009F4A2CF8091DF02816080935C
:103E9000DF02F12C9BCF251306C0941304C0F80158
:103EA000EE2009F48DC04D875E878D859E850E942A
:103EB000E21D882319F1EE2009F18091DF028032A2
:103EC00070F02091DA023091DB0238872F83198657
:103ED000BB86AA868C87CE0107960E94851D86E048
:103EE000F801AAEDB2E001900D928A95E1F70E94E7
:103EF000341E0E94261EFF24F39468CFC8010E943E
:103F0000851DF9CF311113C07A2DB98AA88A6E2D7B
:103F100089890E94E61D8AED92E00E94851D86E057
:103F2000F60111928A95E9F70E94261EB2CF251359
:103F30000FC094130DC0E1100BC0F8018583C801B8
:103F40000E94851D86E0F60111928A95E9F73ECF21
:103F50004D875E878D859E850E94E21D882371F2C4
:103F6000EE2061F28091DF02803208F4B8CF209118
:103F7000DA023091DB023A8329831B82BD82AC8254
:103F80008E83CE010196A9CFE83CF10508F041C02F
:103F9000FE2CEE2009F4B2CF25132AC0941328C0BA
:103FA0008091DF0280FD1BC0982F907FC1F0F80147
:103FB0008583903F31F0982F907F905F8F70892B91
:103FC0008583C8010E94851D86E0F801AAEDB2E054
:103FD00001900D928A95E1F70E94261EF7CE86E0A9
:103FE000F801AAEDB2E001900D928A95E1F7EECECC
:103FF0004D875E878D859E850E94E21D81116FCF62
:104000008091DF0281608093DF02C8010E94851DDC
:10401000DDCE7A2DB98AA88A6E2D89890E94E61D87
:1040200086E0F60111928A95E9F7D6CFEE2009F4E1
:1040300065CF4D875E878D859E850E94E21DF82E97
:10404000882309F45BCF86E0F801AAEDB2E0019085
:104050000D928A95E1F78AED92E00E94CC1A0E94B7
:10406000341EBACF81E08E25CBCE88EC90E0089547
:104070001F93CF93DF93CDB7DEB72C970FB6F8948D
:10408000DEBF0FBECDBF4F83588769877A878B8786
:104090009C87CE0107960E948A1E882369F08A8534
:1040A0009B85892B39F04F815885842F85238F3F3D
:1040B00009F071C016E05FC086E0FE013796DE01B0
:1040C000119601900D928A95E1F78A859B85892B3F
:1040D00089F38F81988589238F3F61F32091A9020D
:1040E00030E0C9010196877099274091A8024817CE
:1040F000190671F40E94BF1D1092A9021092A80225
:1041000086E0EAEDF2E0DF011D928A95E9F7D2CF71
:1041100096E0929FD001939FB00D1124A655BD4FFC
:10412000FE01319601900D929A95E1F78093A902D4
:104130000E94051EBFCF819FC001112486559D4F4F
:104140000E948A1E8823E9F0E091A8021E9FF001D8
:104150001124E655FD4F4081518162817381848134
:1041600095810E94F51D8091A80290E001968770CC
:1041700099278093A8028091A8029091A90289139F
:10418000DACF2C960FB6F894DEBF0FBECDBFDF910D
:10419000CF911F91089569857A858B859C850E94B2
:1041A000F51D88CFEF92FF920F931F93CF93DF936C
:1041B0008C01892B81F0F12CEE24E394E801219607
:1041C000F8018491843770F4843008F05FC0813046
:1041D000B1F08230A1F1DF91CF911F910F91FF904B
:1041E000EF900895853709F44CC008F43DC09CE772
:1041F000980F903780F78F770E94171B49C00E5F8A
:104200001F4FFE01849190E2980F983060F4877000
:10421000FE2D01C0FF0F8A95EAF78F2F0E946423BD
:104220000E948D2302C00E94D11A8F2D815030F23E
:10423000EFE9FFE03197F1F700C00000F7CF0E5F24
:104240001F4FFE01849190E2980F983050F48770D0
:10425000FE2D01C0FF0F8A95EAF78F2F0E946A2377
:10426000DFCF0E94171BE1CF0E5F1F4FFE01C491ED
:10427000C150D8F28FE99FE00197F1F700C000002C
:10428000F7CF0E5F1F4FFE01F490CFCF0E94D11ADF
:104290008E01CBCF08950C944A210E944B2160934C
:1042A0002A0370932B0380932C0390932D030C947B
:1042B000AD1D08950C944D210F931F9300912A0377
:1042C00010912B0320912C0330912D03602B712B27
:1042D000822B932B1F910F910C944D210F931F93C1
:1042E00000912A0310912B0320912C0330912D0370
:1042F00060237123822393231F910F910C944D21EE
:104300000F931F9300912A0310912B0320912C03EC
:1043100030912D0360277127822793271F910F91DA
:104320000C944D210C944A210C9492210E949421CA
:1043300060932603709327038093280390932903A7
:104340000C94AD1D60E070E0CB010C9496210F93AE
:104350001F9341E050E060E070E08A019B0104C0DF
:10436000000F111F221F331F8A95D2F7C901B80110
:104370001F910F910C9496210F931F9341E050E0F1
:1043800060E070E004C0440F551F661F771F8A95D8
:10439000D2F78091260390912703A0912803B09132
:1043A00029038A019B01082B192B2A2B3B2BC901BE
:1043B000B8011F910F910C9496210F931F9341E028
:1043C00050E060E070E004C0440F551F661F771F87
:1043D0008A95D2F7CB01BA0160957095809590953A
:1043E000009126031091270320912803309129037F
:1043F00060237123822393231F910F910C949621A4
:104400000F931F9341E050E060E070E004C0440F60
:10441000551F661F771F8A95D2F7809126039091CA
:104420002703A0912803B09129038A019B01082743
:1044300019272A273B27C901B8011F910F910C9416
:1044400096210F931F93009126031091270320912B
:10445000280330912903602B712B822B932B1F9102
:104460000F910C9496210F931F93009126031091A6
:10447000270320912803309129036023712382238D
:1044800093231F910F910C9496210F931F930091EA
:1044900026031091270320912803309129036027D8
:1044A0007127822793271F910F910C9496210895CD
:1044B0002BE0929F800D1124982F977041E001C04E
:1044C000440F9A95EAF786958695869595E0899F9B
:1044D000F0011124E052FD4F90E080E070E0519136
:1044E000DF0111979B01082E02C0369527950A948B
:1044F000E2F7217021952527242325272C93019667
:104500008530910561F708952BE0929F800D11246D
:10451000982F977086958695869525E0829FF00165
:104520001124E052FD4F50E040E080E0219130E066
:10453000092E02C0369527950A94E2F72170332799
:10454000042E01C0220F0A94EAF7822B4F5F5F4FBF
:104550004530510559F70895BF92CF92DF92EF92FF
:10456000FF920F931F93CF93DF938C01C09026038C
:10457000D0902703E0902803F090290380912A032C
:1045800090912B03A0912C03B0912D03C82AD92A16
:10459000EA2AFB2ACFE1D0E0BC2ED701C6010C2EBF
:1045A00004C0B695A795979587950A94D2F780FD94
:1045B0000EC0219788F7B12C8B2DDF91CF911F91E1
:1045C0000F91FF90EF90DF90CF90BF900895B801CA
:1045D0008C2F0E94C106019761F3EECFCF93DF933A
:1045E000EC010E94AC22BE01DF91CF910C94C10678
:1045F0001F93CF93DF93EB019091A702992331F0A2
:10460000CB01DF91CF911F910C94EE22882379F09A
:10461000CB010E94AC22182F682FCE010E94582295
:10462000BE01812FDF91CF911F910C94C106CB0168
:104630000E948422182FF4CF682F80911801909146
:1046400019010C943725682F809118019091190158
:104650000C94422580911801909119010C944D25DC
:1046600080912E03859585958595089580912E03DB
:104670008770089590912E03977081E009F480E08F
:10468000089580915203089590915203892B80934D
:10469000520308958095909152039823909352036A
:1046A000089510925203089590915103892B80939D
:1046B000510308958095909151039823909351034D
:1046C000089510925103089590915003892B80937F
:1046D0005003089580959091500398239093500330
:1046E000089510925003089580912F03089508951E
:1046F0000C94772390912F03981721F080932F0328
:104700000C947823089580912F03882329F0109228
:104710002F0380E00C9478230895E0911801F09124
:104720001901809152038083E0911801F0911901E1
:10473000808190915103892B8083E0911801F09141
:104740001901808190915003892B808390912F03D0
:10475000992381F0E0911801F09119018081892B52
:10476000808380911801909119010E94A3248111E6
:104770000E94832380911801909119010C94821951
:1047800008950C94C02398E0899F90011124622B16
:1047900060932E030E94BC2180912E038595859500
:1047A00085950C94C12310922E0380E00C94C123B4
:1047B00090912E038095892380932E03282F2770B4
:1047C00071F4282F082E000C330B9217130639F0C2
:1047D0008595859585950E94DD210C94D3230895B8
:1047E0006FEF7FEF90E080E00C94192F90E080E075
:1047F0000E94F52E21E08C3E9E4F09F020E0822F92
:10480000089582E090E00C94E72E83E090E00C9411
:10481000E72ECF9384E090E00E94E72EC82F81E23C
:1048200090E00E94E72E982F8C2FCF910895CF9380
:10483000C92F682F84E090E00E94FB2E6C2F81E24C
:1048400090E0CF910C94FB2E86E090E00C94E72E44
:10485000682F86E090E00C94FB2EAB01BC018FE04A
:1048600090E00C940D2FAB01BC0183E190E00C941F
:104870000D2F60E070E0CB010C9433246CEE7EEFE2
:1048800090E080E00E94192F60E082E090E00E94BA
:10489000FB2E60E083E090E00E94FB2E10922A0342
:1048A00010922B0310922C0310922D0360E084E0F1
:1048B00090E00E94FB2E60E081E290E00E94FB2EDF
:1048C00060E085E090E00E94FB2E60E086E090E0F2
:1048D0000E94FB2E6FEF87E090E00E94FB2E40E0ED
:1048E00050E0BA0188E090E00E940D2F60E08DE07A
:1048F00090E00E94FB2E40E050E0BA0188E190E099
:104900000E940D2F60E087E190E00E94FB2E40E0C6
:1049100050E0BA018CE190E00E940D2F60E080E24F
:1049200090E00E94FB2E40E050E0BA0188E190E068
:104930000E940D2F0C94BE040C943E24682F8EE030
:1049400090E00C94FB2EFC01329680912401882388
:1049500021F0809109049EE187FF96E080E091506C
:1049600008F4089521912223D1F38F5FF8CF6623B5
:1049700001F1209124012223F1F02091090427FF65
:104980001AC0462F4695469546954E3190F467706D
:1049900021E030E002C0220F331F6A95E2F7840F56
:1049A000911DFC01828190E02823392381E0232B93
:1049B00069F480E00895FC0132960896219126174B
:1049C00021F0E817F907D1F7F4CF81E008959C01B1
:1049D000FC0132969FEF80E04191461751F09F3FD6
:1049E00019F4411101C0982F8F5F8630A9F79F3FBE
:1049F00009F40895290F311D97FD3A95F901628355
:104A00000895FC01329608962191261303C0DF0118
:104A100011971C92E817F907B9F70895E62FE69564
:104A2000E695E695EE3168F4E80FF92FF11D677011
:104A300021E030E001C0220F6A95EAF78281822BE3
:104A400082830895E62FE695E695E695EE3170F4BB
:104A5000E80FF92FF11D677021E030E001C0220F4F
:104A60006A95EAF720958281282322830895209170
:104A70002401222329F02091090427FD0C940E25FE
:104A80000C94E72420912401222329F02091090489
:104A900027FD0C9422250C940125FC01329680916F
:104AA0002401882351F08091090487FF06C08EE11C
:104AB000DF011D928A95E9F7089586E0F9CF089500
:104AC00008950C9460250E94612580910F04843024
:104AD00061F11092540388E190E020E40FB6F8945D
:104AE000A895809360000FBE2093600080E00E9434
:104AF000CC1280E00E94AD060E94612583B7817FC1
:104B0000846083BF83B7816083BF7894889583B7BF
:104B10008E7F83BF0FB6F894A8958091600088615E
:104B200080936000109260000FBE08950895CF93A7
:104B30000E945F250E94F9080E949625C0E08C2FF4
:104B40000E94AD08892B31F4CF5FCA30C1F780E0F5
:104B5000CF91089581E0FCCF08950C94AC250E947C
:104B6000BF1D0E949A110E9476190E94AD060C94F6
:104B7000AD251F921FB61F9211248F939F93AF9361
:104B8000BF9380915403811113C0809105049091CB
:104B90000604A0910704B09108044196A11DB11D1F
:104BA0008093050490930604A0930704B09308042F
:104BB000BF91AF919F918F911F901FBE1F9018952D
:104BC00082E084BD93E095BD9AEF97BD80936E001F
:104BD00008952FB7F8948091050490910604A09150
:104BE0000704B09108042FBF08952FB7F89460917F
:104BF00005047091060480910704909108042FBF6A
:104C000008959C014FB7F894809105049091060493
:104C1000A0910704B09108044FBF821B930B089525
:104C200078941F921FB61F9211248F939F93AF9376
:104C3000BF938091050490910604A0910704B09160
:104C400008040196A11DB11D8093050490930604EC
:104C5000A0930704B0930804BF91AF919F918F91E7
:104C60001F901FBE1F90189581E08093E00080E2A6
:104C70008093D8001092C9008FE19EE40197F1F76C
:104C800000C0000087E090EBDC0180931804909353
:104C90001904A0931A04B0931B0488E19CE00FB69A
:104CA000F894A895809360000FBE90936000FFCFAA
:104CB0000C94ED130E94F9088FE39CE90197F1F73A
:104CC00000C000000E94F90880E00E94AD0880FF4B
:104CD00004C00E9458260C94342608950E94F6239E
:104CE000811102C00E949C240E94012480935303DE
:104CF0000E94092490930A04809309040E940524C9
:104D0000682F70E090E080E00E945A2160912603B5
:104D10007091270380912803909129030C9494218A
:104D20008091750308950895CF93DF9300D00F927B
:104D3000CDB7DEB790910F04943011F589837B8352
:104D40006A839093E9008FEF9091E800815095FD80
:104D500006C095ED9A95F1F700008111F5CF80918D
:104D6000E80085FF0DC050E040E063E070E0CE0158
:104D700001960E94FA288091E8008E778093E800DF
:104D80000F900F900F90DF91CF910895BC0184E0B8
:104D90000C949426BC0183E00C949426CF93DF936B
:104DA000EC01809124018823B1F18091090487FFEF
:104DB00032C060E284E08093E9008FEF9091E800D8
:104DC000815095FD06C095ED9A95F1F7000081118F
:104DD000F5CF8091E80085FF1BC08091240170E031
:104DE00050E040E0811104C050E040E068E070E035
:104DF000CE010E94FA288091E8008E778093E80027
:104E000080E2FE01A5E5B3E001900D928A95E1F7FD
:104E1000DF91CF91089568E081E0CDCFCF93FC0181
:104E2000603221F580910F04843001F5C091E900D2
:104E3000CF702091EC00922F917020FD90E8C92B4B
:104E400082E08093E9008091E80080FF0CC050E090
:104E500040E060E270E0CF010E94FA288091E80013
:104E60008E778093E800CF70C093E900CF910895CA
:104E700080910E04811109C00E94D92A0E94362B0C
:104E80008091E20084608093E200089510920E0405
:104E90000895089508950C94AF2542E061EC81E0F7
:104EA0000E94552A42E261EC84E00E94552A42E2C7
:104EB00061EC82E00E94552A42E260EC83E00C94AF
:104EC000552A80911104833009F461C030F4813097
:104ED000D1F1823009F49DC008958A3009F489C067
:104EE0008B3009F46FC0893009F050C080911004F4
:104EF000813209F04BC08091140490911504009701
:104F000019F0029709F042C08091E800877F8093F2
:104F1000E8008091E80082FF35C09091F300809115
:104F2000F200029729F48091F1008B7F813021F407
:104F30008091F100809375038091E8008B778093D6
:104F4000E8000C94892A80911004813AF9F4809148
:104F5000E800877F8093E800809114049091150405
:104F6000892B61F460E285E593E070E00E94982966
:104F70008091E8008B778093E800089560E090E0EE
:104F800080E0F3CF80910F048111C3CF0895809109
:104F90001004813AD9F78091140490911504892B5B
:104FA000A9F78091E800877F8093E8008091E8006E
:104FB00080FFFCCF809124018093F1008091E80074
:104FC0008E77BDCF80911004813201F78091140457
:104FD00090911504892BD1F68091E800877F80930A
:104FE000E8000E94892A80911204809324010C9485
:104FF000BF1D80911004813249F68091E800877FBF
:105000008093E8000E94892A80911304809376039C
:10501000089580911004813A09F0B8CF8091E8009A
:10502000877F8093E8008091E80080FFFCCF80912B
:105030007603C2CFCDB7DEB7A0970FB6F894DEBF28
:105040000FBECDBF84B7877F84BF0FB6F894A895F5
:1050500080916000886180936000109260000FBEB4
:1050600080E890E00FB6F89480936100909361001F
:105070000FBE0E94D5190E94D92A0E94362B80911A
:10508000E20084608093E20078940E94BF2D0E9429
:10509000E1198AE191E00E94711913E080910F04F7
:1050A000853059F00E94EF1980910F04843091F0FF
:1050B0000E94DF190E94E019F1CF0E9463258091C0
:1050C0000D04882359F30E949725882339F30E9401
:1050D000E428E4CF1093E9008091E80082FFE8CF54
:1050E0008091E80090E085FF09C050E040E060E278
:1050F00070E0CE0101960E94492991E08091E8007C
:105100008B778093E800992399F260E2CE010196B3
:105110000E94DA14CDCF0C948D28292F3327233009
:10512000310521F168F42130310509F443C0223002
:10513000310509F444C090E080E030E020E026C072
:105140002132310551F122323105A9F76330710561
:1051500090F7FB01EE0FFF1FE653FE4F20813181D8
:1051600069537E4FFB01808190E010C09927813008
:10517000910581F0009729F00297E9F6E6E5F7E05E
:1051800002C0ECE7F7E0849190E09F01FA013183DF
:1051900020830895EAE6F7E0F6CF6330710558F60C
:1051A000660F771FFB01E053FE4F2081318189E0BC
:1051B00090E0ECCF82E190E02BED37E0E7CF8BE59C
:1051C00090E020E837E0E2CF80E189BD82E189BD4F
:1051D00009B400FEFDCF8091D8008F7D8093D80068
:1051E0008091E00082608093E0008091E00081FD8A
:1051F000FCCF0895AF92BF92CF92DF92FF920F93B0
:105200001F93CF93DF936C01EB018A010E94A82AC0
:10521000F82E811123C00115110539F0F8018081A4
:105220009181C81BD90BC80ED91EB12CA12C209777
:10523000A9F08091E80085FD22C08091E8008E777A
:105240008093E80001151105A1F0F801808191819A
:10525000A80EB91EB182A08285E0F82E8F2DDF91B5
:10526000CF911F910F91FF90DF90CF90BF90AF90A3
:1052700008950E94A82A8823D1F2F82EEFCFF601D4
:1052800081916F018093F1002197FFEFAF1ABF0A60
:10529000CECFAF92BF92CF92DF92FF920F931F9328
:1052A000CF93DF936C01EB018A010E94A82AF82EAC
:1052B000811123C00115110539F0F8018081918118
:1052C000C81BD90BC80ED91EB12CA12C2097A9F050
:1052D0008091E80085FD22C08091E8008B77809363
:1052E000E80001151105A1F0F80180819181A80E57
:1052F000B91EB182A08285E0F82E8F2DDF91CF916B
:105300001F910F91FF90DF90CF90BF90AF900895C5
:105310000E94A82A8823D1F2F82EEFCF8091F100C5
:10532000F60181936F012197FFEFAF1ABF0ACECF2D
:10533000FC01809116049091170486179707A0F03E
:105340006115710529F49091E8009E779093E8002B
:1053500090E06115710551F4911108C08091E80049
:1053600082FF34C080E00895BC01F2CF80910F0429
:105370008823C1F18530C1F18091E80083FD30C000
:105380008091E80082FDEACF8091E80080FFE1CFC4
:105390008091F3002091F200382F6115710519F00A
:1053A0002830310558F091E02830310509F090E0BF
:1053B0002091E8002E772093E800CBCF8191809355
:1053C000F100615071092F5F3F4FE7CF80910F04CB
:1053D000882341F0853041F08091E80083FFBECF03
:1053E00081E0089582E0089583E00895FC018091B2
:1053F00016049091170486179707A0F061157105A0
:1054000029F48091E8008E778093E80090E06115A0
:10541000710551F4911108C08091E80082FF35C0F8
:1054200080E00895BC01F2CF80910F048823C9F178
:105430008530C9F18091E80083FD31C08091E8009A
:1054400082FDEACF8091E80080FFE1CF8091F300F8
:105450002091F200382F6115710519F028303105BF
:1054600058F091E02830310509F090E08091E80093
:105470008E778093E800CBCF84918093F1003196B2
:10548000615071092F5F3F4FE6CF80910F04882351
:1054900041F0853041F08091E80083FFBDCF81E08D
:1054A000089582E0089583E00895982F973028F0BA
:1054B0008F708093E90081E008959093E900242F94
:1054C000762F50E0981731F07091EC002091ED00AC
:1054D0005091F00021FD02C09F5FE8CF3091EB00BA
:1054E0003E7F3093EB003091ED003D7F3093ED0037
:1054F0003091EB0031603093EB007093EC0020931F
:10550000ED005093F0002091EE0027FDE5CF80E004
:1055100008958091100487FF13C08091E80082FFF6
:1055200006C08091E8008B778093E80004C08091EA
:105530000F048111F2CF089580910F048823D9F3CD
:105540008091E80080FFF8CF8091E8008E77ECCF63
:105550002091E4003091E50095E6A9012091EC004E
:10556000822F817020FF06C08091E80080FF06C076
:1055700080E008952091E80022FD1AC080910F0478
:10558000882389F0853089F08091EB0085FD0FC07C
:105590002091E4003091E50042175307F9F2915051
:1055A000E1F684E0089582E0089583E0089581E0C3
:1055B00008950E94472B0E944F2BE0EEF0E080817F
:1055C00081608083E8EDF0E080818F77808319BC73
:1055D000A7EDB0E08C918E7F8C9380818F7E80834D
:1055E00010920E0408950F931F93CF93DF930E94A0
:1055F000472B0E944F2BC8EDD0E088818F7788839E
:1056000088818068888388818F7D888319BC109207
:105610000F0410920B0410920D0410920C0400EE73
:1056200010E0F80180818B7F80838881816088838E
:1056300042E060E080E00E94552AE1EEF0E08081E7
:105640008E7F8083E2EEF0E08081816080838081C4
:1056500088608083F80180818E7F8083888180616B
:105660008883DF91CF911F910F910895E8EDF0E0CD
:1056700080818F7E8083E7EDF0E080818160808390
:1056800084E082BF81E080930E040C94F32AE8ED5D
:10569000F0E080818E7F80831092E2000895109266
:1056A000DA001092E10008951F920F920FB60F9248
:1056B00011242F933F934F935F936F937F938F9317
:1056C0009F93AF93BF93EF93FF938091E10082FF8D
:1056D0000BC08091E20082FF07C08091E1008B7FC8
:1056E0008093E1000E94BE2D8091DA0080FF19C0F6
:1056F0008091D80080FF15C08091DA008E7F809362
:10570000DA008091D90080FF96C080E189BD82E1F6
:1057100089BD09B400FEFDCF81E080930F040E9493
:1057200038278091E10080FF19C08091E20080FF5E
:1057300015C08091E2008E7F8093E2008091E200AC
:1057400080618093E2008091D80080628093D800CD
:1057500019BC85E080930F040E944A278091E100E4
:1057600084FF2BC08091E20084FF27C080E189BDC7
:1057700082E189BD89B5982F917080FFFBCF809120
:10578000D8008F7D8093D8008091E1008F7E809338
:10579000E1008091E2008F7E8093E2008091E20040
:1057A00081608093E20080910B04882309F449C052
:1057B00084E080930F040E944B278091E10083FFD7
:1057C00029C08091E20083FF25C08091E100877F9E
:1057D0008093E10082E080930F0410920B0480918B
:1057E000E1008E7F8093E1008091E2008E7F8093C4
:1057F000E2008091E20080618093E20042E060E09C
:1058000080E00E94552A8091F00088608093F0002B
:105810000E944927FF91EF91BF91AF919F918F9186
:105820007F916F915F914F913F912F910F900FBE9C
:105830000F901F90189519BC10920F040E944627D4
:1058400070CF8091E30087FD93E090930F04B3CF76
:105850001F920F920FB60F9211242F933F934F93E5
:105860005F936F937F938F939F93AF93BF93CF93E8
:10587000DF93EF93FF93D091E900DF708091EC000C
:10588000C82FC17080FDC0E81092E9008091F0003F
:10589000877F8093F00078940E946C2C1092E9002E
:1058A0008091F00088608093F000CD2BCF70C09382
:1058B000E900FF91EF91DF91CF91BF91AF919F915F
:1058C0008F917F916F915F914F913F912F910F90A9
:1058D0000FBE0F901F9018951F93CF93DF93CDB7F6
:1058E000DEB7AA970FB6F894DEBF0FBECDBF80E13A
:1058F00094E02091F100FC012193CF01F4E0883184
:105900009F07B9F70E9461278091E80083FF1EC1BD
:1059100080911004909111049A3008F017C1E92F7A
:10592000F0E0E456F04D0C94402E803899F0823827
:1059300009F00CC1809114048F70873008F006C103
:105940008093E9008091EB0085FB882780F9109215
:10595000E90006C080910C0490910D0491118260C1
:105960009091E800977F9093E8008093F100109267
:10597000F1008091E8008E77E5C0882309F4D3C058
:10598000823009F0E3C0809112048111D6C0809169
:1059900014048F702FEF280F263008F0D7C08093A3
:1059A000E9002091EB0020FFC8C0933031F48091D2
:1059B000EB0080628093EB00C0C09091EB0090619F
:1059C0009093EB0021E030E001C0220F8A95EAF7C6
:1059D0002093EA001092EA008091EB008860EACF01
:1059E0008111B4C0109112041F778091E300807878
:1059F000812B8093E3008091E800877F8093E8000B
:105A00000E94892A8091E80080FFFCCF8091E3000A
:105A100080688093E30082E0111183E080930F049B
:105A200095C08058823008F091C080911204909106
:105A300013048C3D23E09207A1F583E08A838AE278
:105A400089834FB7F894DE01139620E03EE051E2DF
:105A5000E32FF0E050935700E49120FF03C0E2955C
:105A6000EF703F5FEF708E2F90E0EA30C0F0C79686
:105A70008D939D932F5F243159F74FBF8091E8009C
:105A8000877F8093E8006AE270E0CE0101960E9471
:105A900098298091E8008B778093E80057C0C096E2
:105AA000E7CF6091140470911504AE014F5F5F4F12
:105AB0000E948B28BC01892B09F448C09091E80012
:105AC000977F9093E80089819A810E94F629E1CF1F
:105AD0008038E1F58091E800877F8093E80080912D
