:100000000C942E020C9475020C9475020C947502DB
:100010000C9475020C9475020C9475020C94750284
:100020000C9475020C9475020C943A220C940B23D8
:100030000C94261D0C9475020C9475020C94750298
:100040000C9475020C9475020C9475020C94750254
:100050000C94460B0C947D1D0C9475020C94750247
:100060000C9475020C9479020C94AB020C947502FA
:100070000C9475020C9475020C9475020C94750224
:100080000C9475020C9475020C9475020C94750214
:100090000C9475020C9475020C9475020C94750204
:1000A0000C9475020C9475020C94750229001E00C4
:1000B0001F0020002100220023002400250026002C
:1000C00027002D002E002A004C002B0014001A00DF
:1000D0000800150017001C0018000C001200130087
:1000E0002F003000310049003900040016000700DD
:1000F00009000A000B000D000E000F003300340051
:10010000280000004B00E10000001D001B0006005D
:100110001900050011001000360037003800E50016
:1001200052004E00E000E300E2000000000000008A
:1001300000002C0000000000E600E4005000510028
:100140004F00010001000100010001000100010059
:100150000100010001000100010001000100010097
:100160000100010001000100010001000100010087
:100170000100010001000100010001000100010077
:100180000100010001000100010001000100010067
:100190000100010001000100000001000100000059
:1001A0000100010001000100010001000100010047
:1001B0000100010001000100010001000100010037
:1001C000000000000000000001000000000001002D
:1001D000010001000100010000000000000000001B
:1001E0002A2B280000000000000000000000000092
:1001F00000000029000000002C1E3420212224349D
:100200002627252E362D3738271E1F20212223246E
:1002100025263333362E37381F0405060708090A0A
:100220000B0C0D0E0F101112131415161718191AA6
:100230001B1C1D2F3130232D350405060708090A24
:100240000B0C0D0E0F101112131415161718191A86
:100250001B1C1D2F3130354C000000000000000039
:100260000000000000000000000000007E0F00D42D
:10027000FFFFFFC700000078000000000000000042
:1002800000000001010203040506080A0C0F111406
:10029000181C2024292E33393F464C535B626A7167
:1002A00079818A929AA2AAB2B9C1C8CFD5DCE1E716
:1002B000EBF0F4F7FAFCFDFEFFFEFDFCFAF7F4F0BC
:1002C000EBE7E1DCD5CFC8C1B9B2AAA29A928A8184
:1002D00079716A625B534C463F39332E2924201CC6
:1002E0001814110F0C0A080605040302010100008E
:1002F00000000000000000001003560049005300F9
:100300005400410036003500000010034C004E0040
:10031000450020004C006100620000000403090455
:1003200009025B00030100A0FA09040000010301B7
:100330000100092111010001224000070581030885
:10034000000A090401000203000000092111010054
:100350000122220007058203200001070503032074
:10036000000109040200010300000009211101003D
:1003700001226D000705840320000A12011001000C
:100380000000084E4C11100121010200010660FF1F
:100390000961A1010962150026FF009520750881F9
:1003A000020963150026FF00952075089102C0051B
:1003B000010980A101850319012AB700150126B79B
:1003C00000950175108100C0050C0901A10185048B
:1003D00019012AA002150126A002950175108100BD
:1003E000C005010906A1018505050719E029E715E2
:1003F0000025019508750181020507190029EF15EF
:1004000000250195F075018102050819012905955E
:100410000575019102950175039101C00501090659
:10042000A101050719E029E71500250195087501C7
:1004300081029501750881010507190029FF150042
:1004400026FF009506750881000508190129059504
:100450000575019102950175039101C011241FBE1C
:10046000CFEFDAE0DEBFCDBF04B603FE27C0809138
:10047000C1059091C205A091C305B091C405873014
:10048000904BA740B04BD1F41092C1051092C20519
:100490001092C3051092C40514BE84B7877F84BF31
:1004A0000FB6F894A89580916000886180936000F1
:1004B000109260000FBEE0E0F8E3099512E0A0E0C2
:1004C000B1E0ECEBF0E502C005900D92AC37B1075E
:1004D000D9F725E0ACE7B2E001C01D92A13CB2071C
:1004E000E1F70E9427040C941A280C9400007894D9
:1004F00008951F921FB61F9211242F933F934F937D
:100500005F938F939F93EF93FF932091C800409147
:10051000CE0030917E0281E0830F90E050917D0209
:1005200058171906B1F028713F5F30937E028F573C
:100530009D4FFC01408320937C02FF91EF919F919E
:100540008F915F914F913F912F911F901FBE1F90F0
:10055000189522E0F0CF8F938FB78F939F93EF93EF
:10056000FF939091800280917F029817A1F0809173
:100570007F02E1E0E80FF0E08F5F80937F02EF57AA
:10058000FC4F80818093CE00FF91EF919F918F91DE
:100590008FBF8F9118958091C9008F7D8093C9007E
:1005A000F3CFCF93DF93EC01F89410928002109276
:1005B0007F0210927E0210927D020E947702D7FF86
:1005C00004C082E08093C800DF77D093CD00C09351
:1005D000CC0088E98093C90086E08093CA00DF914F
:1005E000CF9108959091800221E0290F30E0409151
:1005F0007F0242171306D9F32F573C4FF90180832E
:100600009F5F909380028091C90080628093C900AF
:100610000895CF93DF93EC018991811103C0DF919D
:10062000CF9108950E94F202F7CF8091810408953E
:1006300008959F938F9388E191E09F938F9389E52D
:1006400095E09F938F930E940F250F900F900F902E
:100650000F900F900F9089E595E00C9409030F938C
:100660001F93CF93DF93EC018C81282F082E000C71
:10067000330B3F938F938B81282F082E000C330B65
:100680003F938F938A81282F082E000C330B3F93C2
:100690008F938981282F082E000C330B3F938F9363
:1006A00081E391E09F938F9309E515E01F930F93EA
:1006B0000E940F25C8010E94090388811F928F9311
:1006C00082E591E09F938F931F930F930E940F25D4
:1006D0008DB79EB742960FB6F8949EBF0FBE8DBFE2
:1006E000C801DF91CF911F910F910C940903FC0178
:1006F00087811F928F9386811F928F9385811F928E
:100700008F9384811F928F9383811F928F93828115
:100710001F928F9380811F928F938CE691E09F931D
:100720008F9389E595E09F938F930E940F258DB756
:100730009EB742960FB6F8949EBF0FBE8DBF89E557
:1007400095E00C9409038FEB91E00E9409038FE080
:1007500097E20197F1F700C0000087EA91E00E945C
:1007600009038FE097E20197F1F700C0000087ECE2
:1007700091E00E9409038FE097E20197F1F700C032
:1007800000008CED91E00E9409038FE097E2019751
:10079000F1F700C0000081EF91E00E9409038FE0B3
:1007A00097E20197F1F700C00000089583E390E01D
:1007B0000E94D1022FEF80E792E0215080409040CC
:1007C000E1F700C000000C94A30380938104089516
:1007D0000895E4E6F0E08081816080838081846018
:1007E00080838081806880830895E4E6F0E08081E2
:1007F0008E7F808380818B7F808380818F778083D1
:1008000008958091B805843079F40E9428118D50A4
:100810009140E1F00E9472158DE091E00E94231159
:100820000E942A0A0C94F5030E94281180509140DE
:1008300069F00E94721580E091E00E9423110E94ED
:10084000420A80E00E94E5030C94E9030895CDB7C5
:10085000DEB7A0970FB6F894DEBF0FBECDBF84B74A
:10086000877F84BF0FB6F894A89580916000886157
:1008700080936000109260000FBE80E890E00FB699
:10088000F89480936100909361000FBE0E948C11D8
:100890000E94BF210E941C228091E200846080930C
:1008A000E20078948FEF9091B8058150943041F038
:1008B000EFE3FFE13197F1F700C000008111F3CFC2
:1008C0000E94D6030E94E8030E94981113E00E9440
:1008D000A4118091B805843019F00E940104F7CF6B
:1008E0001093E9008091E80082FFF7CF8091E80043
:1008F00090E085FF09C050E040E060E270E0CE018A
:1009000001960E942F2091E08091E8008B778093E0
:10091000E800992311F360E2CE0101960E94930C46
:10092000DCCF219A299A0895CF93C82F0E94770689
:10093000882319F0C1FD03C0299ACF910895299801
:10094000FCCF81E0089581E008950C94A3040895FC
:100950000C94A7041F93CF93DF9300D000D00F9285
:10096000CDB7DEB749835A836B8330919D0489816B
:100970009A8131111DC06623B9F02223A9F00E948B
:100980005F1A182F682F89819A810E940B1A69813A
:100990007A81812F0F900F900F900F900F90DF9121
:1009A000CF911F910C942E0E0E94371A182FEFCF63
:1009B0000E945F1A69817A81EDCFFC01262F408168
:1009C00051816281738184810C94AA04CF93DF9357
:1009D000EC0160E00E94DD04BE01DF91CF910C9438
:1009E000A804FF920F931F93CF93DF93E82FF0E0BB
:1009F000E852FE4FF490C82FC695C695C695D0E034
:100A0000FE01E859FD4F0491877010E0082E02C0E6
:100A1000159507950A94E2F701701127C85ADD4F22
:100A2000FE01C491D0E002C0D595C7958A95E2F742
:100A3000C170DD270115110519F081EE0E948412A5
:100A4000209719F086EE0E9484128F2D0E94F212D8
:100A5000CD2B19F086EE0E94CA12012B41F081EED7
:100A6000DF91CF911F910F91FF900C94CA12DF91EB
:100A7000CF911F910F91FF900895EF92FF920F93E6
:100A80001F93CF93DF93EC01162F0AE08881882310
:100A900009F454C0813009F04EC08981813099F445
:100AA0007E0122E0E20EF11C8A810E94F212E7012F
:100AB0002196812F815050F3EFECF7E03197F1F759
:100AC00000C00000F7CF823041F47E0182E0E80EE2
:100AD000F11C8A810E948412EACF833041F47E01A6
:100AE000E2E0EE0EF11C8A810E94CA12E0CF84304F
:100AF00011F02196DDCF2A81229690E080E0AE01B0
:100B00004F5F5F4F2053330B2A30310548F0019778
:100B100078F2EFECF7E03197F1F700C00000F7CF83
:100B2000089FB001099F700D1124C901860F971FFE
:100B30002981EA01E4CF0E94F104BACFDF91CF917D
:100B40001F910F91FF90EF90089560E00C943D0588
:100B50008F929F92AF92BF92CF92DF92EF92FF92CD
:100B60000F931F936B017C0181E090E0A0E0B0E067
:100B70004C015D0104C0880C991CAA1CBB1C4A9541
:100B8000D2F7B501A4014C015D0104C0880C991C89
:100B9000AA1CBB1C2A95D2F7482959296A297B2906
:100BA00004C0880F991FAA1FBB1F0A95D2F78A019C
:100BB0009B010C211D212E213F210417150726071B
:100BC000370789F48C299D29AE29BF29BC01CD01A5
:100BD0001F910F91FF90EF90DF90CF90BF90AF905B
:100BE0009F908F90089580959095A095B0958C21B9
:100BF0009D21AE21BF21EACF0F93382F262F609180
:100C000008057091090580910A0590910B05042F44
:100C1000432F0E94A8050F910C9449190E94C71DEB
:100C20000E94A91B811102C00E94561C0E94B50B94
:100C30000C9474080C94770808950E9472150E9411
:100C40001C062FE78AE196E0215080409040E1F7B2
:100C500000C000000C94A11D0F931F93CF93DF934E
:100C6000EC0161E00E94DD048C01BE010E94220CB7
:100C7000882389F1BE01C8010E94A504882359F187
:100C8000BE01C8010E949E0A882329F1BE01C80145
:100C90000E94840F8823F9F0BE01C8010E94D60F7C
:100CA0008823C9F0BE01C8010E94F910882399F079
:100CB0008A81882339F001158CE5180751F00F3D22
:100CC0001C4579F0CE01DF91CF911F910F910C94CB
:100CD000A1040E941D0680E0DF91CF911F910F912A
:100CE00008950E94561CF7CF08950C94740681E075
:100CF0000895CF93C82F0E9475068C2FCF910C9426
:100D0000940490E080E008950895FC01EE0FFF1F29
:100D1000E858FD4F859194910895CF93DF930E94F9
:100D20002E0E0E949907EC01811520E5920708F02C
:100D300041C0811530E4930708F0B4C0803E9105AE
:100D400018F5803C910508F09DC0883A910570F433
:100D5000853A910508F08EC081309105F9F0009731
:100D6000E9F00497D8F4D0E0C0E018C08F3B9105BB
:100D7000D0F7C85AD0E0CC0FDD1FC950DE4F099024
:100D8000D881C02DD4640AC08115904258F4C11591
:100D900081E0D80718F4C83ED10528F7CE01DF91CD
:100DA000CF910895C11590E3D90708F071C0CE0125
:100DB0009F706AC0811525E5920758F5811534E5C5
:100DC000930708F09EC0811542E5940750F4C115C1
:100DD00081E5D80708F469C0DC2FCC27C16FD06A41
:100DE000DDCF982F969596959E0123703327C115D8
:100DF000D34508F077C0C1E0D0E002C0CC0FDD1FC2
:100E00002A95E2F720E2929FC0011124C82BD92B2A
:100E100067C0C11589E5D807A8F4C11598E5D907B9
:100E200008F074C0C11526E5D20708F09CCF8C2FBE
:100E30000E943008C82FD0E0DC2FCC27CC27DF71F0
:100E4000D062ACCFC1153AE5D30708F464C0CE0137
:100E500090568115904208F086CF8D2F8F710E9499
:100E6000300890E0982F882788279F719C012C2BB1
:100E7000E901E6CFC55AD0E0CB5DDD4FC881D0E0B7
:100E8000D0648CCF805C91090E948506EC0186CFEE
:100E9000CE019927D3FF03C0EC01D86C7FCFEC01C2
:100EA000D06C7CCFDF70D06A79CFCE01E4E096952C
:100EB0008795EA95E1F783702C2F26952695237068
:100EC00090E2299F90011124382B8C2F8370C1E070
:100ED000D0E002C0CC0FDD1F8A95E2F7C22BD32BE6
:100EE000DC685CCFC1E0D0E002C0CC0FDD1F2A95EA
:100EF000E2F730E2939FC0011124C82BD92BDA68A6
:100F00004DCFD82FCC27C46FD06A48CFDC2FCC2749
:100F1000C06FD06A43CF8C2F8F700E94300834E0AE
:100F2000D695C7953A95E1F7CF709C2FEC01D06923
:100F300035CF82389105B1F1B0F48133910509F4D0
:100F400075C048F48932910509F469C08A32910567
:100F500009F473C008958533910509F459C08933A4
:100F6000910501F10895833E9105A9F138F4803E81
:100F70009105F9F0823E910549F10895863E91056B
:100F8000A9F1873E9105C9F1843E910519F520919B
:100F9000B30521FF1FC08091B20584FD14C087EE08
:100FA00090E008952091B2052370A1F080EE90E0CA
:100FB00008952091B20520FD47C03091B30530FF60
:100FC00009C024FF44C090E080E004C02091B20535
:100FD00022FDF7CF08952091B20522FD3BC030914C
:100FE000B30530FDE3CF24FFF5CFEDCF2091B2055F
:100FF00023FFF0CF24FDE7CFD2CF2091B20523FD10
:101000002CC03091B30531FFEECF84EE90E008950F
:101010002091B20525FFDECF89E290E0089520916E
:10102000B20525FFD7CF85E390E008952091B20562
:1010300026FFD0CF8AE290E008952091B20526FFE6
:10104000C9CF81E390E0089589E390E0089583EEAD
:1010500090E0089582EE90E0089586EE90E0089585
:101060009091B20592FF06C0282F28712830F9F41C
:10107000877F846093FF06C0282F28712831F1F400
:10108000877E84612091B30520FF06C0382F387118
:101090003830D9F4877F816021FF06C0282F28715E
:1010A0002831D1F4877E816194FD877E0895282FB1
:1010B00024712430F9F68B7F8860DCCF282F2471CF
:1010C000243101F78B7E8861DDCF382F31713130CB
:1010D00019F78E7F8860E0CF282F2171213121F709
:1010E0008E7E8861E1CF08950C94730808950C9466
:1010F0007608E82FF0E0EE0FFF1FED55FA4F8081E4
:1011000091810895089580E58A95F1F70895F894FE
:10111000E82FE295EF70F0E031A1282F2F7081E0E9
:1011200090E001C0880F2A95EAF7982F90959323B5
:1011300091A392A1892B82A3789408950F931F9372
:10114000CF93DF9386EC0E94870880E30E94870894
:1011500081EF0E94870885EF0E94870884EF0E9434
:101160008708C8E2D2E007E312E089910E9487086D
:101170000C171D07D1F710929A051092990510923D
:10118000A4051092A30510929C0510929B05109245
:10119000A6051092A50510929E0510929D0510922D
:1011A000A8051092A7051092A00510929F05109215
:1011B000AA051092A9051092A2051092A1051092FD
:1011C000AC051092AB0585E00E946A09DF91CF91D2
:1011D0001F910F910C940E06AF92BF92DF92EF9287
:1011E000FF920F931F93CF93DF93C7E3D2E009E9F8
:1011F00015E0D12CEE24E394F12C8991F894E82F9A
:10120000E295EF70F0E021A18F70A70102C0440FBA
:10121000551F8A95E2F7CA01922F982B91A392A1AC
:101220008095892382A378940E948308E8E2F2E003
:1012300030E020E0B12CA12C4191A42FA295AF70F9
:10124000B0E090968C9190E04F7002C09595879594
:101250004A95E2F780FD39C0C701022E02C0880F0F
:10126000991F0A94E2F7A82AB92A2F5F3F4F2F301F
:10127000310511F7FE01319780810E948708F8013E
:1012800080819181A816B90619F1B182A08281E00E
:10129000D82A0E5F1F4FF2E0CC33DF0709F0ADCF45
:1012A0002D2D45E063EA75E089E995E00E946B0920
:1012B0000E941A068D2DDF91CF911F910F91FF9003
:1012C000EF90DF90BF90AF90089590E080E0CBCF9B
:1012D00080E0DECF0895FF920F931F93CF93DF93AB
:1012E000F82E092F162FD72FC42F222349F081E083
:1012F000809384040E94561D9093830480938204FB
:10130000809184048823A1F08091820490918304C9
:101310000E946E1D069760F0EF2DF02FA12FBD2FBC
:1013200090E080E0D0E08C179D0744F01092840498
:10133000DF91CF911F910F91FF90089521913191ED
:101340002D933D930196EFCF8091AD050C94DB1B5F
:101350008091AD0586958695869508958091AD0519
:1013600081FD07C082608093AD050E94DB1B0C9459
:10137000310B08958091AD0581FF07C08D7F80936B
:10138000AD050E94DB1B0C943D0B08958091AD05CB
:1013900081FD0C94BA090C94AE098091AD05869537
:1013A0008170089580910A0108950E94A91B8111FE
:1013B00002C00E94561C0E94D71B8093AD0580334B
:1013C00020F0877088628093AD059091AD05892FDC
:1013D000817090FF04C0892F8695869586950C9420
:1013E000070B8091AD05982F96959695969595301B
:1013F00040F49F5F990F990F990F8770892B809305
:10140000AD058091AD0581608093AD050E94DB1B29
:101410008091AD058695869586950C94070B8091F5
:10142000AD05982F987F79F088508093AD05887F1F
:1014300091E009F490E08091AD0590FB80F98093F4
:10144000AD050E94DB1B8091AD058695869586953E
:101450000C94070B8091AD0580FD13C081608093D3
:10146000AD05813019F489E08093AD058091AD051B
:101470000E94DB1B8091AD058695869586950C9420
:10148000070B08958091AD0580FF08C08E7F809383
:10149000AD050E94DB1B80E00C94070B0895809142
:1014A000AD0580FD0C94420A0C942A0A9091AD057A
:1014B000892F8695869586958F5F8F719770863078
:1014C000D8F4880F880F880F892B8093AD05809101
:1014D000AD05887F91E009F490E08091AD0590FB27
:1014E00080F98093AD050E94DB1B8091AD05869548
:1014F000869586950C94070B9093AD05E8CF8630C2
:1015000008F085E09091AD059770282F220F220FEB
:10151000220F922B9093AD05987F21E009F420E0F3
:101520009091AD0520FB90F99093AD050C94070BBD
:101530000E947F0A8091AD050C94DB1BFC01DB014E
:1015400012968C918823F9F0EC5BFC45E730F105AD
:10155000D8F4E45EF74D0C94E82485E00E94980AE4
:1015600080E0089580E0FACF0E940F0AF9CF0E9430
:10157000F109F6CF0E944F0AF3CF0E94560AF0CF2E
:101580000E94C609EDCF81E00895279A2F9808950B
:101590002F980895CF92DF92EF92FF928C3724E13B
:1015A000920750F469E070E00E94B224CB01FF90F2
:1015B000EF90DF90CF900895B0E0A0E0BC01CD01A6
:1015C0006A50774D8F4F9F4F982F872F762F662722
:1015D00025EF38E241E050E00E94C62469017A011B
:1015E000CA01B9010E94A2249B01AC01C701B60146
:1015F0000E94A224672F782F892F992761157105E2
:1016000021E08207910591F66FEF7FEFCFCFCF9367
:10161000C82F8630F0F481111DC080918000877F33
:10162000809380000E94C80A2C2F30E0AFEFBFEFFC
:101630000E94F52425E030E040E050E00E94C624FE
:10164000C9010E94CA0A90938D0080938C00CF91AB
:101650000895C5E080918000886080938000E4CF89
:101660000895109286041092850410928704EFE684
:10167000F0E08081816080830895EFE6F0E0808172
:101680008E7F80830E94A8090C94070B1F920F92F3
:101690000FB60F9211242F933F934F935F936F9345
:1016A0007F938F939F93AF93BF93CF93EF93FF93CA
:1016B0000E94D20940918504509186044F5F5F4F8C
:1016C00094EF899F90011124CA01B9010E94B224AC
:1016D0009093860480938504B901660F672F661F77
:1016E000770B71950E94B2246F77809187048230C6
:1016F00041F4603451F480916F008E7F80936F00CD
:1017000004C0813011F46F37B1F3E62FF0E0E858F0
:10171000FD4FC4910E94A809282F41E051E0C49FC9
:10172000C001C59F900D112465E070E00E94B224B5
:10173000269FC001279F900D11240E94CA0A9093F2
:101740008D0080938C00FF91EF91CF91BF91AF916D
:101750009F918F917F916F915F914F913F912F91C9
:101760000F900FBE0F901F9018950E94C50A8AE037
:101770008093800089E1809381008FEF9FEF9093A9
:101780008700809386000E94D5090E94CD098111AF
:101790000C94310B089582E290E00E94A1278132DF
:1017A00089F483E290E00E94A127883059F484E212
:1017B00090E00E94A12791E0813009F090E0892F0C
:1017C0008170089580E0FCCFCF93C82F6FEF811117
:1017D00061E282E290E00E94AF276FEFC11168E002
:1017E00083E290E00E94AF276FEFC11161E084E2D5
:1017F00090E0CF910C94AF2780E00E94E40B0C9412
:10180000A31B089585E290E00E94A127682F70E055
:1018100090E080E0089585E290E00C94AF270E946C
:10182000010C0E94CB0B81110CC060E070E0CB0179
:101830000E940B0C0E94A40D0E94920E81E00C9459
:10184000E40B0895CF93FB01C281CC2309F19C01E5
:1018500022513F452031310520F582510E94A20ED0
:10186000C0E08C2FCF91089581E00E946F1943E072
:1018700062E081E00E94FC05F3CF81E00E949019B4
:1018800043E062E081E00E94FC05EBCF82E0F6CF0E
:101890008031FFE59F0789F381319F45B9F3C1E0AE
:1018A000E0CF8031EFE59E07F9F281319F45C9F61F
:1018B00082E0DBCF2FEFFC0120830895CF93DF93ED
:1018C000EC018881893029F08A3079F0DF91CF915D
:1018D00008950E94A8092FEF829FC001112465E09E
:1018E00070E00E94B2246983F1CF0E94CD09898300
:1018F000EDCFFC018081893019F08A3069F00895BC
:10190000818125E0829FC00111246FEF70E00E9469
:10191000B224862F0C947F0A8181811102C00C941D
:10192000BA090C94AE09EF92FF920F931F93CF93D5
:10193000DF93EC01062FDC01ED91CD01E150E331A5
:1019400008F0BFC0F0E0ED5DF74D0C94E82419827B
:1019500089E08A83602FCE01DF91CF911F910F9193
:10196000FF90EF900C947B1E8981823069F0833068
:1019700071F08130D9F40E94621D0E94EE246A83C6
:101980007B838C839D83E6CF0E94020CF6CF7E0181
:1019900010E0812F0E947908F701928383831F5FF3
:1019A000F2E0EF0EF11C1530A1F7D4CF602FCE017D
:1019B0000E945A0CCFCF89818230C1F76A817B8126
:1019C0008C819D810E94EE240E940B0CC3CF4B8121
:1019D0006A8189810E94760D9827892798279D839F
:1019E0008C83B8CF2C813D813227232732274B812E
:1019F0006A8189810E948F0DADCF0E94A40DAACF6C
:101A00000E94790CA7CF0E945E0CA4CF0E94A4096B
:101A1000A1CF0E943B0E89839DCF0E943D0E982747
:101A2000892798279A83898395CF6B8170E0898174
:101A30009A81AE014C5F5F4F9827892798270E94B3
:101A4000400E88CF6B8170E089819A81AE014C5F36
:101A50005F4F9827892798270E94670E7BCF0E94A7
:101A6000920E78CF0E94640DD6CF6B8170E0898191
:101A70009A81AE014C5F5F4F9827892798270E9473
:101A8000DE0D68CF6B8170E089819A81AE014C5F79
:101A90005F4F9827892798270E94040E5BCF0E94EA
:101AA000FC0B58CFCE010E947B1E2FEF80E792E007
:101AB000215080409040E1F700C000000E94A11D2D
:101AC00049CF8FEF888346CF82E0089550E0440FDE
:101AD000551F9EE1699F400D511D112496E9899F74
:101AE000400D511D1124CA01869608950F931F932E
:101AF000CF93DF930E94660D8C010E94A127C82F0F
:101B0000D0E0DC2FCC27C80101960E94A1279E01BE
:101B1000282BC901DF91CF911F910F9108950F9349
:101B20001F93CF93DF93122F032F0E94660DEC01BA
:101B3000602F0E94AF27612FCE010196DF91CF91D8
:101B40001F910F910C94AF27AF92BF92DF92EF924B
:101B5000FF920F931F93CF93DF938CEAE82E80E0E0
:101B6000F82ED12C8701C0E013C0F50125913491E6
:101B70004D2F6C2F8D2D0E948F0D82E0A80EB11C71
:101B8000DF5FDF3091F7025E1F4FCF5FC53019F086
:101B90005801D0E0EACF86E9E80EF11C81E0D816C2
:101BA00019F0DD24D394DECFDF91CF911F910F91F7
:101BB000FF90EF90DF90BF90AF900895EF92FF926B
:101BC0000F931F93CF93DF93EC018A017C01E60E04
:101BD000F71ECE018696CE15DF0539F4DF91CF9141
:101BE0001F910F91FF90EF900895CC3221E0D20722
:101BF00040F40E94A127F80180830F5F1F4F2196B8
:101C0000E8CFF8011082F9CFCF92DF92EF92FF92E6
:101C10000F931F93CF93DF937C016A018C01060F12
:101C2000171FEC01CE018696C017D10749F4DF914A
:101C3000CF911F910F91FF90EF90DF90CF9008957B
:101C4000CC3221E0D20740F4FE01EE19FF09EC0D81
:101C5000FD1D60810E94AF272196E4CF462F823080
:101C600038F4753028F46F3018F4672F0C94760D23
:101C700090E080E0089580E108958EEA92E0089572
:101C8000EF92FF920F931F93CF93DF93EC018A01A2
:101C90007C01E60EF71ECE018E5A9E4FCE15DF0553
:101CA00039F4DF91CF911F910F91FF90EF9008953C
:101CB000CE3A22E0D20740F40E94A127F8018083A7
:101CC0000F5F1F4F2196E7CFF8011082F9CFCF9217
:101CD000DF92EF92FF920F931F93CF93DF937C01DC
:101CE0006A018C01060F171FEC01CE018E5A9E4F20
:101CF000C017D10749F4DF91CF911F910F91FF9049
:101D0000EF90DF90CF900895CE3A22E0D20740F4D2
:101D1000FE01EE19FF09EC0DFD1D60810E94AF2749
:101D20002196E3CFCF93DF93C2E5D1E060E0CE010F
:101D30000E94AF272196C11584E0D807B9F7DF913B
:101D4000CF910895DF92EF92FF920F931F93CF935D
:101D5000DF9300D000D0CDB7DEB7F82E8FE08F151F
:101D600040F08FEF93E00E94A12702E511E0882365
:101D7000C1F00F900F900F900F90DF91CF911F91B6
:101D80000F91FF90EF90DF900895011584E0180700
:101D900081F3C8010E94A127811101C0FA940F5F4D
:101DA0001F4FF110F2CF19821A821B821C82DD2490
:101DB000D39478018FEFE81AF80AC8010E94A1278E
:101DC00089831A828823A9F29FEF980F933078F4C1
:101DD0008A83D9820E5F1F4FC7010E94A1278B8380
:101DE000882339F2CE0101960E94A505E2CF870132
:101DF000F9CFAF92BF92CF92DF92EF92FF920F9303
:101E00001F93CF93DF937C015B01C42FD22FFC0182
:101E100082818823F9F040938A040E94561D909392
:101E200089048093880480E28C0F883008F061C0B8
:101E3000C77081E001C0880FCA95EAF7DF91CF91A2
:101E40001F910F91FF90EF90DF90CF90BF90AF90D8
:101E50000C94051310918A04141340C080918804D7
:101E6000909189040E946E1D6C01B701C5010E940A
:101E7000E817C816D90690F5C0E2CD0F1D17B9F0C6
:101E800080E2810F883040F4177081E001C0880F34
:101E90001A95EAF70E940C13C83048F481E09D2F90
:101EA000977001C0880F9A95EAF70E940513802F5A
:101EB0000E94F212C830E8F4D77081E001C0880FA8
:101EC000DA95EAF7DF91CF911F910F91FF90EF9094
:101ED000DF90CF90BF90AF900C940C1380E28C0FEA
:101EE000883038F4C77081E001C0880FCA95EAF7DE
:101EF000E9CFDF91CF911F910F91FF90EF90DF908D
:101F0000CF90BF90AF9008950F939C01CB01243FD9
:101F10004CE5340759F1A8F4293DFCE53F0701F1F0
:101F20002A3D4CE53407D1F1283D3C4591F406E2C9
:101F300021EE41EE68ED7CE50E94F90E80E00F9104
:101F40000895263FFCE53F07E9F0B0F0273F3C4508
:101F5000F9F0FC018281882339F110928A04EFCFD5
:101F600007E225EE45EE69ED7CE5E6CF06E221EEDF
:101F700040EE64EF7CE5E0CF07E225EE44EE65EF4E
:101F80007CE5DACF06E221EE42EE66EF7CE5D4CFC7
:101F900007E225EE46EE67EF7CE5CECF08E221E0D2
:101FA00045EE6AED7CE5C8CF81E0C9CFCF93DF93E2
:101FB000EC01FB018281882309F419C1C230FCE5E0
:101FC000DF07C0F1C6319CE5D90730F09E012B5FD9
:101FD0003C452930310570F50E94BC1B9093B30538
:101FE0008093B205C031ECE5DE0709F4CFC008F0FC
:101FF0005BC0C8308CE5D80709F4B6C088F5C4309A
:10200000ECE5DE0709F4A8C0C0F4C2308CE5D807BF
:1020100009F49CC08091B2058260C330DC4509F4AC
:1020200098C08091B2059091B3050E94CA1B0E948E
:10203000721580E0DF91CF9108958091B2058061A3
:10204000C630ECE5DE0709F484C08091B2058860F3
:10205000C730DC4508F47DC08091B205806279C04C
:10206000CC308CE5D80709F489C070F48091B205B2
:102070008C60CA30ECE5DE0709F46BC008F478C068
:102080008091B2058E7F65C0CE308CE5D80709F40B
:1020900079C08091B2058B7FCF30DC4508F459C000
:1020A0008091B2058F7E55C0CC3FECE5DE0709F488
:1020B00057C030F5C3318CE5D80709F46FC078F408
:1020C000C131ECE5DE0709F465C0C231DC4509F039
:1020D000A8CF0E9472158091B2058F773AC0C531A2
:1020E0008CE5D80709F462C008F476C08091B30586
:1020F0008160CB3FDC4509F094CF8093B30591CF4D
:10210000C115FDE5DF0709F44DC088F48091B305E2
:102110008D7FCE3F9CE5D90781F38091B3058E7FFB
:10212000CF3FDC4550F38091B3058360E6CFC230EA
:10213000FDE5DF0709F459C008F444C080E0C3306E
:10214000DD4509F06ECF0E94581C6BCF8091B2051F
:1021500081608093B20565CF8091B2058460F9CF2C
:102160008091B3058260C9CF8091B2058064F1CFC0
:102170000E9472158091B2058068EBCF8091B20504
:102180008D7FE7CF8091B205877FE3CF8091B20545
:102190008F7DDFCF8091B2058F7BDBCF8091B20541
:1021A000837FD7CF8091B3058C7FA7CF8091B20575
:1021B00082FB992790F921E0922790FB82F990FB0E
:1021C00083F9C7CF8091B305982F909591708E7F3A
:1021D000892B90FB81F991CF0E9472159091B205E5
:1021E000892F97FB87F98058B4CF81E0ACCF81E08D
:1021F00021CFCF93DF93EB0186319C4511F50E94EF
:10220000F41A9A81992399F08A7A91E009F490E07E
:1022100090938B04811109C089E20E94CF1A0E9419
:10222000401B80E0DF91CF91089585E3F6CF809148
:102230008B04811104C089E20E94D61AF0CF85E395
:10224000FBCF81E0EFCF90939104809390040895A9
:1022500080919004909191040895E0919004F09100
:102260009104309721F00190F081E02D099480E0F5
:102270000895E0919004F0919104309799F02091A5
:102280001701222359F02091B20527FF07C0DC0176
:102290002C9111962C93119725E02C930280F381B9
:1022A000E02D0994089520918E0430918F04281711
:1022B000390771F090938F0480938E04E09190041D
:1022C000F0919104309721F00680F781E02D099478
:1022D000089520918C0430918D042817390771F0EE
:1022E00090938D0480938C04E0919004F09191047C
:1022F000309721F00084F185E02D0994089585B789
:10230000806885BF85B7806885BF089508950C945F
:10231000910408950C9489110E947F110E948611E6
:102320000C94871181E008950C94921108950895FA
:102330000E944D1D0E949E080E940F0C0E94DB1DF2
:102340000E94D5090C948A119F92AF92BF92CF92AE
:10235000DF92EF92FF920F931F93CF93DF93CDB74E
:10236000DEB72A970FB6F894DEBF0FBECDBF0E942E
:1023700096110E9497110E94EC080E9494118823E4
:1023800009F470C053E9A52E54E0B52E10E000E02A
:10239000902E802F0E9479086C01F501E190F19058
:1023A0005F01E816F90609F457C08091350581FDF3
:1023B0000E94820897012C253D2580E0EE24E394BD
:1023C000F12CA9014E215F21452B09F43FC08E83DA
:1023D0009F82CE20DF2081E0CD2809F480E088872D
:1023E0000E94561D8160782F9A8789874E815F8170
:1023F00068858A850E945512000F111FF801ED565D
:10240000FB4F80819181E826F926F182E0820E94CB
:10241000300B0E942D11909192048917A1F10E9416
:102420002D11809392042A960FB6F894DEBF0FBE4A
:10243000CDBFDF91CF911F910F91FF90EF90DF9073
:10244000CF90BF90AF909F900C9479068F5FEE0C69
:10245000FF1C8F3009F0B5CF0F5F1F4F05301105FE
:1024600009F096CF8FEF89838A831B820E94561DC5
:102470008160782F9D838C8349815A816B818D8106
:102480000E945512C4CF2A960FB6F894DEBF0FBE35
:10249000CDBFDF91CF911F910F91FF90EF90DF9013
:1024A000CF90BF90AF909F900895CF93DF93CDB71B
:1024B000DEB72B970FB6F894DEBF0FBECDBF4F83AC
:1024C000588769877A878B871E821D8285E0FE0187
:1024D0003796DE01119601900D928A95E1F74981B8
:1024E0005A816B817C818D819E812B960FB6F894E9
:1024F000DEBF0FBECDBFDF91CF910C94EB17FC0177
:10250000808191810C94A11ACF93C82F882309F45C
:102510003FC08CEF8C0F813AA0F46C2F80910B019F
:1025200090910C010E94711C882329F08C2F0E942D
:10253000D61A0E94401B8C2F0E94CF1ACF910C9468
:10254000401B80E28C0F883048F4C77081E001C0E6
:10255000880FCA95EAF70E94F71AF0CFEBE5EC0F67
:10256000E33040F4F0E0E659FD4F808190E0CF91F8
:102570000C945311C85AC73158F4EC2FF0E0EE0F09
:10258000FF1FE45CFD4F80819181CF910C94691114
:10259000CF910895882329F19CEF980F913A20F468
:1025A0000E94D61A0C94401B90E2980F983050F479
:1025B000877091E001C0990F8A95EAF7892F0E94F0
:1025C000FD1AF0CF9BE5980F933020F490E080E067
:1025D0000C945311885A873120F490E080E00C94D9
:1025E00069110895CF93C82F0E948412C93349F40A
:1025F0002FEF83EF91E0215080409040E1F700C041
:1026000000008C2FCF910C94CA12882321F00E94D5
:10261000F71A0C94401B0895882321F00E94FD1A9C
:102620000C94401B0895BF92CF92DF92EF92FF92DD
:102630000F931F93CF93DF936C01D62FC72FFC010D
:10264000058102950F70128111110E94141B0E94C6
:10265000ED1AE82E882391F01123D1F08C2F807F82
:10266000803421F080E28D0F883090F082E00E946B
:102670008B1B0E94ED1A91E0E82EE926BC2EB29445
:102680009FE0B922EB2DF0E0EA5CF74D0C94E824D2
:10269000E12CF4CF0C2F0F70C07F11F00295007F5A
:1026A0001123A9F0002359F080E28D0F883010F03B
:1026B000D11109C0802F0E94F71A0E94401B8D2F54
:1026C0000E94841214C0802F0E94071BF6CF8D2F0A
:1026D0000E94CA12002359F080E28D0F883010F05A
:1026E000D1112CC0802F0E94FD1A0E94401B2B2D5F
:1026F0002850330B2430310520F40E942D110E9404
:102700007906EE2009F493C10E94E91A80FD8FC179
:10271000F60112820E94E31A0E946F19C6010E94FC
:1027200038150E94E31ADF91CF911F910F91FF900E
:10273000EF90DF90CF90BF900C949019802F0E9463
:102740000D1BD3CFFC2FFF70FF2EC07FC03219F0BE
:10275000F29480EFF822DD2369F0D13049F11123A2
:1027600091F1002351F1F601858180FFA8CF8F7090
:10277000858323C0112381F0011106C00E94271B0D
:102780008F290E940513B3CF0130C1F70E94271B88
:102790008F290E942D1BABCF011106C00E94361B52
:1027A0008F2D0E940C13A3CF013009F4A0CFF6CFD8
:1027B000112329F0063008F09ACF8F2DE2CF053093
:1027C00008F095CFEDCF002359F3D93349F4FFEF4B
:1027D00023EF31E0F15020403040E1F700C000002D
:1027E0008D2F0E94CA1283CF8C2F86958695837079
:1027F00069F0813009F07BCF8D2F9C2F93701111E0
:1028000002C090E080E00E94691171CF8D2F9C2F53
:102810009370111102C090E080E00E94531167CFC5
:102820008C2F837009F041C0111161CF4D2F42955B
:1028300046954770440F440F0D2F0F7010E030E0A5
:1028400020E0042E04C0000F111F221F331F0A9422
:10285000D2F760E070E0CB01D4FF0FC06FE070E012
:1028600080E090E004C0660F771F881F991F4A958B
:10287000D2F76095709580959095C695C695C37072
:10288000602B712B822B932BC23049F058F4C1304E
:1028900019F00E9421192BCF0E940F1928CF0E94F6
:1028A000331925CF0E940D1922CF8695112311F0DF
:1028B0008C2F8170882309F41ACF4D2F42954695AD
:1028C0004770440F440F0D2F0F7010E030E020E0F0
:1028D000042E04C0000F111F221F331F0A94D2F7C9
:1028E00060E070E0CB01D4FF0FC06FE070E080E0EB
:1028F00090E004C0660F771F881F991F4A95D2F792
:102900006095709580959095C695C695C370602B1F
:10291000712B822B932BC23049F058F4C13019F03F
:102920000E94E619E4CE0E94D419E1CE0E94F81963
:10293000DECE0E944919DBCECF70112329F08C2FF7
:102940000E946F198D2F1DCF8D2F0E940C138C2F7D
:102950000E949019CCCED23F89F160F4D03FC9F0EB
:10296000D13F29F1112309F442C00111A8CE8C2FC7
:102970008F7121C0D33F39F1D43FA1F7112369F101
:10298000CF718C2F0E946F1963E08C2F0E94761BF1
:10299000AECE112341F0053008F0A9CE8C2F8F71F7
:1029A0000E94B319A4CE063008F0A1CEF7CF8C2F29
:1029B0008F71112369F20E946F1999CE8C2F8F713C
:1029C0001123C9F3C5CF112329F08C2F8F710E94D9
:1029D0005A198DCE0E9455198ACE81E00E948B1B18
:1029E000023008F484CE82E00E948B1B80CE00234C
:1029F00059F0D93309F0F4CE8FEF93EFE1E0815035
:102A00009040E040E1F7EACE8C2F8F71A1CF4C2FA0
:102A10004F706D2FC6010E9481060E94851867CEF7
:102A20004C2F4F706D2FC6010E94840660CEDF913F
:102A3000CF911F910F91FF90EF90DF90CF90BF90BB
:102A400008950F931F93CF93DF93EC0168817981F1
:102A50008A810E94AB1A8C010E940A1A0E940C19EA
:102A6000B801CE01DF91CF911F910F910C941313F8
:102A7000CF93DF93EC018B819C81892B29F0888196
:102A8000998189238F3F59F4DF91CF910895CE0129
:102A90000E942115CE01DF91CF910C94E604CE0166
:102AA0000E942C068111F3CF0E94ED1A882361F356
:102AB0008A81882349F382E0DF91CF910C948B1BAC
:102AC0000E94141B0E94241B0E94401B90E080E087
:102AD0000E94531190E080E00C9469110E94DD1A6D
:102AE0000C9460150E94041B0C946E15E92FE2955E
:102AF000EF70E250EE3070F4F0E0EA5BF74D0C94CA
:102B0000E824803F19F020F4883E20F481E0089505
:102B1000843FE1F380E00895883EC0F3813FD1F720
:102B2000F5CF93FB882780F908950E94A11A0C9491
:102B30007615CF93DF9300D000D00F92CDB7DEB7DC
:102B40000F900F900F900F900F90DF91CF910895FD
:102B5000CF93DF9300D000D000D0CDB7DEB726965C
:102B60000FB6F894DEBF0FBECDBFDF91CF910895B1
:102B70001F93CF93DF93C0919E0416E080919F0432
:102B80008C1304C0DF91CF911F910895D0E01C9F5A
:102B9000F0011D9FF00D1124E056FB4F4081518143
:102BA00062817381848195810E94A8152196C770E6
:102BB000E5CF4091D0045091D1046091D20470913E
:102BC000D3048091D4049091D5040C94A8151F933C
:102BD000CF93DF938091D504807FA9F48091D204B4
:102BE000882389F080919E04C0919F046091D00455
:102BF0007091D104A091D304B091D404D62FD723DF
:102C000016E0C81304C0DF91CF911F91089590E0A2
:102C1000109711F0DF3F19F401968770F2CF189FDB
:102C20009001199F300D1124F901E056FB4F4181AD
:102C30004713F2CF40814613EFCF42814111ECCFD1
:102C4000438154814A1B5B0B483C510528F7809116
:102C5000D5048F7080618093D504F901EB55FB4F4B
:102C600080818F708061808380ED94E00E943815B0
:102C7000DF91CF911F910C94B815AF92BF92CF9274
:102C8000DF92EF92FF920F931F93CF93DF93CDB715
:102C9000DEB761970FB6F894DEBF0FBECDBF8C01D3
:102CA00085E0F801DE011D9601900D928A95E1F70D
:102CB000F80140815181E28080EDC82E84E0D82E59
:102CC0006091D3047091D4046115710509F461C158
:102CD0009091D0042091D104892F82238F3F09F451
:102CE00058C1A380B480F090D204F501E61BF70B25
:102CF000FF2009F4FCC08091D504382F307FE83CD8
:102D0000F10508F0B2C0311179C0FE2C251323C0A3
:102D1000941321C0E1101FC08F7080618093D5048F
:102D20000E94D915C6010E9438158091D504F8017A
:102D300085838F2D61960FB6F894DEBF0FBECDBF91
:102D4000DF91CF911F910F91FF90EF90DF90CF9087
:102D5000BF90AF900895AB2829F0842F85238F3F33
:102D600009F033C180E0F82FF170DF2E80FF3CC006
:102D700080919E0420919F0436E0821315C04D87F8
:102D80005E878D859E850E94A11A292F22952F701E
:102D90002230F0F0243018F59F70F1F0F8019581A1
:102DA000907FD1F4D12C1EC090E0389FF001399F64
:102DB000F00D1124E056FB4F6181651306C0608160
:102DC000641303C062816E110FC001968770D5CF66
:102DD0009F7011F0882331F3805E883018F3C801AA
:102DE0000E943815FD2CA5CFEE2009F4A2CF8091CA
:102DF000D50481608093D504F12C9BCF251306C0A8
:102E0000941304C0F801EE2009F48DC04D875E874D
:102E10008D859E850E949515882319F1EE2009F174
:102E20008091D504803270F02091D0043091D1048B
:102E300038872F831986BB86AA868C87CE01079692
:102E40000E94381586E0F801A0EDB4E001900D92E3
:102E50008A95E1F70E94E7150E94D915FF24F394A3
:102E600068CFC8010E943815F9CF311113C07A2DEF
:102E7000B98AA88A6E2D89890E94991580ED94E0FF
:102E80000E94381586E0F60111928A95E9F70E94B2
:102E9000D915B2CF25130FC094130DC0E1100BC08C
:102EA000F8018583C8010E94381586E0F601119269
:102EB0008A95E9F73ECF4D875E878D859E850E9476
:102EC0009515882371F2EE2061F28091D50480324D
:102ED00008F4B8CF2091D0043091D1043A832983EB
:102EE0001B82BD82AC828E83CE010196A9CFE83CC5
:102EF000F10508F041C0FE2CEE2009F4B2CF2513F5
:102F00002AC0941328C08091D50480FD1BC0982F3F
:102F1000907FC1F0F8018583903F31F0982F907F2A
:102F2000905F8F70892B8583C8010E94381586E0D9
:102F3000F801A0EDB4E001900D928A95E1F70E94AE
:102F4000D915F7CE86E0F801A0EDB4E001900D921E
:102F50008A95E1F7EECE4D875E878D859E850E942E
:102F6000951581116FCF8091D50481608093D50430
:102F7000C8010E943815DDCE7A2DB98AA88A6E2D37
:102F800089890E94991586E0F60111928A95E9F7E0
:102F9000D6CFEE2009F465CF4D875E878D859E855F
:102FA0000E949515F82E882309F45BCF86E0F8017E
:102FB000A0EDB4E001900D928A95E1F780ED94E0E8
:102FC0000E947F120E94E715BACF81E08E25CBCEFA
:102FD00088EC90E008951F93CF93DF93CDB7DEB7D1
:102FE0002C970FB6F894DEBF0FBECDBF4F83588726
:102FF00069877A878B879C87CE0107960E943D164A
:10300000882369F08A859B85892B39F04F81588503
:10301000842F85238F3F09F071C016E05FC086E0E2
:10302000FE013796DE01119601900D928A95E1F727
:103030008A859B85892B89F38F81988589238F3F8A
:1030400061F320919F0430E0C901019687709927B0
:1030500040919E044817190671F40E94721510924F
:103060009F0410929E0486E0E0EDF4E0DF011D92E3
:103070008A95E9F7D2CF96E0929FD001939FB00D49
:103080001124A056BB4FFE01319601900D929A95E6
:10309000E1F780939F040E94B815BFCF819FC001C4
:1030A000112480569B4F0E943D168823E9F0E09141
:1030B0009E041E9FF0011124E056FB4F4081518178
:1030C00062817381848195810E94A81580919E04FC
:1030D00090E001968770992780939E0480919E04CA
:1030E00090919F048913DACF2C960FB6F894DEBF27
:1030F0000FBECDBFDF91CF911F91089569857A856D
:103100008B859C850E94A81588CFEF92FF920F9324
:103110001F93CF93DF938C01892B81F0F12CEE2448
:10312000E394E8012196F8018491843770F48430A7
:1031300008F05FC08130B1F08230A1F1DF91CF9112
:103140001F910F91FF90EF900895853709F44CC0BF
:1031500008F43DC09CE7980F903780F78F770E9466
:10316000CA1249C00E5F1F4FFE01849190E2980F72
:10317000983060F48770FE2D01C0FF0F8A95EAF742
:103180008F2F0E94171B0E94401B02C00E948412B6
:103190008F2D815030F2EFECF7E03197F1F700C05E
:1031A0000000F7CF0E5F1F4FFE01849190E2980F51
:1031B000983050F48770FE2D01C0FF0F8A95EAF712
:1031C0008F2F0E941D1BDFCF0E94CA12E1CF0E5F1E
:1031D0001F4FFE01C491C150D8F28FEC97E00197C8
:1031E000F1F700C00000F7CF0E5F1F4FFE01F49013
:1031F000CFCF0E9484128E01CBCF08950C94FD187E
:103200000E94FE1860930C0570930D0580930E05C7
:1032100090930F050C94601508950C9400190F936A
:103220001F9300910C0510910D0520910E05309112
:103230000F05602B712B822B932B1F910F910C94F8
:1032400000190F931F9300910C0510910D0520910B
:103250000E0530910F0560237123822393231F9164
:103260000F910C9400190F931F9300910C0510916E
:103270000D0520910E0530910F05602771278227DB
:1032800093271F910F910C9400190C94FD180C9426
:1032900045190E94471960930805709309058093AA
:1032A0000A0590930B050C94601560E070E0CB016B
:1032B0000C9449190F931F9341E050E060E070E0D7
:1032C0008A019B0104C0000F111F221F331F8A9522
:1032D000D2F7C901B8011F910F910C9449190F93AE
:1032E0001F9341E050E060E070E004C0440F551FC0
:1032F000661F771F8A95D2F780910805909109057E
:10330000A0910A05B0910B058A019B01082B192B8E
:103310002A2B3B2BC901B8011F910F910C9449191D
:103320000F931F9341E050E060E070E004C0440F51
:10333000551F661F771F8A95D2F7CB01BA0160959A
:103340007095809590950091080510910905209140
:103350000A0530910B0560237123822393231F916B
:103360000F910C9449190F931F9341E050E060E0D6
:1033700070E004C0440F551F661F771F8A95D2F76F
:103380008091080590910905A0910A05B0910B055F
:103390008A019B01082719272A273B27C901B80161
:1033A0001F910F910C9449190F931F9300910805D9
:1033B0001091090520910A0530910B05602B712BA6
:1033C000822B932B1F910F910C9449190F931F93EC
:1033D000009108051091090520910A0530910B050F
:1033E00060237123822393231F910F910C94491919
:1033F0000F931F93009108051091090520910A056C
:1034000030910B0560277127822793271F910F9119
:103410000C94491908952FE0929F800D1124982F44
:10342000977041E001C0440F9A95EAF7869586951A
:10343000869595E0899FF0011124EA52FB4F90E0B8
:1034400080E070E05191DF0111979B01082E02C0CE
:10345000369527950A94E2F7217021952527242394
:1034600025272C9301968530910561F708952FE06B
:10347000929F800D1124982F97708695869586953A
:1034800025E0829FF0011124EA52FB4F50E040E01A
:1034900080E0219130E0092E02C0369527950A94EC
:1034A000E2F721703327042E01C0220F0A94EAF7B5
:1034B000822B4F5F5F4F4530510559F70895BF92FA
:1034C000CF92DF92EF92FF920F931F93CF93DF93F0
:1034D0008C01C0900805D0900905E0900A05F09095
:1034E0000B0580910C0590910D05A0910E05B091F2
:1034F0000F05C82AD92AEA2AFB2ACFE1D0E0BC2E40
:10350000D701C6010C2E04C0B695A795979587954F
:103510000A94D2F780FD0EC0219788F7B12C8B2D2D
:10352000DF91CF911F910F91FF90EF90DF90CF909F
:10353000BF900895B8018C2F0E948D06019761F30A
:10354000EECFCF93DF93EC010E945F1ABE01DF91B3
:10355000CF910C948D061F93CF93DF93EB01909145
:103560009D04992331F0CB01DF91CF911F910C94F1
:10357000A11A882379F0CB010E945F1A182F682FB7
:10358000CE010E940B1ABE01812FDF91CF911F91B6
:103590000C948D06CB010E94371A182FF4CF682F98
:1035A00080910B0190910C010C94F11C682F80917B
:1035B0000B0190910C010C94FC1C80910B019091DB
:1035C0000C010C94071D80911005859585958595B6
:1035D0000895809110058770089590911005977057
:1035E00081E009F480E00895809134050895909178
:1035F0003405892B80933405089580959091340586
:10360000982390933405089510923405089590916D
:103610003305892B80933305089580959091330568
:10362000982390933305089510923305089590914F
:103630003205892B8093320508958095909132054B
:103640009823909332050895109232050895809141
:103650001105089508950C942A1B9091110598174F
:1036600021F0809311050C942B1B08958091110576
:10367000882329F01092110580E00C942B1B0895EB
:10368000E0910B01F0910C01809134058083E09171
:103690000B01F0910C01808190913305892B80837F
:1036A000E0910B01F0910C01808190913205892B02
:1036B000808390911105992381F0E0910B01F091A5
:1036C0000C018081892B808380910B0190910C01EA
:1036D0000E945D1C81110E94361B80910B0190910C
:1036E0000C010C94391108950C94731B98E0899F78
:1036F00090011124622B609310050E946F19809134
:1037000010058595859585950C94741B1092100570
:1037100080E00C94741B9091100580958923809310
:103720001005282F277071F4282F082E000C330B5A
:103730009217130639F08595859585950E94901905
:103740000C94861B08956FEF7FEF90E080E00C945F
:10375000CD2790E080E00E94A92721E08C3E9E4F7B
:1037600009F020E0822F089582E090E00C94A127D8
:1037700083E090E00C94A127CF9384E090E00E9436
:10378000A127C82F81E290E00E94A127982F8C2FBB
:10379000CF910895CF93C92F682F84E090E00E94C5
:1037A000AF276C2F81E290E0CF910C94AF2786E099
:1037B00090E00C94A127682F86E090E00C94AF274E
:1037C000AB01BC018FE090E00C94C127AB01BC01C0
:1037D00083E190E00C94C12760E070E0CB010C9491
:1037E000E61B60E070E0CB010E94E01B0C94EC1B38
:1037F0006CEE7EEF90E080E00E94CD2760E082E0FA
:1038000090E00E94AF2760E083E090E00E94AF2745
:1038100010920C0510920D0510920E0510920F05D6
:1038200060E084E090E00E94AF2760E081E290E0F9
:103830000E94AF2760E085E090E00E94AF2760E043
:1038400086E090E00E94AF276FEF87E090E00E9453
:10385000AF2740E050E0BA0188E090E00E94C12725
:1038600060E08DE090E00E94AF2740E050E0BA01B8
:1038700088E190E00E94C12760E087E190E00E942B
:10388000AF2740E050E0BA018CE190E00E94C127F0
:1038900060E080E290E00E94AF2740E050E0BA0193
:1038A00088E190E00E94C1270C94F11B0C94F81B56
:1038B000682F8EE090E00C94AF27FC013296809147
:1038C0001701882321F08091B2059EE187FF96E0E1
:1038D00080E0915008F4089521912223D1F38F5F65
:1038E000F8CF662301F1209117012223F1F02091F6
:1038F000B20527FF1AC0462F4695469546954E318C
:1039000090F4677021E030E002C0220F331F6A9507
:10391000E2F7840F911DFC01828190E02823392376
:1039200081E0232B69F480E00895FC01329608962B
:103930002191261721F0E817F907D1F7F4CF81E09C
:1039400008959C01FC0132969FEF80E0419146175B
:1039500051F09F3F19F4411101C0982F8F5F8630BD
:10396000A9F79F3F09F40895290F311D97FD3A9556
:10397000F90162830895FC0132960896219126137D
:1039800003C0DF0111971C92E817F907B9F70895F2
:10399000E62FE695E695E695EE3168F4E80FF92F07
:1039A000F11D677021E030E001C0220F6A95EAF74F
:1039B0008281822B82830895E62FE695E695E6952F
:1039C000EE3170F4E80FF92FF11D677021E030E05F
:1039D00001C0220F6A95EAF720958281282322836D
:1039E000089520911701222329F02091B20527FD87
:1039F0000C94C81C0C94A11C20911701222329F0BF
:103A00002091B20527FD0C94DC1C0C94BB1CFC011E
:103A1000329680911701882351F08091B20587FF7B
:103A200006C08EE1DF011D928A95E9F7089586E0D0
:103A3000F9CF08950C94191D0E9472150E94D509A2
:103A40000E942D110E9479060C941A1D1F921FB618
:103A50001F9211248F939F93AF93BF93809136054C
:103A6000811113C08091AE059091AF05A091B00572
:103A7000B091B1054196A11DB11D8093AE05909303
:103A8000AF05A093B005B093B105BF91AF919F91E1
:103A90008F911F901FBE1F90189582E084BD93E008
:103AA00095BD9DE797BD80936E0008952FB7F8945C
:103AB0008091AE059091AF05A091B005B091B10590
:103AC0002FBF08952FB7F8946091AE057091AF05A0
:103AD0008091B0059091B1052FBF08959C014FB71B
:103AE000F8948091AE059091AF05A091B005B0918A
:103AF000B1054FBF821B930B089578941F921FB698
:103B00001F9211248F939F93AF93BF938091AE0523
:103B10009091AF05A091B005B091B1050196A11D9E
:103B2000B11D8093AE059093AF05A093B005B093FF
:103B3000B105BF91AF919F918F911F901FBE1F90B4
:103B4000189581E08093E00080E28093D800109285
:103B5000C9008FE097E20197F1F700C0000087E00D
:103B600090EBDC018093C1059093C205A093C3053F
:103B7000B093C40588E19CE00FB6F894A8958093B3
:103B800060000FBE90936000FFCF0C94FC0B0E946E
:103B9000EC088FE19EE40197F1F700C000000E945D
:103BA000EC0880E00E94790880FF04C00E94C51DD7
:103BB0000C94A11D08950E94A91B811102C00E94AE
:103BC000561C0E94B41B809335050E94BC1B909329
:103BD000B3058093B2050E94B81B682F70E090E097
:103BE00080E00E940D19609108057091090580918F
:103BF0000A0590910B050C9447198091570508957B
:103C00000895CF93DF9300D00F92CDB7DEB7909198
:103C1000B805943011F589837B836A839093E9001A
:103C20008FEF9091E800815095FD06C09AE69A9535
:103C3000F1F700C08111F5CF8091E80085FF0DC03C
:103C400050E040E063E070E0CE0101960E94E01F8A
:103C50008091E8008E778093E8000F900F900F908E
:103C6000DF91CF910895BC0184E00C94011EBC014A
:103C700083E00C94011ECF93DF93EC018091170138
:103C80008823B1F18091B20587FF32C060E284E001
:103C90008093E9008FEF9091E800815095FD06C078
:103CA0009AE69A95F1F700C08111F5CF8091E8006E
:103CB00085FF1BC08091170170E050E040E081114A
:103CC00004C050E040E068E070E0CE010E94E01FD8
:103CD0008091E8008E778093E80080E2FE01A7E300
:103CE000B5E001900D928A95E1F7DF91CF910895AB
:103CF00068E081E0CDCFCF93FC01603221F5809167
:103D0000B805843001F5C091E900CF702091EC0036
:103D1000922F917020FD90E8C92B82E08093E900FA
:103D20008091E80080FF0CC050E040E060E270E06D
:103D3000CF010E94E01F8091E8008E778093E80019
:103D4000CF70C093E900CF9108958091B70581119C
:103D500009C00E94BF210E941C228091E200846061
:103D60008093E20008951092B7050895089508958C
:103D70000C941C1D42E061EC81E00E943B2142E278
:103D800061EC84E00E943B2142E261EC82E00E940F
:103D90003B2142E260EC83E00C943B218091BA0528
:103DA000833009F461C030F48130D1F1823009F4FC
:103DB0009DC008958A3009F489C08B3009F46FC022
:103DC000893009F050C08091B905813209F04BC0AB
:103DD0008091BD059091BE05009719F0029709F0FA
:103DE00042C08091E800877F8093E8008091E800DE
:103DF00082FF35C09091F3008091F200029729F480
:103E00008091F1008B7F813021F48091F1008093CB
:103E100057058091E8008B778093E8000C946F2120
:103E20008091B905813AF9F48091E800877F809309
:103E3000E8008091BD059091BE05892B61F460E298
:103E400087E395E070E00E947E208091E8008B7708
:103E50008093E800089560E090E080E0F3CF8091E7
:103E6000B8058111C3CF08958091B905813AD9F77A
:103E70008091BD059091BE05892BA9F78091E8003E
:103E8000877F8093E8008091E80080FFFCCF8091DD
:103E900017018093F1008091E8008E77BDCF80916B
:103EA000B905813201F78091BD059091BE05892B3E
:103EB000D1F68091E800877F8093E8000E946F210F
:103EC0008091BB05809317010C9472158091B90500
:103ED000813249F68091E800877F8093E8000E9454
:103EE0006F218091BC058093580508958091B90594
:103EF000813A09F0B8CF8091E800877F8093E8008D
:103F00008091E80080FFFCCF80915805C2CF0C94CF
:103F1000891F292F33272330310521F168F42130FF
:103F2000310509F443C02230310509F444C090E062
:103F300080E030E020E026C02132310551F122320C
:103F40003105A9F76330710590F7FB01EE0FFF1FF4
:103F5000E059FD4F2081318163597D4FFB01808104
:103F600090E010C099278130910581F0009729F0E9
:103F70000297E9F6E8EFF2E002C0ECE1F3E08491A9
:103F800090E09F01FA01318320830895EAE0F3E095
:103F9000F6CF6330710558F6660F771FFB01EA58BC
:103FA000FD4F2081318189E090E0ECCF82E190E00B
:103FB0002BE733E0E7CF8BE590E020E233E0E2CF80
:103FC000AF92BF92CF92DF92FF920F931F93CF9346
:103FD000DF936C01EB018A010E948E21F82E811182
:103FE00023C00115110539F0F80180819181C81BAA
:103FF000D90BC80ED91EB12CA12C2097A9F0809105
:10400000E80085FD22C08091E8008E778093E8006B
:1040100001151105A1F0F80180819181A80EB91E4A
:10402000B182A08285E0F82E8F2DDF91CF911F9174
:104030000F91FF90DF90CF90BF90AF9008950E94B6
:104040008E218823D1F2F82EEFCFF60181916F01F6
:104050008093F1002197FFEFAF1ABF0ACECFAF9246
:10406000BF92CF92DF92FF920F931F93CF93DF9374
:104070006C01EB018A010E948E21F82E811123C070
:104080000115110539F0F80180819181C81BD90B08
:10409000C80ED91EB12CA12C2097A9F08091E80060
:1040A00085FD22C08091E8008B778093E8000115A0
:1040B0001105A1F0F80180819181A80EB91EB1828D
:1040C000A08285E0F82E8F2DDF91CF911F910F9167
:1040D000FF90DF90CF90BF90AF9008950E948E2107
:1040E0008823D1F2F82EEFCF8091F100F601819371
:1040F0006F012197FFEFAF1ABF0ACECFFC0180916D
:10410000BF059091C00586179707A0F0611571054E
:1041100029F49091E8009E779093E80090E0611573
:10412000710551F4911108C08091E80082FF34C0FC
:1041300080E00895BC01F2CF8091B8058823C1F1D9
:104140008530C1F18091E80083FD30C08091E800A6
:1041500082FDEACF8091E80080FFE1CF8091F300FB
:104160002091F200382F6115710519F028303105C2
:1041700058F091E02830310509F090E02091E800F6
:104180002E772093E800CBCF81918093F10061508E
:1041900071092F5F3F4FE7CF8091B805882341F029
:1041A000853041F08091E80083FFBECF81E0089523
:1041B00082E0089583E00895FC018091BF0590910D
:1041C000C00586179707A0F06115710529F4809145
:1041D000E8008E778093E80090E06115710551F456
:1041E000911108C08091E80082FF35C080E00895F9
:1041F000BC01F2CF8091B8058823C9F18530C9F19F
:104200008091E80083FD31C08091E80082FDEACF13
:104210008091E80080FFE1CF8091F3002091F200CF
:10422000382F6115710519F02830310558F091E0EB
:104230002830310509F090E08091E8008E77809376
:10424000E800CBCF84918093F100319661507109E1
:104250002F5F3F4FE6CF8091B805882341F085302E
:1042600041F08091E80083FFBDCF81E0089582E0B6
:10427000089583E00895982F973028F08F708093E9
:10428000E90081E008959093E900242F762F50E013
:10429000981731F07091EC002091ED005091F000F2
:1042A00021FD02C09F5FE8CF3091EB003E7F30934D
:1042B000EB003091ED003D7F3093ED003091EB004D
:1042C00031603093EB007093EC002093ED0050933D
:1042D000F0002091EE0027FDE5CF80E00895809169
:1042E000B90587FF13C08091E80082FF06C0809166
:1042F000E8008B778093E80004C08091B8058111B5
:10430000F2CF08958091B8058823D9F38091E80011
:1043100080FFF8CF8091E8008E77ECCF2091E40009
:104320003091E50095E6A9012091EC00822F817083
:1043300020FF06C08091E80080FF06C080E008955D
:104340002091E80022FD1AC08091B805882389F0E9
:10435000853089F08091EB0085FD0FC02091E4004D
:104360003091E50042175307F9F29150E1F684E0ED
:10437000089582E0089583E0089581E008950E9401
:104380002D220E943522E0EEF0E080818160808362
:10439000E8EDF0E080818F77808319BCA7EDB0E075
:1043A0008C918E7F8C9380818F7E80831092B70555
:1043B00008950F931F93CF93DF930E942D220E94A5
:1043C0003522C8EDD0E088818F7788838881806826
:1043D000888388818F7D888319BC1092B8051092DC
:1043E000B4051092B6051092B50500EE10E0F80184
:1043F00080818B7F808388818160888342E060E058
:1044000080E00E943B21E1EEF0E080818E7F80839E
:10441000E2EEF0E08081816080838081886080832B
:10442000F80180818E7F8083888180618883DF911D
:10443000CF911F910F910895E8EDF0E080818F7E7C
:104440008083E7EDF0E080818160808384E082BF3B
:1044500081E08093B7050C94D921E8EDF0E08081EC
:104460008E7F80831092E20008951092DA001092FD
:10447000E10008951F920F920FB60F9211242F930F
:104480003F934F935F936F937F938F939F93AF93DC
:10449000BF93EF93FF938091E10082FF0BC0809167
:1044A000E20082FF07C08091E1008B7F8093E100F2
:1044B0000E94A1248091DA0080FF18C08091D8006A
:1044C00080FF14C08091DA008E7F8093DA008091A3
:1044D000D90019BC80FF93C082E089BD09B400FEF9
:1044E000FDCF81E08093B8050E94A51E8091E10078
:1044F00080FF19C08091E20080FF15C08091E2002A
:104500008E7F8093E2008091E20080618093E200E0
:104510008091D80080628093D80019BC85E0809398
:10452000B8050E94B71E8091E10084FF2AC08091E7
:10453000E20084FF26C019BC82E089BD89B5982FAE
:10454000917080FFFBCF8091D8008F7D8093D80041
:104550008091E1008F7E8093E1008091E2008F7E68
:104560008093E2008091E20081608093E20080917C
:10457000B405882309F448C084E08093B8050E94FC
:10458000B81E8091E10083FF29C08091E20083FF83
:1045900025C08091E100877F8093E10082E08093D5
:1045A000B8051092B4058091E1008E7F8093E10000
:1045B0008091E2008E7F8093E2008091E200806132
:1045C0008093E20042E060E080E00E943B21809125
:1045D000F00088608093F0000E94B61EFF91EF917A
:1045E000BF91AF919F918F917F916F915F914F910B
:1045F0003F912F910F900FBE0F901F901895109222
:10460000B8050E94B31E72CF8091E30087FD93E04E
:104610009093B805B4CF1F920F920FB60F9211244A
:104620002F933F934F935F936F937F938F939F93BA
:10463000AF93BF93CF93DF93EF93FF93D091E900B4
:10464000DF708091EC00C82FC17080FDC0E810922F
:10465000E9008091F000877F8093F00078940E94B9
:104660004F231092E9008091F00088608093F00061
:10467000CD2BCF70C093E900FF91EF91DF91CF91E7
:10468000BF91AF919F918F917F916F915F914F916A
:104690003F912F910F900FBE0F901F9018951F9371
:1046A000CF93DF93CDB7DEB7AA970FB6F894DEBFEE
:1046B0000FBECDBF89EB95E02091F100FC01219365
:1046C000CF01F5E0813C9F07B9F70E94CE1E809193
:1046D000E80083FF1EC18091B9059091BA059A3018
:1046E00008F017C1E92FF0E0EC5AF74D0C94E824DC
:1046F000803899F0823809F00CC18091BD058F7027
:10470000873008F006C18093E9008091EB0085FBBB
:10471000882780F91092E90006C08091B505909134
:10472000B605911182609091E800977F9093E80020
:104730008093F1001092F1008091E8008E77E5C03F
:10474000882309F4D3C0823009F0E3C08091BB050F
:104750008111D6C08091BD058F702FEF280F2630B4
:1047600008F0D7C08093E9002091EB0020FFC8C07B
:10477000933031F48091EB0080628093EB00C0C0F5
:104780009091EB0090619093EB0021E030E001C04C
:10479000220F8A95EAF72093EA001092EA008091AE
:1047A000EB008860EACF8111B4C01091BB051F7780
:1047B0008091E3008078812B8093E3008091E80072
:1047C000877F8093E8000E946F218091E80080FF3E
:1047D000FCCF8091E30080688093E30082E01111B8
:1047E00083E08093B80595C08058823008F091C06E
:1047F0008091BB059091BC058C3D23E09207A1F50B
:1048000083E08A838AE289834FB7F894DE011396A6
:1048100020E03EE051E2E32FF0E050935700E491B6
:1048200020FF03C0E295EF703F5FEF708E2F90E0A6
:10483000EA30C0F0C7968D939D932F5F243159F7CE
:104840004FBF8091E800877F8093E8006AE270E0C4
:10485000CE0101960E947E208091E8008B778093A4
:10486000E80057C0C096E7CF6091BD057091BE05C6
:10487000AE014F5F5F4F0E94871FBC01892B09F477
:1048800048C09091E800977F9093E80089819A81D1
:104890000E94DC20E1CF8038E1F58091E800877F3D
:1048A0008093E8008091B4058093F10045CF811199
:1048B00030C09091BB05923060F58091E800877F11
:1048C0008093E8009093B4050E946F218091B40515
:1048D000882311F084E005C08091E30087FDFACFC2
:1048E00081E08093B8050E94BA1E13C08091BB0579
:1048F000813079F481E0933009F080E08093B6054F
:104900001092E9008091E800877F8093E8000E9480
:104910006F218091E80083FF0AC08091E800877FC3
:104920008093E8008091EB0080628093EB00AA9670
:104930000FB6F894DEBF0FBECDBFDF91CF911F91B0
:1049400008950895DB018F939F930E940425BF91E2
:10495000AF91A29F800D911DA39F900DB29F900DCE
:1049600011240895AA1BBB1B51E107C0AA1FBB1F3E
:10497000A617B70710F0A61BB70B881F991F5A95EB
:10498000A9F780959095BC01CD010895A1E21A2E5A
:10499000AA1BBB1BFD010DC0AA1FBB1FEE1FFF1FE3
:1049A000A217B307E407F50720F0A21BB30BE40B33
:1049B000F50B661F771F881F991F1A9469F760957A
:1049C0007095809590959B01AC01BD01CF01089534
:1049D000EE0FFF1F0590F491E02D099469279627AB
:1049E00069277827872778270895A29FB001B39F6A
:1049F000C001A39F700D811D1124911DB29F700DE8
:104A0000811D1124911D08950E94F524A59F900DEC
:104A1000B49F900DA49F800D911D11240895AEE0C8
:104A2000B0E0E5E1F5E20C94F1270D891E8986E0FE
:104A30008C831A8309838FEF9FE79E838D83AE015A
:104A4000475E5F4F6F89788DCE0101960E943225B7
:104A50002F813885020F131FF80110822E96E4E093
:104A60000C940D28ABE0B0E0E8E3F5E20C94E3270A
:104A70007C013B018A01FC0117821682838181FF40
:104A8000B9C19AE0292ECE0101965C01F70193810C
:104A9000F30193FD859193FF81913F01882309F4F0
:104AA00046C1853239F493FD859193FF81913F0191
:104AB000853229F4B70190E00E941327E7CF912CAB
:104AC000412C512CFFE1F51538F08B3209F188F4B7
:104AD000803201F1833221F157FC3AC020ED280FDA
:104AE0002A3040F556FE1FC0929C200D1124922EB4
:104AF00006C08D3291F0803379F7689450F8F30155
:104B000093FD859193FF81913F018111DBCF20C0FF
:104B1000689451F8689452F8F2CF689453F8EFCF44
:104B2000689454F8ECCF429C200D1124422E6894D6
:104B300055F8E5CF8E3229F456FCF9C0689456F842
:104B4000DECF8C3619F4689457F8D9CF8836B9F28D
:104B5000982F9F7D95549330C0F08336A1F1833711
:104B6000C1F1833509F05BC0F801C190D1908F018C
:104B7000692D70E056FC02C06FEF7FEFC6010E9406
:104B8000FD264C01689457F80AC00C5F1F4F2FE3B5
:104B9000298388248394912C6501E89457F853FC69
:104BA00004C04814190409F018F5342C8114910438
:104BB00031F5332009F46ACFB70180E290E00E941A
:104BC00013273A94F6CFF801808189830E5F1F4F37
:104BD000E0CFF801C190D1908F01692D70E056FCB3
:104BE00002C06FEF7FEFC6010E9408274C01D5CFAE
:104BF000B70180E290E00E9413274A94D2CFF601D9
:104C000057FC859157FE81916F01B70190E00E949A
:104C1000132731103A94F1E08F1A9108C7CF8436E8
:104C200019F0893609F074C0F80157FE6AC0619125
:104C30007191819191918F01252D2F76D22E97FF21
:104C400009C090958095709561957F4F8F4F9F4FCC
:104C50006894D7F82AE030E0A5010E944327C82EC7
:104C6000CA188C2C5D2CD6FE0CC0E89450F8C914E0
:104C700040F4D4FE05C0D2FC03C0FD2DFE7E5F2EA5
:104C8000892C54FE8FC0FE01EC0DF11D8081803314
:104C900009F081C0252D297E522E852D8870382E51
:104CA00053FC8FC050FE89C09C2C841418F44C0C0B
:104CB000942C981854FE8BC0B70180E390E00E94BA
:104CC000132752FE09C088E790E051FE02C088E534
:104CD00090E0B7010E941327C91408F484C0CA9455
:104CE000D12C9FEFC91AD90ACA0CDB1CF60182919C
:104CF0006F01B70190E00E941327AC14BD04B1F717
:104D000058CF61917191072E000C880B990B93CFAE
:104D1000D52CE894D4F82AE030E0853739F1952D88
:104D2000997FD92E8F3601F148F48835A9F0F70123
:104D3000868197812B96E2E10C94FF27803749F01A
:104D40008837A9F7D4FE02C06894D2F820E130E099
:104D50000DC06894D4F8F6CF54FE03C0E92FE66086
:104D6000DE2E20E132E002C028E030E0F801D7FE7C
:104D70000DC061917191819191918F01A5010E9466
:104D80004327C82ECA18E894D7F86BCF6191719168
:104D900090E080E0F2CF52FC02C083947ECF8394F7
:104DA00083947BCF852D867809F477CFF6CFB70132
:104DB00080E290E00E94132783948414C0F3312C86
:104DC00079CF342C3818841408F474CFF8CF852D9B
:104DD000867809F481CF8BE251FE80E257FC8DE2A8
:104DE000B70190E077CFB70180E390E00E941327EE
:104DF0009A9472CF8FEF9FEF9DCFFC010590615089
:104E000070400110D8F7809590958E0F9F1F0895E0
:104E1000FC016150704001900110D8F78095909589
:104E20008E0F9F1F08950F931F93CF93DF93182F1B
:104E3000092FEB018B8181FD09C01FEF0FEF812F3F
:104E4000902FDF91CF911F910F91089582FF14C091
:104E50002E813F818C819D81281739073CF4E881A0
:104E6000F981CF0101969983888310838E819F8178
:104E700001969F838E83E3CFE885F985812F09957D
:104E8000892BA1F3DACFFA01AA27283051F120317A
:104E900081F1E8946F936E7F6E5F7F4F8F4F9F4FCE
:104EA000AF4FB1E03ED0B4E03CD0670F781F891F10
:104EB0009A1FA11D680F791F8A1F911DA11D6A0FDE
:104EC000711D811D911DA11D20D009F468943F9191
:104ED0002AE0269F11243019305D3193DEF6CF0190
:104EE0000895462F4770405D4193B3E00FD0C9F756
:104EF000F6CF462F4F70405D4A3318F0495D31FDC3
:104F00004052419302D0A9F7EACFB4E0A695979515
:104F1000879577956795BA95C9F7009761057105EB
:104F200008959B01AC010A2E069457954795379535
:104F30002795BA95C9F7620F731F841F951FA01D8F
:104F40000895F999FECF92BD81BDF89A992780B551
:104F50000895A8E1B0E042E050E00C94D527262F58
:104F6000F999FECF92BD81BDF89A019700B402165F
:104F700039F01FBA20BD0FB6F894FA9AF99A0FBE0D
:104F800008950396272F0E94B0270E94AF27252F50
:104F90000E94B027242F0C94B0270196272F0E943F
:104FA000B0270C94AF27DC01CB01FC01F999FECFAF
:104FB00006C0F2BDE1BDF89A319600B40D924150A1
:104FC0005040B8F708952F923F924F925F926F92A0
:104FD0007F928F929F92AF92BF92CF92DF92EF9289
:104FE000FF920F931F93CF93DF93CDB7DEB7CA1B0A
:104FF000DB0B0FB6F894DEBF0FBECDBF09942A8835
:10500000398848885F846E847D848C849B84AA84DC
:10501000B984C884DF80EE80FD800C811B81AA8169
:10502000B981CE0FD11D0FB6F894DEBF0FBECDBF34
:10503000ED010895F894FFCFAD0AB20AB40AB70A99
:10504000BA0ABD0AC00AA70CB40CDB0CE70CF20CC0
:10505000FD0C000D030D060D4F0D520D090D0D0D2C
:10506000150D220D2F0D320D350D420D4A134A1329
:10507000A213A213F41377137713771310149C144D
:10508000AB14AB1407157713771310158115811521
:105090008A158A158C158A158A158A158115811528
:1050A00091158A158A1591157823A0238924A023A8
:0C50B0008924D323F42389244B245724A3
:1050BC00150377032F0318031903061205FD1D3B77
:1050CC001E001E371E331E0141542B424C454849CD
:1050DC0044434F4E54524F4C4B45593D25640D0A99
:1050EC000041542B424C454849444D4F5553454D76
:1050FC004F56453D25642C25642C25642C25640DC8
:10510C000A0041542B424C454849444D4F55534598
:10511C00425554544F4E3D25640D0A0041542B42C8
:10512C004C454B4559424F415244434F44453D2514
:10513C003032782D30302D253032782D25303278A4
:10514C002D253032782D253032782D253032782DA2
:10515C00253032780D0A0041542B474150444556B6
:10516C004E414D453D564953544136350D0A00418B
:10517C0054453D300D0A0041542B424C454B45598A
:10518C00424F415244454E3D310D0A0041542B4291
:10519C004C45504F5745524C4556454C3D340D0AE5
:1051AC000041545A0D0A00E200E900EA00B500B6CD
:1051BC0000B700CD008301CC008A0192019401213B
:1051CC0002230224022502260227022A02B300B47B
:1051DC00006F007000818283F6F733676636359571
:1051EC0034979694919032C630F1F5F4E200E900D0
:1051FC00EA00B500B600B700CD008301CC008A01EF
:10520C009201940121022302240225022602270284
:10521C002A02B300B4006F00700081828340226DBB
:0C522C001C048D03AF0332034B036B0323
:00000001FF
