:100000000C94C6020C940D030C940D030C940D0378
:100010000C940D030C940D030C940D030C940D0320
:100020000C940D030C940D030C9435280C940629A4
:100030000C9421230C940D030C940D030C940D03CC
:100040000C940D030C940D030C940D030C940D03F0
:100050000C940D030C9478230C940D030C940D0355
:100060000C940D030C9411030C9441030C940D0398
:100070000C940D030C940D030C940D030C940D03C0
:100080000C940D030C940D030C940D030C940D03B0
:100090000C940D030C940D030C940D030C940D03A0
:1000A0000C940D030C940D030C940D032900000017
:1000B00000002C0053005400550056005F00600003
:1000C000610057005C005D005E00000059005A00AE
:1000D0005B005800620000006300000001000000A7
:1000E0000000010001000100010001000100010009
:1000F00001000100010001000100000001000100F9
:1001000001000100010000000100000001000000EA
:1001100000000100010001000100010001000100D8
:1001200001000100010001000100000001000100C8
:1001300001000100010000000100000001000000BA
:1001400000000100010001000100010001000100A8
:100150000100010001000100010000000100010098
:10016000010001000100000001000000000000008B
:10017000000000002A2B2800000000000000000002
:100180000000000000000029000000002C1E3420A8
:10019000212224342627252E362D3738271E1F20CE
:1001A0002122232425263333362E37381F04050613
:1001B0000708090A0B0C0D0E0F1011121314151657
:1001C0001718191A1B1C1D2F3130232D3504050655
:1001D0000708090A0B0C0D0E0F1011121314151637
:1001E0001718191A1B1C1D2F3130354C0000000048
:1001F00000000000000000000000000000000000FF
:100200007E0F00D4FFFFFFC70000007832190A00FC
:10021000047F3F1F643214643214783C1E1E140A9B
:10022000052223252628292A2C2D2F303233353636
:10023000383A3B3D3E4042434547494A4C4E505177
:10024000535557595A5C5E6062646668696B6D6F9E
:1002500071737577797B7D7F81838587898A8C8EA1
:1002600090929496989A9C9E9FA1A3A5A7A8AAACA9
:10027000AEAFB1B3B4B6B8B9BBBCBEBFC1C2C3C5E3
:10028000C6C7C9CACBCCCDCED0D1D2D2D3D4D5D685
:10029000D7D7D8D9D9DADADBDBDBDCDCDCDCDCDDB8
:1002A000DDDDDDDCDCDCDCDCDBDBDBDADAD9D9D89C
:1002B000D7D7D6D5D4D3D2D2D1D0CECDCCCBCAC934
:1002C000C7C6C5C3C2C1BFBEBCBBB9B8B6B4B3B163
:1002D000AFAEACAAA8A7A5A3A19F9E9C9A989694FE
:1002E00092908E8C8A89878583817F7D7B797775D3
:1002F00073716F6D6B6968666462605E5C5A5957B2
:10030000555351504E4C4A4947454342403E3D3B70
:100310003A3836353332302F2D2C2A2928262523FA
:1003200022FFAA7F554000010101010101010101E5
:100330000202020202020202020303030303030396
:100340000304040404040404050505050506060663
:100350000606070707070708080808090909090A20
:100360000A0A0B0B0B0C0C0C0D0D0D0E0E0E0F0FC5
:100370000F10101111111212131314141515161653
:100380001717181819191A1A1B1B1C1D1D1E1E1FC2
:100390002020212222232424252626272829292A11
:1003A0002B2C2D2D2E2F3031323233343536373839
:1003B000393A3B3C3D3E3F40414243444546474835
:1003C000494A4C4D4E4F50515354555658595A5B0B
:1003D0005D5E5F616264656668696B6C6D6F7072AB
:1003E000737577787A7B7D7E8082838587888A8C17
:1003F0008E8F91939596989A9C9EA0A2A3A5A7A94B
:10040000ABADAFB1B3B5B7BABCBEC0C2C4C6C9CB41
:10041000CDCFD1D4D6D8DBDDDFE2E4E7E9EBEEF0F7
:10042000F3F5F8FAFDFF12034500560049004C00B1
:100430002000500061006400000010034C004E00DA
:10044000450020004C006100620000000403090424
:1004500009025B00030100A0FA0904000001030186
:100460000100092111010001224000070581030854
:10047000000A090401000203000000092111010023
:100480000122220007058203200001070503032043
:10049000000109040200010300000009211101000C
:1004A00001226D000705840320000A1201100100DB
:1004B0000000080912282301E3010200010660FF81
:1004C0000961A1010962150026FF009520750881C8
:1004D000020963150026FF00952075089102C005EA
:1004E000010980A101850319012AB700150126B76A
:1004F00000950175108100C0050C0901A10185045A
:1005000019012AA002150126A0029501751081008B
:10051000C005010906A1018505050719E029E715B0
:100520000025019508750181020507190029EF15BD
:1005300000250195F075018102050819012905952D
:100540000575019102950175039101C00501090628
:10055000A101050719E029E7150025019508750196
:1005600081029501750881010507190029FF150011
:1005700026FF0095067508810005081901290595D3
:100580000575019102950175039101C011241FBEEB
:10059000CFEFDAE0DEBFCDBF04B603FE27C0809107
:1005A0006F0590917005A0917105B091720587302B
:1005B000904BA740B04BD1F410926F05109270058C
:1005C000109271051092720514BE84B7877F84BFA4
:1005D0000FB6F894A89580916000886180936000C0
:1005E000109260000FBEE0E0F8E3099512E0A0E091
:1005F000B1E0E2E5FEE502C005900D92A43BB10733
:10060000D9F725E0A4EBB2E001C01D92AF36B207E6
:10061000E1F70E9498040C94D82E0C940000789472
:1006200008951F921FB61F9211242F933F934F934B
:100630008F939F93EF93FF932091C8003091CE004A
:100640008091B60290E001968F7799274091B5028C
:1006500048171906A1F028718093B60287549D4F60
:10066000FC0130832093B402FF91EF919F918F9111
:100670004F913F912F911F901FBE1F90189522E020
:10068000F1CF8F938FB78F939F93EF93FF939091B9
:10069000B8028091B7029817A9F08091B70290E054
:1006A00001968F7799278093B702875C9C4FFC0156
:1006B00080818093CE00FF91EF919F918F918FBFAA
:1006C0008F9118958091C9008F7D8093C900F3CFD9
:1006D000CF93DF93EC01F8941092B8021092B70216
:1006E0001092B6021092B5020E940F03D7FF04C009
:1006F00082E08093C800DF77D093CD00C093CC0018
:1007000088E98093C90086E08093CA00DF91CF9189
:1007100008952091B80230E02F5F3F4F2F773327A5
:100720009091B70292171306D9F3F901E75CFC4FD9
:1007300080832093B8028091C90080628093C900B1
:100740000895CF93DF93EC018991811103C0DF916C
:10075000CF9108950E948903F7CF8091B90308953E
:1007600008959F938F938EE291E09F938F9382EDF4
:1007700094E09F938F930E94A82B0F900F900F905F
:100780000F900F900F9082ED94E00C94A1030F93C3
:100790001F93CF93DF93EC018C81282F082E000C40
:1007A000330B3F938F938B81282F082E000C330B34
:1007B0003F938F938A81282F082E000C330B3F9391
:1007C0008F938981282F082E000C330B3F938F9332
:1007D00087E491E09F938F9302ED14E01F930F93B2
:1007E0000E94A82BC8010E94A10388811F928F93A9
:1007F00088E691E09F938F931F930F930E94A82BFD
:100800008DB79EB742960FB6F8949EBF0FBE8DBFB0
:10081000C801DF91CF911F910F910C94A103FC01AE
:1008200087811F928F9386811F928F9385811F925C
:100830008F9384811F928F9383811F928F938281E4
:100840001F928F9380811F928F9382E891E09F93F4
:100850008F9382ED94E09F938F930E94A82B8DB786
:100860009EB742960FB6F8949EBF0FBE8DBF82ED25
:1008700094E00C94A1038BEE91E00E94A1038FE021
:1008800097E20197F1F700C0000082ED91E00E942D
:10089000A1038FE097E20197F1F700C0000083EF1A
:1008A00091E00E94A1038FE097E20197F1F700C069
:1008B00000008DEB91E00E94A1038FE097E2019789
:1008C000F1F700C0000088E092E00E94A1038FE0F1
:1008D00097E20197F1F700C00000089583E390E0EC
:1008E0000E9468032FEF80E792E021508040904003
:1008F000E1F700C000000C943B0408958091660568
:10090000843059F40E944B178352914081F00E9429
:10091000801B83E291E00C9446170E944B17845091
:10092000914029F00E94801B84E091E0F4CF08956B
:10093000CDB7DEB7A0970FB6F894DEBF0FBECDBF20
:1009400084B7877F84BF0FB6F894A8958091600024
:10095000886180936000109260000FBE80E890E094
:100960000FB6F89480936100909361000FBE0E94CF
:10097000B0170E94BA270E9417288091E200846075
:100980008093E20078948FEF9091660581509430C7
:1009900041F0EFE3FFE13197F1F700C00000811172
:1009A000F3CF0E946E040E947D040E94BC1713E0E6
:1009B0000E94C81780916605843019F00E947E0459
:1009C000F7CF1093E9008091E80082FFF7CF809184
:1009D000E80090E085FF09C050E040E060E270E090
:1009E000CE0101960E942A2691E08091E8008B7743
:1009F0008093E800992311F360E2CE0101960E94F2
:100A0000B912DCCF0E9417104FEF6FEF80E00E9409
:100A1000C50C83E20E94141060E070E0CB010E94DC
:100A2000E4210C94F02181E0089581E008950C9474
:100A3000150508950C9419051F93CF93DF9300D0EB
:100A400000D00F92CDB7DEB749835A836B833091C4
:100A5000390489819A8131111DC06623B9F022239E
:100A6000A9F00E946C20182F682F89819A810E941A
:100A7000192069817A81812F0F900F900F900F902C
:100A80000F90DF91CF911F910C9451140E9445203B
:100A9000182FEFCF0E946C2069817A81EDCFFC0185
:100AA000262F408151816281738184810C941C05C1
:100AB000CF93DF93EC0160E00E944F05BE01DF9110
:100AC000CF910C941A05FF920F931F93CF93DF934E
:100AD000E82FF0E0E459FE4FF490C82FC695C69574
:100AE000C695D0E0FE01E450FE4F0491877010E0FF
:100AF000082E02C0159507950A94E2F70170112798
:100B0000C451DE4FFE01C491D0E002C0D595C79517
:100B10008A95E2F7C170DD270115110519F081EE04
:100B20000E949218209719F086EE0E9492188F2D3D
:100B30000E940019CD2B19F086EE0E94D818012BC7
:100B400041F081EEDF91CF911F910F91FF900C94B6
:100B5000D818DF91CF911F910F91FF900895EF92D8
:100B6000FF920F931F93CF93DF93EC01162F0AE0B0
:100B70008881882309F454C0813009F04EC08981EE
:100B8000813099F47E0122E0E20EF11C8A810E94FC
:100B90000019E7012196812F815050F3EFECF7E027
:100BA0003197F1F700C00000F7CF823041F47E01A9
:100BB00082E0E80EF11C8A810E949218EACF83300D
:100BC00041F47E01E2E0EE0EF11C8A810E94D81809
:100BD000E0CF843011F02196DDCF2A81229690E07B
:100BE00080E0AE014F5F5F4F2053330B2A30310559
:100BF00048F0019778F2EFECF7E03197F1F700C099
:100C00000000F7CF089FB001099F700D1124C901A2
:100C1000860F971F2981EA01E4CF0E946305BACFAE
:100C2000DF91CF911F910F91FF90EF90089560E0B9
:100C30000C94AF058F929F92AF92BF92CF92DF92AA
:100C4000EF92FF920F931F936B017C0181E090E084
:100C5000A0E0B0E04C015D0104C0880C991CAA1C06
:100C6000BB1C4A95D2F7B501A4014C015D0104C03B
:100C7000880C991CAA1CBB1C2A95D2F74829592913
:100C80006A297B2904C0880F991FAA1FBB1F0A95D8
:100C9000D2F78A019B010C211D212E213F2104172F
:100CA00015072607370789F48C299D29AE29BF2906
:100CB000BC01CD011F910F91FF90EF90DF90CF907D
:100CC000BF90AF909F908F90089580959095A0953C
:100CD000B0958C219D21AE21BF21EACF0F93382FF3
:100CE000262F6091810470918204809183049091F9
:100CF0008404042F432F0E941A060F910C94571F4F
:100D00000E94C2230E94B621811102C00E94532278
:100D10000C94E6080C94E90808950E94801B0E9438
:100D20008C062FE78AE196E0215080409040E1F761
:100D300000C000000C949C230F931F93CF93DF936C
:100D4000EC0161E00E944F058C01BE010E94271258
:100D5000882389F1BE01C8010E941705882359F133
:100D6000BE01C8010E94A715882329F1BE01C80150
:100D70000E94F9158823F9F0BE01C8010E941C17D2
:100D80008823C9F0BE01C8010E942911882399F067
:100D90008A81882339F001158CE5180751F00F3D41
:100DA0001C4579F0CE01DF91CF911F910F910C94EA
:100DB00013050E948D0680E0DF91CF911F910F9166
:100DC00008950E945322F7CF08950C94E40681E021
:100DD00008950C94E706CF93C82F0E94E5068C2F48
:100DE000CF910C94E90690E080E008950895FC010D
:100DF000EE0FFF1FE45FFD4F859194910895CF930F
:100E0000DF930E9451140E940B08EC01811520E52C
:100E1000920708F041C0811530E4930708F0B4C090
:100E2000803E910518F5803C910508F09DC0883AF8
:100E3000910570F4853A910508F08EC081309105D6
:100E4000F9F00097E9F00497D8F4D0E0C0E018C0BA
:100E50008F3B9105D0F7C85AD0E0CC0FDD1FC25FA1
:100E6000DD4F0990D881C02DD4640AC0811590420D
:100E700058F4C11581E0D80718F4C83ED10528F709
:100E8000CE01DF91CF910895C11590E3D90708F005
:100E900071C0CE019F706AC0811525E5920758F593
:100EA000811534E5930708F09EC0811542E594074B
:100EB00050F4C11581E5D80708F469C0DC2FCC27B0
:100EC000C16FD06ADDCF982F969596959E012370BD
:100ED0003327C115D34508F077C0C1E0D0E002C088
:100EE000CC0FDD1F2A95E2F720E2929FC00111246A
:100EF000C82BD92B67C0C11589E5D807A8F4C1153F
:100F000098E5D90708F074C0C11526E5D20708F0A6
:100F10009CCF8C2F0E94A208C82FD0E0DC2FCC27BA
:100F2000CC27DF71D062ACCFC1153AE5D30708F406
:100F300064C0CE0190568115904208F086CF8D2F67
:100F40008F710E94A20890E0982F882788279F71B0
:100F50009C012C2BE901E6CFC55AD0E0C45CDD4FE3
:100F6000C881D0E0D0648CCF805C91090E94F706E4
:100F7000EC0186CFCE019927D3FF03C0EC01D86CDA
:100F80007FCFEC01D06C7CCFDF70D06A79CFCE01FF
:100F9000E4E096958795EA95E1F783702C2F2695E6
:100FA0002695237090E2299F90011124382B8C2FD5
:100FB0008370C1E0D0E002C0CC0FDD1F8A95E2F75C
:100FC000C22BD32BDC685CCFC1E0D0E002C0CC0FD9
:100FD000DD1F2A95E2F730E2939FC0011124C82B50
:100FE000D92BDA684DCFD82FCC27C46FD06A48CF21
:100FF000DC2FCC27C06FD06A43CF8C2F8F700E941C
:10100000A20834E0D695C7953A95E1F7CF709C2FAA
:10101000EC01D06935CF82389105B1F1B0F481335C
:10102000910509F475C048F48932910509F469C045
:101030008A32910509F473C008958533910509F446
:1010400059C08933910501F10895833E9105A9F1B5
:1010500038F4803E9105F9F0823E910549F10895FA
:10106000863E9105A9F1873E9105C9F1843E91051F
:1010700019F52091610521FF1FC08091600584FD55
:1010800014C087EE90E00895209160052370A1F0D0
:1010900080EE90E008952091600520FD47C03091DA
:1010A000610530FF09C024FF44C090E080E004C027
:1010B0002091600522FDF7CF08952091600522FD63
:1010C0003BC03091610530FDE3CF24FFF5CFEDCF7C
:1010D0002091600523FFF0CF24FDE7CFD2CF2091F0
:1010E000600523FD2CC03091610531FFEECF84EE09
:1010F00090E008952091600525FFDECF89E290E021
:1011000008952091600525FFD7CF85E390E00895ED
:101110002091600526FFD0CF8AE290E008952091CB
:10112000600526FFC9CF81E390E0089589E390E050
:10113000089583EE90E0089582EE90E0089586EEA3
:1011400090E008959091600592FF06C0282F2871C5
:101150002830F9F4877F846093FF06C0282F287118
:101160002831F1F4877E84612091610520FF06C05B
:10117000382F38713830D9F4877F816021FF06C05D
:10118000282F28712831D1F4877E816194FD877ED4
:101190000895282F24712430F9F68B7F8860DCCFE6
:1011A000282F2471243101F78B7E8861DDCF382F01
:1011B0003171313019F78E7F8860E0CF282F21718F
:1011C000213121F78E7E8861E1CF08950C94E508E6
:1011D00008950C94E808E82FF0E0E85EFA4F80816B
:1011E0000895089580E58A95F1F70895F894E82F19
:1011F000E295EF70F0E031A1282F2F7081E090E0B0
:1012000001C0880F2A95EAF7982F9095932391A310
:1012100092A1892B82A37894089586EC0E94F60807
:1012200080E30E94F60881EF0E94F60885EF0E9495
:10123000F60884EF0E94F60881E30E94F60887E62C
:101240000E94F60887E30E94F60883E30E94F608EE
:1012500086EF0E94F608E2E1F5E0A8E1B5E088E15A
:1012600095E011921D928E179F07D9F786E00E9494
:10127000B0090C948006CF92DF92EF92FF920F9309
:101280001F93CF93DF93C3E4D2E002E115E0D12CAA
:10129000EE24E394F12C8991F894E82FE295EF7015
:1012A000F0E021A18F70A70102C0440F551F8A955D
:1012B000E2F7CA01922F982B91A392A180958923DE
:1012C00082A378940E94F208EFE3F2E030E020E09D
:1012D000C12C4191A42FA295AF70B0E090968C9153
:1012E00090E04F7002C0959587954A95E2F780FD92
:1012F00033C08E2D022E01C0880F0A94EAF7C82A47
:101300002F5F3F4F2430310521F7FE013197808157
:101310000E94F608F8018081C81601F1C08281E0C0
:10132000D82A0F5F1F4FF2E0C934DF0709F0B3CFAF
:101330002D2D46E068E175E082E195E00E94B1095B
:101340000E948A068D2DDF91CF911F910F91FF9002
:10135000EF90DF90CF90089580E0D1CF80E0E0CF94
:101360000895FF920F931F93CF93DF93F82E092FC9
:10137000162FD72FC42F222349F081E08093BC037E
:101380000E9451239093BB038093BA038091BC03C6
:101390008823A1F08091BA039091BB030E94692336
:1013A000069760F0EF2DF02FA12FBD2FCE0FDF2F6E
:1013B000D11DEC17FD0741F41092BC03DF91CF91D2
:1013C0001F910F91FF90089581918D93F2CFEF922D
:1013D000FF920F931F93CF93DF93EB01E82FD1116F
:1013E00010C0442321F0F0E0EA5DFC4FE4916E2F41
:1013F0007E2F8E2FDF91CF911F910F91FF90EF9055
:1014000008950D2F10E0282F30E0442329F02A5DA5
:101410003C4FF901249130E0F6E0CF9FC001112448
:10142000EFEFF0E0BF010E94B72AAB018C2F90E0F4
:10143000880F991FA5E5A49FB001A59F700D1124E9
:10144000861B970B982F990F980FBF01601B710B8C
:10145000629FD001639FB00D729FB00D11248B2F3E
:101460009D9FB0011124672F7727EF01C61BD70B73
:10147000BE01629FE001639FD00D729FD00D1124C9
:101480007F01E91AF108E09EB001E19E700DF09E27
:10149000700D1124672F7727E61BF70BE29F800161
:1014A000E39F100DF29F100D1124E12F722F423097
:1014B000510599F048F44115510569F04130510545
:1014C00081F0EB2F8D2F07C04430510569F080F07B
:1014D00046305105B1F76E2F8DCFE22F7B2F812F34
:1014E000FACFE22F7D2FF7CFEB2F822F712FF3CF83
:1014F0007B2F822FED2FEFCF41E00C94E709089569
:101500000C947C0ACF93DF93762FE901682F842F08
:101510000E94800A798368838A83DF91CF9108953E
:1015200080911E05982F9E7F29F4817082608093A0
:101530001E0508958635E8F381708465F8CF88E04C
:1015400090E00C94422ECF92DF92EF92FF926B01CB
:101550007C010E94900AB701A60188E090E0FF900C
:10156000EF90DF90CF900C94602E60911E057091EB
:101570001F0580912005909121050C94A30AEEE1AE
:10158000F5E083E0808311828FEF8283838314826E
:1015900060817181828193810C94A30A80911E05E0
:1015A00080FF02C08695089580E0089590912205FD
:1015B000933018F49F5F90932205882351F0609137
:1015C0001E0570911F0580912005909121050C94B6
:1015D000A30A089581E00C94D60A909122059923DC
:1015E00019F0915090932205882351F060911E05C7
:1015F00070911F0580912005909121050C94A30AFC
:10160000089581E00C94ED0A80912205089580935D
:101610002205662351F060911E0570911F0580918F
:101620002005909121050C94A30A089560E00C9484
:10163000070B80911F0508958091200508958091E2
:101640002105089570E00C94991160911201809128
:101650001E0580FF0AC08091110123E0829FC00116
:1016600011248D5D9A4F0C94220B8091130190915F
:10167000140123E0829FF0011124ED5DFA4F8917D8
:1016800050F71182108212828F5F3396F8CF9091BB
:101690001E0590FF14C0909113012091140133E0B6
:1016A000939FF0011124ED5DFA4F921710F00C9406
:1016B000250B8183608342839F5F3396F6CF089525
:1016C000CF93DF9300D00F92CDB7DEB790911E0578
:1016D00090FF0AC09E012F5F3F4F0E94820A4B81FC
:1016E00069818A810E94470B0F900F900F90DF91C4
:1016F000CF910895CF93DF93EC01EC81F0E0EF5DA3
:10170000FD4F4491EEE1F5E0628181810E94600B22
:101710008C818F5F8C83DF91CF910895CF93DF937E
:10172000EC01EEE1F5E0438162818C810E94600B67
:101730008C818F5F8C83DF91CF9108950F931F93DE
:10174000CF93DF9300D00F92CDB7DEB78C0180919D
:10175000BD0381110AC09E012F5F3F4F4FEF6FEF16
:101760000E94820A8A818093BD03F80164816130FE
:1017700069F08091BD0340E0662361F040E0623093
:1017800011F44091BD0380E060E004C06091BD03AE
:1017900040E080E00E94470BF801848190E00196D0
:1017A00063E070E00E94CB2A84830F900F900F902B
:1017B000DF91CF911F910F910895AF92BF92CF9279
:1017C000DF92EF92FF920F931F93CF93DF9300D09E
:1017D0000F92CDB7DEB7182FF62E042FE22E909180
:1017E0001E0590FF29C0E92FE695AE2FB0E0A75B5C
:1017F000BD4F8C91809326049E7F923059F59E01B7
:101800002F5F3F4F812F0E94820A4B8169818A811D
:101810000E94470B10931F05F092200500932105AD
:10182000EE2051F060911E0570911F0580912005FA
:10183000909121050E94A30A0F900F900F90DF91C5
:10184000CF911F910F91FF90EF90DF90CF90BF90BD
:10185000AF900895823019F400912105DBCF8630D6
:1018600019F410911F05D6CF8930D9F3893191F63B
:10187000E9518E2F8170D82EE695F0E0EF5DFC4F98
:10188000A590B490C12CBB2460911501C61618F028
:101890000E94250BBFCF2C2D30E0A29EC001A39E3D
:1018A000900DB29E900D112470E00E94B72A812FF6
:1018B000D11013C0860F40911301420F532F511DB9
:1018C0009A01220F331F240F351F2D5D3A4F402FF1
:1018D0006F2D0E94820AC394D7CF861BECCFEEE116
:1018E000F5E09181282F438162818AE0890F0C9471
:1018F000DD0B81E00C946F0CEEE1F5E09181282F77
:101900004381628186EF890F0C94DD0B81E00C949A
:101910007C0CEEE1F5E0628121E1620F08F46FEFEB
:10192000282F438181810C94DD0B81E00C94890C7C
:10193000EEE1F5E0628121E1621B08F460E0282F0E
:10194000438181810C94DD0B81E00C94980CEEE1D5
:10195000F5E0438121E1420F08F44FEF282F628127
:1019600081810C94DD0B81E00C94A70CEEE1F5E095
:10197000438121E1421B08F440E0282F62818181EC
:101980000C94DD0B81E00C94B60C21E00C94DD0B83
:1019900020E00C94DD0BEF92FF921F93CF93DF9327
:1019A000EC0110E0EE24EA94F12C60911501161779
:1019B00070F00E94250B9A818C8190FF27C08F5F69
:1019C0008C83DF91CF911F91FF90EF90089520912C
:1019D0001301422F410F5527551FCA019A01220FAB
:1019E000331F280F391F2D5D3A4F70E0C7010E9449
:1019F000CB2A962F8C814091210560912005199F5B
:101A0000800D11240E94820A1F5FCFCF8150D8CF52
:101A1000AF92BF92CF92DF92EF92FF920F931F93FC
:101A2000CF93DF93FC0182810FEF80FF01E010E094
:101A300043E1A42E809115011817C8F00E94250BD0
:101A40008091BF03013009F055C0811102C080911F
:101A5000150181508093BF03DF91CF911F910F91AA
:101A6000FF90EF90DF90CF90BF90AF900895C0911E
:101A70001301C12ED12CCC0DDD2DD11DCE01880F2F
:101A8000991FC80FD91FCD5DDA4F198218821A82AB
:101A900034E0E32EF12CB12C8091BF038B0D843107
:101AA0001CF16A2D0E94A92A892F082E000C990B7F
:101AB000C816D90691F4809121058E9DA0018F9DB5
:101AC000500D112455954795559547959E01609168
:101AD000200580911F050E94820AB00EF1E0EF1AE6
:101AE000F108D1F61F5FA6CF87FFDFCF90911501D8
:101AF000890FDBCF90E001966091150170E00E94A4
:101B0000CB2AA8CF0F931F93CF93DF93809113011C
:101B10009091140123E0829FF0011124ED5DFA4FB2
:101B2000891740F1C0E0D3E060911501C61740F17C
:101B30000E94250B20910F018091BE03820F80939C
:101B4000BE0390911001920F90931001191654F456
:101B5000082E000C990B409115014150550B84172C
:101B600095071CF0219520930F01DF91CF911F91D4
:101B70000F9108951182108212828F5F3396D0CF19
:101B80000C2F10E070E0C8010E94CB2A20911301B5
:101B9000820F482F50E02091BE03022E000C330B21
:101BA00002171307BCF020911001022E000C330B1A
:101BB000201731077CF08D9F900111242D5D3A4F45
:101BC000409121056091200580911F050E94820AA5
:101BD000CF5FAACFFA01EE0FFF1FE40FF51FED5DF7
:101BE000FA4F118210821282F3CF8F929F92AF929E
:101BF000BF92CF92DF92EF92FF920F931F93CF93FA
:101C0000DF93EC014C81042F10E09801D8010E9471
:101C1000162B9B01AC010E942C2B4B015C01E0E2D6
:101C2000F0E0E01BF10BA5E5B0E0AC019B010E94E8
:101C30002C2B6B017C019F01DF010E940E2B9B016D
:101C4000AC010E94372B9B01AC01280D391D4A1DA8
:101C50005B1DC701B6010E94DF2AF22E822F90E0A1
:101C600039E23F1560F143E0249F9001112435953E
:101C70002795122F109500E085E5E82EEF1880914A
:101C80001501081758F10E94250B9C8181E09923CA
:101C900019F0903219F48FEF80930E0180910E01AC
:101CA000890F8C83DF91CF911F910F91FF90EF905F
:101CB000DF90CF90BF90AF909F908F90089525E5D3
:101CC00030E0B901681B790B9B01220F331F260FEF
:101CD000371F37FFCCCF2F5F3F4FC9CF8E2D01FD70
:101CE0008F2D20911301622F600F7727771F9B01A3
:101CF000220F331F260F371F2D5D3A4F412F609162
:101D000020050E94820A0F5FBACF0F931F93CF93D3
:101D1000DF93EC0110E000E090911501901711069F
:101D200009F06CF40E94250B8C8190E00196817083
:101D300099278C83DF91CF911F910F910895209166
:101D40001301A801420F511D9A01220F331F240FC6
:101D5000351F2D5D3A4F4C816091200580911F0504
:101D600096959017110651F04CF0442349F040919C
:101D700021050E94820A0F5F1F4FCECF4423B9F383
:101D800040E0F7CF8F929F92AF92BF92CF92DF92B7
:101D9000EF92FF920F931F93CF93DF93FC01B280DA
:101DA000948081E0848300E015E05BE4A52E882424
:101DB0008394EE24EA94F12C7BE4C72ED12C8091FD
:101DC0001501081770F0DF91CF911F910F91FF90CF
:101DD000EF90DF90CF90BF90AF909F908F900C943A
:101DE000250BC02FD0E01C9FF0011D9FF00D11248A
:101DF000E054FC4F91101CC01382128220911301F9
:101E0000CE01820F911D9C01220F331F280F391F15
:101E10002D5D3A4F1C9FF0011D9FF00D1124E054E1
:101E2000FC4F4281618180810E94820A0F5FC7CF8F
:101E30002381222379F12150238334818A2D821B2F
:101E4000311101C0822F1C9FF0011D9FF00D112444
:101E5000E054FC4F90912105899FC0011124B601E7
:101E60000E94B72A6283211104C0332311F0148227
:101E7000A38222E02B1510F21C9FF0011D9FF00D94
:101E80001124E054FC4F80911F0580838091200530
:101E90008183B4CF0E948B2B823091400CF0AECF67
:101EA00082E08B1530F50E948B2BB7010E94CB2A64
:101EB0001C9FF0011D9FF00D1124E054FC4F808306
:101EC00022E02B15C8F40E948B2B2091200526952B
:101ED000622F70E00E94CB2A280F1C9FF0011D9FEB
:101EE000F00D1124E054FC4F21831282A3828482DE
:101EF00085CF80911F05DCCF20912005EECFEEE14C
:101F0000F5E080818E7F8083608171818281938101
:101F10000E94A30A109227042FE788E391E0215042
:101F200080409040E1F700C000000C94250BEEE1EA
:101F3000F5E080818E7F8083109227042FE788E36D
:101F400091E0215080409040E1F700C000000C94E7
:101F5000250B60911E05669570E04BE050E086E130
:101F600091E00E949B2B892B19F481E08093270438
:101F70000E9451239093200480931F040895909110
:101F80001E0590FF35C09170811128C0926090931A
:101F90001E05662351F060911E0570911F0580910A
:101FA0002005909121050E94A30A60911E05669567
:101FB00070E04BE050E086E191E00E949B2B892B82
:101FC000A1F01092270481E0809322044091210522
:101FD0006091200580911F050C94C80C8B3210F085
:101FE0009465D5CF880F982BD2CF0E94A90FEBCF45
:101FF0000895682F90911E05969581E0890F8B3288
:1020000008F081E00C94BF0F81E00C94F90F682F69
:1020100090911E0596958FEF890F09F48AE20C9432
:10202000BF0F81E00C94071061E00C94BF0FEEE14C
:10203000F5E080818160808386950C9414108091F6
:102040001E0580FD0C947F0F0C94171060E00C941B
:10205000BF0F8091250481112EC00E94B6218111ED
:1020600004C00E9453220E94BF0A0E949F0A6093EC
:102070001E0570931F0580932005909321056E7FA8
:1020800061F40E94BF0A0E949F0A60931E0570932C
:102090001F0580932005909321050E94900A1092BD
:1020A000270480911E0580FF03C086950E9426109C
:1020B00081E0809325040895EEE1F5E08081816060
:1020C000808386950C9426100F931F93CF93DF93F4
:1020D00080912704882309F49DC080912604E09113
:1020E0001E05E695E81BE09321048230C9F5F0E077
:1020F000E35EFD4FE491CE2FD0E00AE71BE0809134
:102100002204882389F0109222040E9451239E0108
:1021100020953095820F931F9093200480931F0485
:10212000109224041092230480911F0490912004A3
:102130000E9469238C179D0708F46CC0E0911F046E
:10214000F0912004CE0FDF1FD0932004C0931F0412
:102150008FE194E0F801DF91CF911F910F910994E5
:10216000863049F4F0E0E65EFD4FE491CE2FD0E0FA
:102170000EE81BE0C4CF893051F4E695F0E0E95E4B
:10218000FD4FE491CE2FD0E00BEC1CE0B8CF8F30A8
:1021900051F4E695F0E0EC5EFD4FE491CE2FD0E0F7
:1021A00008E01DE0ACCF853149F4F0E0EF5EFD4F73
:1021B000E491CE2FD0E002E81DE0A1CFC8E2D0E04C
:1021C00005EF1DE0883109F49ACF833239F4EFE04E
:1021D000F2E0C591D4910EE91BE091CFC4EFD1E0BC
:1021E00005E81EE0843209F48ACFC0EDD7E00FE79E
:1021F0001AE0853209F083CF8E2F63E00E949D2A7A
:10220000E92FF0E0E45FFD4FE491CE2FD0E002EC47
:102210001EE075CFDF91CF911F910F910895FA01C4
:10222000811101C0FB010994CF93DF93C82FD62FF2
:102230000E94CE0A8C1740F00E94CE0A8D1720F41F
:10224000DF91CF910C9404108C2FDF91CF910C94DF
:1022500014100F931F93CF938C01FB01C281CC23E9
:1022600009F465C00E9401218272F801E35CFC451B
:10227000E431F10538F4E652F14D0C94012B0E9443
:102280001F10C0E08C2FCF911F910F91089541E155
:1022900050E164E070E10E940F11F3CF44E050E19F
:1022A00061E170E1F8CF46E85CE069E77CE0F3CFFC
:1022B00049E75CE066E87CE0EECF44EA5CE065E993
:1022C0007CE0E9CF45E95CE064EA7CE0E4CF42EC05
:1022D0005CE063EB7CE0DFCF43EB5CE062EC7CE056
:1022E000DACF41E05BE06AEE7AE0D5CF4AEE5AE021
:1022F00061E07BE0D0CF81E00E941410C2CF65E0A6
:1023000082E00E941411BDCF68E086E0FACF6EE053
:1023100089E0F7CF64E18FE0F4CF67E185E1F1CFA9
:1023200088E1EACF62E289E1ECCF83E2E5CFC1E068
:10233000A9CF3E9A48B14F7B58B15064EFB7F8949B
:102340009B01220F331F260F371F280F391F281715
:10235000390741F4EFBF8FE292E00197F1F700C037
:1023600000000895DC016D91CD0178E058B967FF58
:1023700048B9660F000000C048B9000000C000C0A6
:1023800000C000C000C000C000C000C000C000C04D
:1023900000C000C000C000C000C07A9539F7D7CF98
:1023A00082E290E00E943A2E813289F483E290E04A
:1023B0000E943A2E823059F484E290E00E943A2E34
:1023C00091E0873209F090E0892F8170089580E0D4
:1023D000FCCFCF93C82F6FEF811161E282E290E0D2
:1023E0000E944E2E6FEFC11162E083E290E00E94E6
:1023F0004E2E6FEFC11167E284E290E0CF910C9412
:102400004E2E80E00E94E9110C94B021089585E2DF
:1024100090E00E943A2E682F70E090E080E00895EE
:1024200085E290E00C944E2E0E9406120E94D0117C
:1024300081110CC060E070E0CB010E9410120E947C
:10244000CB130E94B51481E00C94E9110895CF9349
:10245000FB01C281CC2309F19C0122513F4520316F
:10246000310520F582510E94C514C0E08C2FCF9118
:10247000089581E00E947D1F43E062E081E00E94B8
:102480006E06F3CF81E00E949E1F43E062E081E090
:102490000E946E06EBCF82E0F6CF8031FFE59F070A
:1024A00089F381319F45B9F3C1E0E0CF8031EFE599
:1024B0009E07F9F281319F45C9F682E0DBCF2FEF0D
:1024C000FC0120830895CF93DF93EC01888181384C
:1024D000A9F028F4803871F0DF91CF910895823807
:1024E00081F08338C9F70E94190B89830E941C0B65
:1024F0008A83F2CF0E941F0B8983EECF0E94CE0AFF
:10250000FBCF0E94040BF8CFCF93DF93EC018881BF
:102510008138E1F028F4803869F0DF91CF91089597
:10252000823811F18338C9F70E941F0B482F6A8146
:10253000898108C0D9810E941C0BC82F0E94190BE9
:102540004D2F6C2FDF91CF910C94C80C89810E9484
:1025500026108981811104C0DF91CF910C94970FCF
:10256000DF91CF910C945C108981DF91CF910C9415
:10257000160BEF92FF920F931F93CF93DF93EC0113
:10258000062FDC01ED91CD01E150E33108F0BFC031
:10259000F0E0E251F14D0C94012B198289E08A831D
:1025A000602FCE01DF91CF911F910F91FF90EF909F
:1025B0000C9476248981823069F0833071F0813007
:1025C000D9F40E945D230E94072B6A837B838C834E
:1025D0009D83E6CF0E940712F6CF7E01B2E0EB0E9C
:1025E000F11C10E0812F0E94EB08F70181937F011D
:1025F0001F5F1630B9F7D4CF602FCE010E945F1253
:10260000CFCF89818230C1F76A817B818C819D81A6
:102610000E94072B0E941012C3CF4B816A818981CF
:102620000E949D139827892798279D838C83B8CF74
:102630002C813D813227232732274B816A81898172
:102640000E94B613ADCF0E94CB13AACF0E94841272
:10265000A7CF0E946312A4CF0E94B50AA1CF0E9407
:102660005E1489839DCF0E9460149827892798273C
:102670009A83898395CF6B8170E089819A81AE01BD
:102680004C5F5F4F9827892798270E94631488CF53
:102690006B8170E089819A81AE014C5F5F4F982712
:1026A000892798270E948A147BCF0E94B51478CF7F
:1026B0000E948A13D6CF6B8170E089819A81AE0126
:1026C0004C5F5F4F9827892798270E94031468CF93
:1026D0006B8170E089819A81AE014C5F5F4F9827D2
:1026E000892798270E9428145BCF0E94011258CF97
:1026F000CE010E947624FFEF20E782E0F1502040D7
:102700008040E1F700C000000E949C2349CF8FEF7A
:10271000888346CF84E0089598E0699FB001112432
:1027200050E0440F551F640F751F90E3899F600DA3
:10273000711D1124CB01869608950F931F93CF939B
:10274000DF930E948C138C010E943A2EC82FD0E098
:10275000DC2FCC27C80101960E943A2E9E01282B1F
:10276000C901DF91CF911F910F9108950F931F938E
:10277000CF93DF93122F032F0E948C13EC01602F55
:102780000E944E2E612FCE010196DF91CF911F91B5
:102790000F910C944E2EAF92BF92CF92DF92EF9298
:1027A000FF921F93CF93DF938CEAC82E80E0D82E40
:1027B000D0E07601C0E014C0F50125913491412F9D
:1027C0006C2F8D2F0E94B61382E0A80EB11C1F5FE4
:1027D000143091F788E0E80EF11CCF5FC63019F095
:1027E000570110E0E9CFDF5F80E3C80ED11CD43081
:1027F00001F7DF91CF911F91FF90EF90DF90CF9085
:10280000BF90AF900895EF92FF920F931F93CF93D5
:10281000DF93EC018A017C01E60EF71ECE0186965D
:10282000CE15DF0539F4DF91CF911F910F91FF9005
:10283000EF900895C03CD10540F40E943A2EF80173
:1028400080830F5F1F4F2196E9CFF8011082F9CFE7
:10285000CF92DF92EF92FF920F931F93CF93DF936C
:102860007C016A018C01060F171FEC01CE018696D0
:10287000C017D10749F4DF91CF911F910F91FF90BD
:10288000EF90DF90CF900895C03CD10540F4FE0159
:10289000EE19FF09EC0DFD1D60810E944E2E219660
:1028A000E5CF462F843038F4763028F4643018F4BD
:1028B000672F0C949D1390E080E0089580E10895C7
:1028C0008AE193E00895EF92FF920F931F93CF93C5
:1028D000DF93EC018A017C01E60EF71ECE018A51DE
:1028E0009F4FCE15DF0539F4DF91CF911F910F91E6
:1028F000FF90EF900895CA3123E0D20740F40E9480
:102900003A2EF80180830F5F1F4F2196E7CFF80121
:102910001082F9CFCF92DF92EF92FF920F931F9325
:10292000CF93DF937C016A018C01060F171FEC0126
:10293000CE018A519F4FC017D10749F4DF91CF9143
:102940001F910F91FF90EF90DF90CF900895CA31C3
:1029500023E0D20740F4FE01EE19FF09EC0DFD1D46
:1029600060810E944E2E2196E3CFCF93DF93C6EE77
:10297000D0E060E0CE010E944E2E2196C11584E089
:10298000D807B9F7DF91CF910895DF92EF92FF92C8
:102990000F931F93CF93DF9300D000D0CDB7DEB756
:1029A000F82E8FE08F1540F08FEF93E00E943A2EC3
:1029B00006EE10E08823C1F00F900F900F900F905B
:1029C000DF91CF911F910F91FF90EF90DF900895CD
:1029D000011584E0180781F3C8010E943A2E811185
:1029E00001C0FA940F5F1F4FF110F2CF19821A82C3
:1029F0001B821C82DD24D39478018FEFE81AF80A39
:102A0000C8010E943A2E89831A828823A9F29FEF77
:102A1000980F933078F48A83D9820E5F1F4FC701D5
:102A20000E943A2E8B83882339F2CE0101960E94B0
:102A30001706E2CF8701F9CFAF92BF92CF92DF9214
:102A4000EF92FF920F931F93CF93DF937C015B0173
:102A5000C42FD22FFC0182818823F9F040932A04ED
:102A60000E945123909329048093280480E28C0FC4
:102A7000883008F061C0C77081E001C0880FCA9536
:102A8000EAF7DF91CF911F910F91FF90EF90DF90C8
:102A9000CF90BF90AF900C94131910912A04141387
:102AA00040C080912804909129040E9469236C0100
:102AB000B701C5010E94F61DC816D90690F5C0E2FF
:102AC000CD0F1D17B9F080E2810F883040F41770E8
:102AD00081E001C0880F1A95EAF70E941A19C830E0
:102AE00048F481E09D2F977001C0880F9A95EAF70E
:102AF0000E941319802F0E940019C830E8F4D77083
:102B000081E001C0880FDA95EAF7DF91CF911F913C
:102B10000F91FF90EF90DF90CF90BF90AF900C940B
:102B20001A1980E28C0F883038F4C77081E001C038
:102B3000880FCA95EAF7E9CFDF91CF911F910F91E6
:102B4000FF90EF90DF90CF90BF90AF9008950F93DC
:102B50009C01CB01243F4CE5340759F1A8F4293DF1
:102B6000FCE53F0701F12A3D4CE53407D1F1283D52
:102B70003C4591F406E221EE41EE68ED7CE50E94D1
:102B80001C1580E00F910895263FFCE53F07E9F012
:102B9000B0F0273F3C45F9F0FC018281882339F1F0
:102BA00010922A04EFCF07E225EE45EE69ED7CE5B1
:102BB000E6CF06E221EE40EE64EF7CE5E0CF07E2EF
:102BC00025EE44EE65EF7CE5DACF06E221EE42EE3B
:102BD00066EF7CE5D4CF07E225EE46EE67EF7CE5B5
:102BE000CECF08E221E045EE6AED7CE5C8CF81E07A
:102BF000C9CFCF93DF93EC01FB018281882309F4D5
:102C000019C1C230FCE5DF07C0F1C6319CE5D90728
:102C100030F09E012B5F3C452930310570F50E9454
:102C2000C9219093610580936005C031ECE5DE0712
:102C300009F4CFC008F05BC0C8308CE5D80709F4B0
:102C4000B6C088F5C430ECE5DE0709F4A8C0C0F4CE
:102C5000C2308CE5D80709F49CC080916005826081
:102C6000C330DC4509F498C08091600590916105FE
:102C70000E94D7210E94801B80E0DF91CF910895B0
:102C8000809160058061C630ECE5DE0709F484C000
:102C9000809160058860C730DC4508F47DC0809174
:102CA0006005806279C0CC308CE5D80709F489C012
:102CB00070F4809160058C60CA30ECE5DE0709F4A1
:102CC0006BC008F478C0809160058E7F65C0CE30FF
:102CD0008CE5D80709F479C0809160058B7FCF30EF
:102CE000DC4508F459C0809160058F7E55C0CC3F0B
:102CF000ECE5DE0709F457C030F5C3318CE5D807A1
:102D000009F46FC078F4C131ECE5DE0709F465C061
:102D1000C231DC4509F0A8CF0E94801B809160057C
:102D20008F773AC0C5318CE5D80709F462C008F442
:102D300076C0809161058160CB3FDC4509F094CF7E
:102D40008093610591CFC115FDE5DF0709F44DC002
:102D500088F4809161058D7FCE3F9CE5D90781F392
:102D6000809161058E7FCF3FDC4550F380916105F6
:102D70008360E6CFC230FDE5DF0709F459C008F4EF
:102D800044C080E0C330DD4509F06ECF0E9455227B
:102D90006BCF8091600581608093600565CF8091E5
:102DA00060058460F9CF809161058260C9CF809110
:102DB00060058064F1CF0E94801B8091600580686F
:102DC000EBCF809160058D7FE7CF80916005877F95
:102DD000E3CF809160058F7DDFCF809160058F7B91
:102DE000DBCF80916005837FD7CF809161058C7F99
:102DF000A7CF8091600582FB992790F921E0922767
:102E000090FB82F990FB83F9C7CF80916105982FE1
:102E1000909591708E7F892B90FB81F991CF0E94C4
:102E2000801B90916005892F97FB87F98058B4CF5C
:102E300081E0ACCF81E021CFCF93DF93EB018631EE
:102E40009C4511F50E9401219A81992399F08A7A73
:102E500091E009F490E090932B04811109C089E27C
:102E60000E94DC200E944D2180E0DF91CF910895E7
:102E700085E3F6CF80912B04811104C089E20E9482
:102E8000E320F0CF85E3FBCF81E0EFCF90933104D7
:102E90008093300408958091300490913104089516
:102EA000E0913004F0913104309721F00190F081ED
:102EB000E02D099480E00895E0913004F091310410
:102EC000309799F020912D01222359F0209160052F
:102ED00027FF07C0DC012C9111962C93119725E058
:102EE0002C930280F381E02D0994089520912E0403
:102EF00030912F042817390771F090932F04809395
:102F00002E04E0913004F0913104309721F00680D6
:102F1000F781E02D0994089520912C0430912D041F
:102F20002817390771F090932D0480932C04E091B9
:102F30003004F0913104309721F00084F185E02DC8
:102F40000994089585B7806885BF85B7806885BF77
:102F50000895089508950C94A91708950C94AD1739
:102F60000E94A2170E94AA170C94AB1781E0089543
:102F70000C94B617089508950E9448230E940D09E5
:102F80000E9414120E94D6230E9429100C94AE179E
:102F9000BF92CF92DF92EF92FF920F931F93CF9346
:102FA000DF93CDB7DEB72A970FB6F894DEBF0FBE1A
:102FB000CDBF0E94BA170E94BB170E943B090E9416
:102FC000B817882309F45EC083E3C82E84E0D82EA6
:102FD00010E000E0B02E802F0E94EB08E82EF601F2
:102FE000F1906F01F81609F447C08091AE0481FD9D
:102FF0000E94F1089F2D9E2580E0FF24F394292F45
:103000002F21B1F18E83BF82EF2081E009F480E0AF
:1030100088870E9451238160782F9A8789874E8103
:103020005F8168858A850E946318F801ED5CFB4F1B
:103030008081F826F0820E9464100E9450179091BF
:103040003204891781F10E945017809332042A9626
:103050000FB6F894DEBF0FBECDBFDF91CF911F91A9
:103060000F91FF90EF90DF90CF90BF900C94EB0604
:103070008F5FFF0C843019F60F5F1F4F063011056C
:1030800009F0A8CF8FEF89838A831B820E94512386
:103090008160782F9D838C8349815A816B818D81DA
:1030A0000E946318C8CF2A960FB6F894DEBF0FBEF1
:1030B000CDBFDF91CF911F910F91FF90EF90DF90E7
:1030C000CF90BF900895CF93DF93CDB7DEB72B9706
:1030D0000FB6F894DEBF0FBECDBF4F835887698708
:1030E0007A878B871E821D8285E0FE013796DE017E
:1030F000119601900D928A95E1F749815A816B8171
:103100007C818D819E812B960FB6F894DEBF0FBE19
:10311000CDBFDF91CF910C94F91DFC01808191818D
:103120000C94AE20CF93C82F882309F43FC08CEFB6
:103130008C0F813AA0F46C2F809121019091220193
:103140000E946E22882329F08C2F0E94E3200E9487
:103150004D218C2F0E94DC20CF910C944D2180E2D8
:103160008C0F883048F4C77081E001C0880FCA9581
:10317000EAF70E940421F0CFEBE5EC0FE33040F4D6
:10318000F0E0EE55FD4F808190E0CF910C947617E2
:10319000C85AC73158F4EC2FF0E0EE0FFF1FEC587F
:1031A000FD4F80819181CF910C948C17CF91089520
:1031B000882329F19CEF980F913A20F40E94E32094
:1031C0000C944D2190E2980F983050F4877091E064
:1031D00001C0990F8A95EAF7892F0E940A21F0CF42
:1031E0009BE5980F933020F490E080E00C947617E4
:1031F000885A873120F490E080E00C948C17089571
:10320000CF93C82F0E949218C93349F42FEF83EF50
:1032100091E0215080409040E1F700C000008C2FE9
:10322000CF910C94D818882321F00E9404210C948B
:103230004D210895882321F00E940A210C944D21EC
:103240000895BF92CF92DF92EF92FF920F931F9358
:10325000CF93DF936C01D62FC72FFC010581029518
:103260000F70128111110E9421210E94FA20E82E74
:10327000882391F01123D1F08C2F807F803421F0AE
:1032800080E28D0F883090F082E00E9498210E94A9
:10329000FA2091E0E82EE926BC2EB2949FE0B922F4
:1032A000EB2DF0E0EF5FF04D0C94012BE12CF4CF0F
:1032B0000C2F0F70C07F11F00295007F1123A9F031
:1032C000002359F080E28D0F883010F0D11109C031
:1032D000802F0E9404210E944D218D2F0E94921860
:1032E00014C0802F0E941421F6CF8D2F0E94D81871
:1032F000002359F080E28D0F883010F0D1112CC0DE
:10330000802F0E940A210E944D212B2D2850330B23
:103310002430310520F40E9450170E94EB06EE2065
:1033200009F493C10E94F62080FD8FC1F60112823C
:103330000E94F0200E947D1FC6010E94461B0E9431
:10334000F020DF91CF911F910F91FF90EF90DF90D0
:10335000CF90BF900C949E1F802F0E941A21D3CF34
:10336000FC2FFF70FF2EC07FC03219F0F29480EF67
:10337000F822DD2369F0D13049F1112391F10023C6
:1033800051F1F601858180FFA8CF8F70858323C01E
:10339000112381F0011106C00E9434218F290E945F
:1033A0001319B3CF0130C1F70E9434218F290E9435
:1033B0003A21ABCF011106C00E9443218F2D0E94FC
:1033C0001A19A3CF013009F4A0CFF6CF112329F0A9
:1033D000063008F09ACF8F2DE2CF053008F095CF58
:1033E000EDCF002359F3D93349F4FFEF23EF31E058
:1033F000F15020403040E1F700C000008D2F0E94C6
:10340000D81883CF8C2F86958695837069F081308C
:1034100009F07BCF8D2F9C2F9370111102C090E08B
:1034200080E00E948C1771CF8D2F9C2F937011110B
:1034300002C090E080E00E94761767CF8C2F8370E7
:1034400009F041C0111161CF4D2F4295469547704B
:10345000440F440F0D2F0F7010E030E020E0042ED9
:1034600004C0000F111F221F331F0A94D2F760E01F
:1034700070E0CB01D4FF0FC06FE070E080E090E01F
:1034800004C0660F771F881F991F4A95D2F7609571
:10349000709580959095C695C695C370602B712BDD
:1034A000822B932BC23049F058F4C13019F00E949E
:1034B0002F1F2BCF0E941D1F28CF0E94411F25CFF9
:1034C0000E941B1F22CF8695112311F08C2F817033
:1034D000882309F41ACF4D2F429546954770440F23
:1034E000440F0D2F0F7010E030E020E0042E04C0D8
:1034F000000F111F221F331F0A94D2F760E070E003
:10350000CB01D4FF0FC06FE070E080E090E004C01A
:10351000660F771F881F991F4A95D2F7609570959F
:1035200080959095C695C695C370602B712B822BA4
:10353000932BC23049F058F4C13019F00E94F41FA7
:10354000E4CE0E94E21FE1CE0E940620DECE0E9461
:10355000571FDBCECF70112329F08C2F0E947D1FC7
:103560008D2F1DCF8D2F0E941A198C2F0E949E1F08
:10357000CCCED23F89F160F4D03FC9F0D13F29F1E0
:10358000112309F442C00111A8CE8C2F8F7121C0E4
:10359000D33F39F1D43FA1F7112369F1CF718C2FBB
:1035A0000E947D1F63E08C2F0E948321AECE1123E9
:1035B00041F0053008F0A9CE8C2F8F710E94C11FF9
:1035C000A4CE063008F0A1CEF7CF8C2F8F71112337
:1035D00069F20E947D1F99CE8C2F8F711123C9F340
:1035E000C5CF112329F08C2F8F710E94681F8DCEBB
:1035F0000E94631F8ACE81E00E949821023008F465
:1036000084CE82E00E94982180CE002359F0D933E5
:1036100009F0F4CE8FEF93EFE1E081509040E0406D
:10362000E1F7EACE8C2F8F71A1CF4C2F4F706D2F09
:10363000C6010E94F3060E94931E67CE4C2F4F7066
:103640006D2FC6010E94F60660CEDF91CF911F91CB
:103650000F91FF90EF90DF90CF90BF9008950F9360
:103660001F93CF93DF93EC01688179818A810E9457
:10367000B8208C010E9418200E941A1FB801CE01A8
:10368000DF91CF911F910F910C942119CF93DF936C
:10369000EC018B819C81892B29F088819981892378
:1036A0008F3F59F4DF91CF910895CE010E942F1BD7
:1036B000CE01DF91CF910C945805CE010E949C065B
:1036C0008111F3CF0E94FA20882361F38A81882335
:1036D00049F382E0DF91CF910C9498210E9421213F
:1036E0000E9431210E944D2190E080E00E947617D7
:1036F00090E080E00C948C170E94EA200C946E1BE2
:103700000E9411210C947C1BE92FE295EF70E2508E
:10371000EE3070F4F0E0EF5EF04D0C94012B803F42
:1037200019F020F4883E20F481E00895843FE1F30D
:1037300080E00895883EC0F3813FD1F7F5CF93FB39
:10374000882780F908950E94AE200C94841BCF93A3
:10375000DF9300D000D00F92CDB7DEB70F900F905F
:103760000F900F900F90DF91CF910895CF93DF933B
:1037700000D000D000D0CDB7DEB726960FB6F894B3
:10378000DEBF0FBECDBFDF91CF9108951F93CF93C2
:10379000DF93C0913A0416E080913B048C1304C07F
:1037A000DF91CF911F910895D0E01C9FF0011D9FE4
:1037B000F00D1124E45CFB4F4081518162817381E3
:1037C000848195810E94B61B2196C770E5CF4091F8
:1037D0006C0450916D0460916E0470916F0480913F
:1037E0007004909171040C94B61B1F93CF93DF93D8
:1037F00080917104807FA9F480916E04882389F000
:1038000080913A04C0913B0460916C0470916D0406
:10381000A0916F04B0917004D62FD72316E0C8137F
:1038200004C0DF91CF911F91089590E0109711F09F
:10383000DF3F19F401968770F2CF189F9001199F0E
:10384000300D1124F901E45CFB4F41814713F2CFA5
:1038500040814613EFCF42814111ECCF4381548127
:103860004A1B5B0B483C510528F7809171048F700F
:10387000806180937104F901EF5BFB4F80818F7051
:10388000806180838CE694E00E94461BDF91CF919B
:103890001F910C94C61BAF92BF92CF92DF92EF9212
:1038A000FF920F931F93CF93DF93CDB7DEB761974E
:1038B0000FB6F894DEBF0FBECDBF8C0185E0F801D6
:1038C000DE011D9601900D928A95E1F7F801408185
:1038D0005181E2808CE6C82E84E0D82E60916F047E
:1038E000709170046115710509F461C190916C04C7
:1038F00020916D04892F82238F3F09F458C1A38042
:10390000B480F0906E04F501E61BF70BFF2009F47C
:10391000FCC080917104382F307FE83CF10508F03D
:10392000B2C0311179C0FE2C251323C0941321C0DD
:10393000E1101FC08F708061809371040E94E71BAB
:10394000C6010E94461B80917104F80185838F2D6A
:1039500061960FB6F894DEBF0FBECDBFDF91CF9159
:103960001F910F91FF90EF90DF90CF90BF90AF909D
:103970000895AB2829F0842F85238F3F09F033C1A8
:1039800080E0F82FF170DF2E80FF3CC080913A0478
:1039900020913B0436E0821315C04D875E878D85EC
:1039A0009E850E94AE20292F22952F702230F0F0A4
:1039B000243018F59F70F1F0F8019581907FD1F4D3
:1039C000D12C1EC090E0389FF001399FF00D1124DA
:1039D000E45CFB4F6181651306C06081641303C022
:1039E00062816E110FC001968770D5CF9F7011F064
:1039F000882331F3805E883018F3C8010E94461B8B
:103A0000FD2CA5CFEE2009F4A2CF80917104816036
:103A100080937104F12C9BCF251306C0941304C02E
:103A2000F801EE2009F48DC04D875E878D859E8557
:103A30000E94A31B882319F1EE2009F180917104E3
:103A4000803270F020916C0430916D0438872F83A0
:103A50001986BB86AA868C87CE0107960E94461BD4
:103A600086E0F801ACE6B4E001900D928A95E1F7AA
:103A70000E94F51B0E94E71BFF24F39468CFC80146
:103A80000E94461BF9CF311113C07A2DB98AA88A3A
:103A90006E2D89890E94A71B8CE694E00E94461B2C
:103AA00086E0F60111928A95E9F70E94E71BB2CFF2
:103AB00025130FC094130DC0E1100BC0F8018583CE
:103AC000C8010E94461B86E0F60111928A95E9F72B
:103AD0003ECF4D875E878D859E850E94A31B8823E0
:103AE00071F2EE2061F280917104803208F4B8CF57
:103AF00020916C0430916D043A8329831B82BD822E
:103B0000AC828E83CE010196A9CFE83CF10508F086
:103B100041C0FE2CEE2009F4B2CF25132AC0941325
:103B200028C08091710480FD1BC0982F907FC1F048
:103B3000F8018583903F31F0982F907F905F8F70D0
:103B4000892B8583C8010E94461B86E0F801ACE6FC
:103B5000B4E001900D928A95E1F70E94E71BF7CE41
:103B600086E0F801ACE6B4E001900D928A95E1F7A9
:103B7000EECE4D875E878D859E850E94A31B8111A9
:103B80006FCF80917104816080937104C8010E949D
:103B9000461BDDCE7A2DB98AA88A6E2D89890E94AE
:103BA000A71B86E0F60111928A95E9F7D6CFEE20A1
:103BB00009F465CF4D875E878D859E850E94A31B86
:103BC000F82E882309F45BCF86E0F801ACE6B4E078
:103BD00001900D928A95E1F78CE694E00E948D1891
:103BE0000E94F51BBACF81E08E25CBCE88EC90E009
:103BF00008951F93CF93DF93CDB7DEB72C970FB601
:103C0000F894DEBF0FBECDBF4F83588769877A8790
:103C10008B879C87CE0107960E944B1C882369F0F6
:103C20008A859B85892B39F04F815885842F852380
:103C30008F3F09F071C016E05FC086E0FE01379645
:103C4000DE01119601900D928A95E1F78A859B8598
:103C5000892B89F38F81988589238F3F61F3209188
:103C60003B0430E0C90101968770992740913A04DE
:103C70004817190671F40E94801B10923B041092A1
:103C80003A0486E0ECE6F4E0DF011D928A95E9F75C
:103C9000D2CF96E0929FD001939FB00D1124A45CE7
:103CA000BB4FFE01319601900D929A95E1F78093FA
:103CB0003B040E94C61BBFCF819FC0011124845CBE
:103CC0009B4F0E944B1C8823E9F0E0913A041E9F11
:103CD000F0011124E45CFB4F4081518162817381CA
:103CE000848195810E94B61B80913A0490E00196F0
:103CF0008770992780933A0480913A0490913B040D
:103D00008913DACF2C960FB6F894DEBF0FBECDBF65
:103D1000DF91CF911F91089569857A858B859C8568
:103D20000E94B61B88CFEF92FF920F931F93CF9301
:103D3000DF938C01892B81F0F12CEE24E394E801D0
:103D40002196F8018491843770F4843008F05FC0C4
:103D50008130B1F08230A1F1DF91CF911F910F91AD
:103D6000FF90EF900895853709F44CC008F43DC0EA
:103D70009CE7980F903780F78F770E94D81849C03A
:103D80000E5F1F4FFE01849190E2980F983060F40F
:103D90008770FE2D01C0FF0F8A95EAF78F2F0E94D2
:103DA00024210E944D2102C00E9492188F2D815023
:103DB00030F2EFECF7E03197F1F700C00000F7CFF9
:103DC0000E5F1F4FFE01849190E2980F983050F4DF
:103DD0008770FE2D01C0FF0F8A95EAF78F2F0E9492
:103DE0002A21DFCF0E94D818E1CF0E5F1F4FFE01BE
:103DF000C491C150D8F28FEC97E00197F1F700C061
:103E00000000F7CF0E5F1F4FFE01F490CFCF0E944E
:103E100092188E01CBCF08950C940B1F0E940C1F9B
:103E2000609385047093860480938704909388043C
:103E30000C946E1B08950C940E1F0F931F9300910A
:103E40008504109186042091870430918804602BAA
:103E5000712B822B932B1F910F910C940E1F0F939C
:103E60001F9300918504109186042091870430915E
:103E7000880460237123822393231F910F910C9454
:103E80000E1F0F931F9300918504109186042091BB
:103E900087043091880460277127822793271F9118
:103EA0000F910C940E1F0C940B1F0C94531F0E9427
:103EB000551F6093810470938204809383049093D0
:103EC00084040C946E1B60E070E0CB010C94571FCF
:103ED0000F931F9341E050E060E070E08A019B0186
:103EE00004C0000F111F221F331F8A95D2F7C9018A
:103EF000B8011F910F910C94571F0F931F9341E02E
:103F000050E060E070E004C0440F551F661F771F4B
:103F10008A95D2F78091810490918204A0918304C4
:103F2000B09184048A019B01082B192B2A2B3B2B6F
:103F3000C901B8011F910F910C94571F0F931F9344
:103F400041E050E060E070E004C0440F551F661F80
:103F5000771F8A95D2F7CB01BA016095709580954D
:103F600090950091810410918204209183043091F6
:103F7000840460237123822393231F910F910C9457
:103F8000571F0F931F9341E050E060E070E004C0C2
:103F9000440F551F661F771F8A95D2F780918104C1
:103FA00090918204A0918304B09184048A019B01C2
:103FB000082719272A273B27C901B8011F910F910C
:103FC0000C94571F0F931F9300918104109182044A
:103FD0002091830430918404602B712B822B932BCE
:103FE0001F910F910C94571F0F931F930091810401
:103FF0001091820420918304309184046023712302
:10400000822393231F910F910C94571F0F931F939B
:1040100000918104109182042091830430918404E2
:1040200060277127822793271F910F910C94571FA8
:104030000895990F990F890F982F977041E001C04B
:10404000440F9A95EAF786958695869595E0899F1F
:10405000F0011124EE58FB4F30E020E070E0519168
:10406000DF011197CB01022E02C0969587950A9425
:10407000E2F7817081958527842385278C932F5FB4
:104080003F4F2530310559F70895990F990F890F42
:10409000982F977086958695869525E0829FF001EA
:1040A0001124EE58FB4F50E040E080E0219130E0D9
:1040B000092E02C0369527950A94E2F7217033271E
:1040C000042E01C0220F0A94EAF7822B4F5F5F4F44
:1040D0004530510559F70895BF92CF92DF92EF9284
:1040E000FF920F931F93CF93DF938C01C0908104B5
:1040F000D0908204E0908304F09084048091850441
:1041000090918604A0918704B0918804C82AD92A86
:10411000EA2AFB2ACFE1D0E0BC2ED701C6010C2E43
:1041200004C0B695A795979587950A94D2F780FD18
:104130000EC0219788F7B12C8B2DDF91CF911F9165
:104140000F91FF90EF90DF90CF90BF900895B8014E
:104150008C2F0E94FF06019761F3EECFCF93DF9380
:10416000EC010E946C20BE01DF91CF910C94FF0600
:104170001F93CF93DF93EB0190913904992331F092
:10418000CB01DF91CF911F910C94AE20882379F061
:10419000CB010E946C20182F682FCE010E9419209D
:1041A000BE01812FDF91CF911F910C94FF06CB01AF
:1041B0000E944520182FF4CF682F80912101909103
:1041C00022010C94EE22682F80912101909122010E
:1041D0000C94F92280912101909122010C940423E6
:1041E00080918904859585958595089580918904A8
:1041F0008770089590918904977081E009F480E0B8
:1042000008958091AD0408959091AD04892B809319
:10421000AD04089580959091AD0498239093AD04DA
:1042200008951092AD0408959091AC04892B809369
:10423000AC04089580959091AC0498239093AC04BD
:1042400008951092AC0408959091AB04892B80934B
:10425000AB04089580959091AB0498239093AB04A0
:1042600008951092AB04089580918A0408950895EA
:104270000C94372190918A04981721F080938A0436
:104280000C943821089580918A04882329F0109293
:104290008A0480E00C9438210895E0912101F09186
:1042A00022018091AD048083E0912101F0912201EF
:1042B00080819091AC04892B8083E0912101F09161
:1042C000220180819091AB04892B808390918A0494
:1042D000992381F0E0912101F09122018081892BC5
:1042E000808380912101909122010E945A228111A4
:1042F0000E94432180912101909122010C945C172E
:1043000008950C94802198E0899F90011124622BDC
:10431000609389040E947D1F80918904859585950D
:1043200085950C9481211092890480E00C94812160
:10433000909189048095892380938904282F277080
:1043400071F4282F082E000C330B9217130639F046
:104350008595859585950E949E1F0C9493210895BF
:104360006FEF7FEF90E080E00C946C2E90E080E0A7
:104370000E94482E21E08C3E9E4F09F020E0822FC3
:10438000089582E090E00C943A2E83E090E00C9443
:104390003A2ECF9384E090E00E943A2EC82F81E21B
:1043A00090E00E943A2E982F8C2FCF910895CF93B2
:1043B000C92F682F84E090E00E944E2E6C2F81E27E
:1043C00090E0CF910C944E2EAB01BC018FE090E0B9
:1043D0000C94602EAB01BC0183E190E00C94602E44
:1043E00060E070E0CB010C94EA216CEE7EEF90E08F
:1043F00080E00E946C2E60E082E090E00E944E2EF1
:1044000060E083E090E00E944E2E109285041092AE
:104410008604109287041092880460E084E090E0A3
:104420000E944E2E60E081E290E00E944E2E60E0FD
:1044300085E090E00E944E2E60E086E090E00E94D1
:104440004E2E6FEF87E090E00E944E2E40E050E04D
:10445000BA0188E090E00E94602E60E08DE090E07C
:104460000E944E2E40E050E0BA0188E190E00E94A8
:10447000602E60E087E190E00E944E2E40E050E028
:10448000BA018CE190E00E94602E60E080E290E052
:104490000E944E2E40E050E0BA0188E190E00E9478
:1044A000602E0C9402050C94F521682F8EE090E0AC
:1044B0000C944E2EFC01329680912D01882321F020
:1044C000809160059EE187FF96E080E0915008F4BE
:1044D000089521912223D1F38F5FF8CF662301F154
:1044E00020912D012223F1F02091600527FF1AC0B1
:1044F000462F4695469546954E3190F4677021E0DB
:1045000030E002C0220F331F6A95E2F7840F911D3D
:10451000FC01828190E02823392381E0232B69F478
:1045200080E00895FC01329608962191261721F02B
:10453000E817F907D1F7F4CF81E008959C01FC0159
:1045400032969FEF80E04191461751F09F3F19F45A
:10455000411101C0982F8F5F8630A9F79F3F09F462
:104560000895290F311D97FD3A95F9016283089549
:10457000FC01329608962191261303C0DF011197A2
:104580001C92E817F907B9F70895E62FE695E69526
:10459000E695EE3168F4E80FF92FF11D677021E020
:1045A00030E001C0220F6A95EAF78281822B828374
:1045B0000895E62FE695E695E695EE3170F4E80F5E
:1045C000F92FF11D677021E030E001C0220F6A95DC
:1045D000EAF72095828128232283089520912D01D6
:1045E000222329F02091600527FD0C94C5220C940C
:1045F0009E2220912D01222329F02091600527FD84
:104600000C94D9220C94B822FC01329680912D0191
:10461000882351F08091600587FF06C08EE1DF019D
:104620001D928A95E9F7089586E0F9CF08950C94D4
:1046300016230E94801B0E9450170E94EB060C94C8
:1046400017231F921FB61F9211248F939F93AF932E
:10465000BF938091AF04811113C080915C0590914C
:104660005D05A0915E05B0915F054196A11DB11D4C
:1046700080935C0590935D05A0935E05B0935F0504
:10468000BF91AF919F918F911F901FBE1F90189562
:1046900082E084BD93E095BD9DE797BD80936E0059
:1046A00008952FB7F89480915C0590915D05A091D5
:1046B0005E05B0915F052FBF08952FB7F894609104
:1046C0005C0570915D0580915E0590915F052FBF3F
:1046D00008959C014FB7F89480915C0590915D0519
:1046E000A0915E05B0915F054FBF821B930B0895AB
:1046F00078941F921FB61F9211248F939F93AF93AC
:10470000BF9380915C0590915D05A0915E05B0918D
:104710005F050196A11DB11D80935C0590935D0519
:10472000A0935E05B0935F05BF91AF919F918F916C
:104730001F901FBE1F90189581E08093E00080E2DB
:104740008093D8001092C9008FE097E20197F1F7AB
:1047500000C0000087E090EBDC0180936F05909330
:104760007005A0937105B093720588E19CE00FB6C7
:10477000F894A895809360000FBE90936000FFCFDF
:104780000C9401120E943B098FE19EE40197F1F71E
:1047900000C000000E943B0980E00E94EB0880FFFF
:1047A00004C00E94C0230C949C2308950E94B6214B
:1047B000811102C00E9453220E94C1218093AE0445
:1047C0000E94C92190936105809360050E94C521D4
:1047D000682F70E090E080E00E941B1F60918104D0
:1047E0007091820480918304909184040C94551FED
:1047F0008091D00408950895CF93DF9300D00F9255
:10480000CDB7DEB790916605943011F589837B832F
:104810006A839093E9008FEF9091E800815095FDB5
:1048200006C09AE69A95F1F700C08111F5CF809104
:10483000E80085FF0DC050E040E063E070E0CE018D
:1048400001960E94DB258091E8008E778093E80036
:104850000F900F900F90DF91CF910895BC0184E0ED
:104860000C94FC23BC0183E00C94FC23CF93DF93D6
:10487000EC0180912D018823B1F18091600587FFC3
:1048800032C060E284E08093E9008FEF9091E8000D
:10489000815095FD06C09AE69A95F1F700C0811106
:1048A000F5CF8091E80085FF1BC080912D0170E05D
:1048B00050E040E0811104C050E040E068E070E06A
:1048C000CE010E94DB258091E8008E778093E8007E
:1048D00080E2FE01A0EBB4E001900D928A95E1F731
:1048E000DF91CF91089568E081E0CDCFCF93FC01B7
:1048F000603221F580916605843001F5C091E900B0
:10490000CF702091EC00922F917020FD90E8C92B80
:1049100082E08093E9008091E80080FF0CC050E0C5
:1049200040E060E270E0CF010E94DB258091E8006A
:104930008E778093E800CF70C093E900CF910895FF
:1049400080916505811109C00E94BA270E9417282D
:104950008091E20084608093E200089510926505E2
:104960000895089508950C94192342E061EC81E0C4
:104970000E94362742E261EC84E00E94362742E240
:1049800061EC82E00E94362742E260EC83E00C9406
:10499000362780916805833009F461C030F4813096
:1049A000D1F1823009F49DC008958A3009F489C09C
:1049B0008B3009F46FC0893009F050C080916705D1
:1049C000813209F04BC080916B0590916C05009786
:1049D00019F0029709F042C08091E800877F809328
:1049E000E8008091E80082FF35C09091F30080914B
:1049F000F200029729F48091F1008B7F813021F43D
:104A00008091F1008093D0048091E8008B778093AF
:104A1000E8000C946A2780916705813AF9F4809147
:104A2000E800877F8093E80080916B0590916C058A
:104A3000892B61F460E280EB94E070E00E947926BB
:104A40008091E8008B778093E800089560E090E023
:104A500080E0F3CF809166058111C3CF08958091E6
:104A60006705813AD9F780916B0590916C05892B88
:104A7000A9F78091E800877F8093E8008091E800A3
:104A800080FFFCCF80912D018093F1008091E800A0
:104A90008E77BDCF80916705813201F780916B05DC
:104AA00090916C05892BD1F68091E800877F8093E7
:104AB000E8000E946A278091690580932D010C947B
:104AC000801B80916705813249F68091E800877FDD
:104AD0008093E8000E946A2780916A058093D10440
:104AE000089580916705813A09F0B8CF8091E80078
:104AF000877F8093E8008091E80080FFFCCF809161
:104B0000D104C2CF0C948425292F332723303105BB
:104B100021F168F42130310509F443C02230310518
:104B200009F444C090E080E030E020E026C021326B
:104B3000310551F122323105A9F76330710590F743
:104B4000FB01EE0FFF1FE855FD4F208131816B55B2
:104B50007D4FFB01808190E010C099278130910545
:104B600081F0009729F00297E9F6E6E2F4E002C04E
:104B7000ECE4F4E0849190E09F01FA01318320831A
:104B80000895EAE3F4E0F6CF6330710558F6660F56
:104B9000771FFB01E255FD4F2081318189E090E0D4
:104BA000ECCF82E190E02BEA34E0E7CF8BE590E0B8
:104BB00020E534E0E2CFAF92BF92CF92DF92FF9236
:104BC0000F931F93CF93DF936C01EB018A010E9437
:104BD0008927F82E811123C00115110539F0F8013C
:104BE00080819181C81BD90BC80ED91EB12CA12C74
:104BF0002097A9F08091E80085FD22C08091E8000F
:104C00008E778093E80001151105A1F0F8018081ED
:104C10009181A80EB91EB182A08285E0F82E8F2D59
:104C2000DF91CF911F910F91FF90DF90CF90BF90B8
:104C3000AF9008950E9489278823D1F2F82EEFCFF4
:104C4000F60181916F018093F1002197FFEFAF1A78
:104C5000BF0ACECFAF92BF92CF92DF92FF920F9357
:104C60001F93CF93DF936C01EB018A010E94892788
:104C7000F82E811123C00115110539F0F80180814A
:104C80009181C81BD90BC80ED91EB12CA12C20971D
:104C9000A9F08091E80085FD22C08091E8008B7723
:104CA0008093E80001151105A1F0F8018081918140
:104CB000A80EB91EB182A08285E0F82E8F2DDF915B
:104CC000CF911F910F91FF90DF90CF90BF90AF9049
:104CD00008950E9489278823D1F2F82EEFCF809182
:104CE000F100F60181936F012197FFEFAF1ABF0A20
:104CF000CECFFC0180916D0590916E0586179707C8
:104D0000A0F06115710529F49091E8009E779093C9
:104D1000E80090E06115710551F4911108C080918F
:104D2000E80082FF34C080E00895BC01F2CF80919A
:104D300066058823C1F18530C1F18091E80083FDCB
:104D400030C08091E80082FDEACF8091E80080FFCA
:104D5000E1CF8091F3002091F200382F61157105A9
:104D600019F02830310558F091E02830310509F06C
:104D700090E02091E8002E772093E800CBCF81913E
:104D80008093F100615071092F5F3F4FE7CF809111
:104D90006605882341F0853041F08091E80083FF6B
:104DA000BECF81E0089582E0089583E00895FC017C
:104DB00080916D0590916E0586179707A0F061159B
:104DC000710529F48091E8008E778093E80090E0E7
:104DD0006115710551F4911108C08091E80082FFBE
:104DE00035C080E00895BC01F2CF8091660588232C
:104DF000C9F18530C9F18091E80083FD31C080910F
:104E0000E80082FDEACF8091E80080FFE1CF809149
:104E1000F3002091F200382F6115710519F0283048
:104E2000310558F091E02830310509F090E080918B
:104E3000E8008E778093E800CBCF84918093F100D7
:104E40003196615071092F5F3F4FE6CF8091660523
:104E5000882341F0853041F08091E80083FFBDCF89
:104E600081E0089582E0089583E00895982F9730B7
:104E700028F08F708093E90081E008959093E90015
:104E8000242F762F50E0981731F07091EC0020918C
:104E9000ED005091F00021FD02C09F5FE8CF3091FE
:104EA000EB003E7F3093EB003091ED003D7F30937F
:104EB000ED003091EB0031603093EB007093EC002B
:104EC0002093ED005093F0002091EE0027FDE5CFF8
:104ED00080E008958091670587FF13C08091E80006
:104EE00082FF06C08091E8008B778093E80004C0C1
:104EF000809166058111F2CF08958091660588231F
:104F0000D9F38091E80080FFF8CF8091E8008E7798
:104F1000ECCF2091E4003091E50095E6A9012091C5
:104F2000EC00822F817020FF06C08091E80080FF96
:104F300006C080E008952091E80022FD1AC080910B
:104F40006605882389F0853089F08091EB0085FD26
:104F50000FC02091E4003091E50042175307F9F2A9
:104F60009150E1F684E0089582E0089583E0089589
:104F700081E008950E9428280E943028E0EEF0E0A9
:104F8000808181608083E8EDF0E080818F7780838D
:104F900019BCA7EDB0E08C918E7F8C9380818F7EC1
:104FA00080831092650508950F931F93CF93DF932D
:104FB0000E9428280E943028C8EDD0E088818F7791
:104FC000888388818068888388818F7D888319BCE5
:104FD00010926605109262051092640510926305A6
:104FE00000EE10E0F80180818B7F808388818160F2
:104FF000888342E060E080E00E943627E1EEF0E046
:1050000080818E7F8083E2EEF0E08081816080830A
:10501000808188608083F80180818E7F8083888191
:1050200080618883DF91CF911F910F910895E8ED02
:10503000F0E080818F7E8083E7EDF0E08081816009
:10504000808384E082BF81E0809365050C94D4273F
:10505000E8EDF0E080818E7F80831092E200089579
:105060001092DA001092E10008951F920F920FB68D
:105070000F9211242F933F934F935F936F937F93DE
:105080008F939F93AF93BF93EF93FF938091E10032
:1050900082FF0BC08091E20082FF07C08091E10097
:1050A0008B7F8093E1000E949C2A8091DA0080FF30
:1050B00018C08091D80080FF14C08091DA008E7FE4
:1050C0008093DA008091D90019BC80FF93C082E000
:1050D00089BD09B400FEFDCF81E0809366050E9482
:1050E000A0248091E10080FF19C08091E20080FF40
:1050F00015C08091E2008E7F8093E2008091E200F3
:1051000080618093E2008091D80080628093D80013
:1051100019BC85E0809366050E94B2248091E1006D
:1051200084FF2AC08091E20084FF26C019BC82E07F
:1051300089BD89B5982F917080FFFBCF8091D800F1
:105140008F7D8093D8008091E1008F7E8093E10075
:105150008091E2008F7E8093E2008091E200816086
:105160008093E20080916205882309F448C084E0BE
:10517000809366050E94B3248091E10083FF29C0DB
:105180008091E20083FF25C08091E100877F8093BA
:10519000E10082E080936605109262058091E10053
:1051A0008E7F8093E1008091E2008E7F8093E20009
:1051B0008091E20080618093E20042E060E080E064
:1051C0000E9436278091F00088608093F0000E9452
:1051D000B124FF91EF91BF91AF919F918F917F91FA
:1051E0006F915F914F913F912F910F900FBE0F9054
:1051F0001F901895109266050E94AE2472CF809180
:10520000E30087FD93E090936605B4CF1F920F9261
:105210000FB60F9211242F933F934F935F936F9389
:105220007F938F939F93AF93BF93CF93DF93EF932E
:10523000FF93D091E900DF708091EC00C82FC1701E
:1052400080FDC0E81092E9008091F000877F809394
:10525000F00078940E944A291092E9008091F000B1
:1052600088608093F000CD2BCF70C093E900FF9150
:10527000EF91DF91CF91BF91AF919F918F917F91EE
:105280006F915F914F913F912F910F900FBE0F90B3
:105290001F9018951F93CF93DF93CDB7DEB7AA97D2
:1052A0000FB6F894DEBF0FBECDBF87E695E0209124
:1052B000F100FC012193CF01F5E08F369F07B9F78C
:1052C0000E94C9248091E80083FF1EC18091670578
:1052D000909168059A3008F017C1E92FF0E0E15E7F
:1052E000F04D0C94012B803899F0823809F00CC1F4
:1052F00080916B058F70873008F006C18093E900BC
:105300008091EB0085FB882780F91092E90006C0A8
:105310008091630590916405911182609091E800FD
:10532000977F9093E8008093F1001092F1008091B4
:10533000E8008E77E5C0882309F4D3C0823009F0F5
:10534000E3C0809169058111D6C080916B058F7093
:105350002FEF280F263008F0D7C08093E900209166
:10536000EB0020FFC8C0933031F48091EB008062E5
:105370008093EB00C0C09091EB0090619093EB00A4
:1053800021E030E001C0220F8A95EAF72093EA007D
:105390001092EA008091EB008860EACF8111B4C0DE
:1053A000109169051F778091E3008078812B8093AD
:1053B000E3008091E800877F8093E8000E946A27DD
:1053C0008091E80080FFFCCF8091E30080688093AB
:1053D000E30082E0111183E08093660595C0805858
:1053E000823008F091C08091690590916A058C3DEA
:1053F00023E09207A1F583E08A838AE289834FB78D
:10540000F894DE01139620E03EE051E2E32FF0E055
:1054100050935700E49120FF03C0E295EF703F5F87
:10542000EF708E2F90E0EA30C0F0C7968D939D9379
:105430002F5F243159F74FBF8091E800877F809319
:10544000E8006AE270E0CE0101960E947926809120
:10545000E8008B778093E80057C0C096E7CF609153
:105460006B0570916C05AE014F5F5F4F0E94822506
:10547000BC01892B09F448C09091E800977F909374
:10548000E80089819A810E94D726E1CF8038E1F532
:105490008091E800877F8093E80080916205809387
:1054A000F10045CF811130C090916905923060F5CF
:1054B0008091E800877F8093E800909362050E94C6
:1054C0006A2780916205882311F084E005C08091ED
:1054D000E30087FDFACF81E0809366050E94B52442
:1054E00013C080916905813079F481E0933009F02F
:1054F00080E0809364051092E9008091E800877F46
:105500008093E8000E946A278091E80083FF0AC028
:105510008091E800877F8093E8008091EB008062B3
:105520008093EB00AA960FB6F894DEBF0FBECDBFF6
:10553000DF91CF911F9108950895991B79E004C0E0
:10554000991F961708F0961B881F7A95C9F78095C2
:10555000089587FB082E062687FD819567FD6195D6
:105560000E949D2A0EF4919507FC81950895AA1B2F
:10557000BB1B51E107C0AA1FBB1FA617B70710F03E
:10558000A61BB70B881F991F5A95A9F78095909570
:10559000BC01CD01089597FB072E16F4009407D0A7
:1055A00077FD09D00E94B72A07FC05D03EF49095FC
:1055B00081959F4F0895709561957F4F0895A1E261
:1055C0001A2EAA1BBB1BFD010DC0AA1FBB1FEE1F7D
:1055D000FF1FA217B307E407F50720F0A21BB30BC8
:1055E000E40BF50B661F771F881F991F1A9469F744
:1055F00060957095809590959B01AC01BD01CF01A0
:105600000895EE0FFF1F0590F491E02D099469278E
:105610009627692778278727782708950E94162BD1
:10562000332312F48A1B9B0B0C94272BA29FB001EF
:10563000B39FC001A39F700D811D1124911DB29FC6
:10564000700D811D1124911D08950E94162BB7FF26
:105650000895821B930B08950E94162BA59F900D11
:10566000B49F900DA49F800D911D11240895B7FF44
:105670000C942C2B0E942C2B821B930B08958F9241
:105680009F92AF92BF92CF92DF92EF92FF92CF9311
:10569000DF93EC01688179818A819B8161157105B5
:1056A0008105910521F464E279ED8BE597E02DE128
:1056B00033EF41E050E00E94822E49015A019B01E4
:1056C000AC01A7EAB1E40E942C2B6B017C01ACEE8B
:1056D000B4EFA50194010E943A2BDC01CB018C0DA3
:1056E0009D1DAE1DBF1DB7FF03C00197A109B048A6
:1056F00088839983AA83BB839F77DF91CF91FF90A3
:10570000EF90DF90CF90BF90AF909F908F900895D3
:105710000E943F2B089580E091E00E943F2B089566
:10572000B0E0A0E08093000190930101A0930201FA
:10573000B09303010895FC014150504030F00190B6
:105740000616D1F73197CF01089588279927089534
:10575000AEE0B0E0EEEAFBE20C94AF2E0D891E89BC
:1057600086E08C831A8309838FEF9FE79E838D8366
:10577000AE01475E5F4F6F89788DCE0101960E9422
:10578000CB2B2F813885020F131FF80110822E9624
:10579000E4E00C94CB2EABE0B0E0E1EDFBE20C9446
:1057A000A12E7C013B018A01FC01178216828381B4
:1057B00081FFB9C19AE0292ECE0101965C01F70163
:1057C0009381F30193FD859193FF81913F0188239C
:1057D00009F446C1853239F493FD859193FF819197
:1057E0003F01853229F4B70190E00E94AC2DE7CF4C
:1057F000912C412C512CFFE1F51538F08B3209F139
:1058000088F4803201F1833221F157FC3AC020ED57
:10581000280F2A3040F556FE1FC0929C200D1124FF
:10582000922E06C08D3291F0803379F7689450F84B
:10583000F30193FD859193FF81913F018111DBCFAE
:1058400020C0689451F8689452F8F2CF689453F8E5
:10585000EFCF689454F8ECCF429C200D1124422ED7
:10586000689455F8E5CF8E3229F456FCF9C0689457
:1058700056F8DECF8C3619F4689457F8D9CF8836AD
:10588000B9F2982F9F7D95549330C0F08336A1F1E3
:105890008337C1F1833509F05BC0F801C190D19025
:1058A0008F01692D70E056FC02C06FEF7FEFC601DB
:1058B0000E94962D4C01689457F80AC00C5F1F4F48
:1058C0002FE3298388248394912C6501E89457F869
:1058D00053FC04C04814190409F018F5342C811441
:1058E000910431F5332009F46ACFB70180E290E0EA
:1058F0000E94AC2D3A94F6CFF801808189830E5F27
:105900001F4FE0CFF801C190D1908F01692D70E059
:1059100056FC02C06FEF7FEFC6010E94A12D4C0123
:10592000D5CFB70180E290E00E94AC2D4A94D2CF4F
:10593000F60157FC859157FE81916F01B70190E008
:105940000E94AC2D31103A94F1E08F1A9108C7CF24
:10595000843619F0893609F074C0F80157FE6AC020
:1059600061917191819191918F01252D2F76D22E88
:1059700097FF09C090958095709561957F4F8F4FE7
:105980009F4F6894D7F82AE030E0A5010E94DC2DF3
:10599000C82ECA188C2C5D2CD6FE0CC0E89450F88A
:1059A000C91440F4D4FE05C0D2FC03C0FD2DFE7E18
:1059B0005F2E892C54FE8FC0FE01EC0DF11D8081FD
:1059C000803309F081C0252D297E522E852D8870C7
:1059D000382E53FC8FC050FE89C09C2C841418F4C0
:1059E0004C0C942C981854FE8BC0B70180E390E0C7
:1059F0000E94AC2D52FE09C088E790E051FE02C023
:105A000088E590E0B7010E94AC2DC91408F484C069
:105A1000CA94D12C9FEFC91AD90ACA0CDB1CF60113
:105A200082916F01B70190E00E94AC2DAC14BD04CF
:105A3000B1F758CF61917191072E000C880B990B2B
:105A400093CFD52CE894D4F82AE030E0853739F1AB
:105A5000952D997FD92E8F3601F148F48835A9F01C
:105A6000F701868197812B96E2E10C94BD2E803759
:105A700049F08837A9F7D4FE02C06894D2F820E133
:105A800030E00DC06894D4F8F6CF54FE03C0E92F7F
:105A9000E660DE2E20E132E002C028E030E0F801CE
:105AA000D7FE0DC061917191819191918F01A501F6
:105AB0000E94DC2DC82ECA18E894D7F86BCF6191EC
:105AC000719190E080E0F2CF52FC02C083947ECFCF
:105AD000839483947BCF852D867809F477CFF6CF96
